:020000040800F2
:10000000600600207D0100088501000887010008C6
:10001000890100088B0100088D0100080000000024
:100020000000000000000000000000008F01000838
:1000300091010008000000009301000895010008EC
:100040009701000897010008970100089701000830
:100050009701000897010008970100089701000820
:100060009701000897010008970100089701000810
:100070009701000897010008970100089701000800
:1000800097010008970100089701000897010008F0
:1000900097010008970100089701000897010008E0
:1000A00097010008970100089701000897010008D0
:1000B00097010008970100089701000897010008C0
:1000C00097010008970100089701000897010008B0
:1000D00097010008970100089701000897010008A0
:1000E00097010008970100089701000800F002F846
:1000F00000F034F80AA090E8000C82448344AAF18E
:100100000107DA4501D100F029F8AFF2090EBAE88B
:100110000F0013F0010F18BFFB1A43F0010318473B
:10012000A0090000B00900000023002400250026DB
:10013000103A28BF78C1FBD8520728BF30C148BF4A
:100140000B607047642900F07580782900F0AE805C
:10015000002070471FB51FBD10B510BD00F0D3F9CA
:100160001146FFF7F7FF00F009FC00F0F1F903B4C6
:10017000FFF7F2FF03BC00F0F9F9000009488047DF
:1001800009480047FEE7FEE7FEE7FEE7FEE7FEE779
:10019000FEE7FEE7FEE7FEE704480549054A064B91
:1001A00070470000C5070008ED000008600000204F
:1001B0006006002060020020600200200FB41CB521
:1001C000074B06AA7B4469460090059800F083F926
:1001D0000020694600F092F91CBC5DF814FB000099
:1001E0003503000070B5044685690068C10601D575
:1001F000302600E02026C00707D070BDD4E90121D9
:1002000030469047206A401C20626D1EF6D570BDB6
:1002100070B5044685690078C00707D170BDD4E980
:10022000012120209047206A401C20626D1EF6D5D7
:1002300070BD00002DE9F0410646002410687529C4
:10024000314616A510D0AFF30080002802DA4042F4
:1002500013A507E031688A0701D512A502E0490716
:1002600004D511A5012401E0AFF3008000210A228A
:1002700006F1240709E0B0FBF2FCB0FBF2F302FB4D
:100280001C00303078541846491C0028F3D123460E
:100290002A463046BDE8F04100F0BEB8000000003C
:1002A0002D0000002B0000002000000070B5044667
:1002B0000D4621461068AFF300802188090502D55C
:1002C0000F4A7A4402E00E4A7A440E32002104F1C9
:1002D000240305E000F00F060009965D5E54491CFA
:1002E0000028F7D120780023000704D5702D02D014
:1002F00009B1022311322046BDE8704000F08CB8ED
:10030000C00700002DE9F0474FF0000A8946044677
:10031000C0F820A02046E1688847002876D025282C
:1003200006D0D4E901219047206A401C2062F1E701
:10033000E168204600258847C4F81CA0064600272F
:10034000C4F818A02A2E09D0304600F095FB38B327
:1003500004EB8708303EC8F8186019E059F8041B10
:10036000204604EB87029161E1688847012F064629
:1003700018D1E069002820DA25F020051DE0D8F822
:10038000180000EB800006EB40003038C8F8180079
:100390002046E1688847064600F06EFB0028EED153
:1003A000012F0AD02E2E08D12046E16888477F1CF5
:1003B0000646022F45F02005C4DBA069002803DAB9
:1003C000404245F00105A061E80701D025F0100585
:1003D000B6B1A6F14100192802D8203645F40065CF
:1003E0004A463146204625604D46FFF7ABFE58B1E0
:1003F000012806D0ED1D25F0070000F1080989E766
:1004000004E005F1040985E730468AE7206ABDE883
:10041000F0877047704770472DE9F0470D469946C1
:100420009246044600F124080168880604D5E06974
:1004300021F01001216000E00120A84201DD471BEE
:1004400000E00027A1697A1902EB0900081AA061EF
:100450002078C00602D42046FFF7C4FE002608E03C
:10046000D4E901211AF806009047206A401C761C46
:1004700020624E45F4DB2078C0060AD52046FFF7FF
:10048000B1FE06E0D4E9012130209047206A401CEB
:100490002062381EA7F10107F4DC07E0D4E901214E
:1004A00018F805009047206A401C2062281EA5F11C
:1004B0000105F3DC2046FFF7ABFE2078000602D5ED
:1004C0000220BDE8F0870120FBE7000001694A1C1B
:1004D00002610878704700B58FB0CDE90131002185
:1004E000059105497944CDE9031011466846FFF7A7
:1004F00009FF0FB000BD0000E5FFFFFF0A6802F82A
:10050000010B0A607047754600F02CF8AE460500F6
:100510006946534620F00700854618B020B5FFF71E
:100520003BFEBDE820404FF000064FF000074FF0C3
:1005300000084FF0000BAC46ACE8C009ACE8C009BD
:10054000ACE8C009ACE8C00921F007018D4670474E
:1005500010B50446AFF300802046BDE81040FFF719
:1005600006BE000000487047000000200149182026
:10057000ABBEFEE7260002007047000080B541F2E6
:10058000140CC4F2020CDCF800304BF6C05ECFF65F
:10059000F07E43F04003CCF800307346DCF80020D6
:1005A00052060ED46BB1DCF8002052065CBFDCF8BA
:1005B00000205FEA426204D4DCF8002004335206D3
:1005C000ECD543F2000CC4F2020CDCF8082042F037
:1005D0000102CCF80820DCF80020013218BFBEF17F
:1005E000000F0ED0DCF8002001321CBFDCF8002028
:1005F00012F1010205D0DCF800200EF1040E0132E8
:10060000E9D121B30022002350F822E043F0010297
:10061000D2B28A42CCF800E019D250F822E043F07E
:100620000202D2B28A42CCF800E010D250F822E0A6
:1006300043F00302D2B28A42CCF800E007D204337E
:1006400050F822E0DAB28A42CCF800E0DCD3DCF8E1
:10065000000080BD42F20000C4F20200016821F0F7
:10066000070101600168490709D0016849071CBFFB
:1006700001685FEA417102D001684907F2D141F295
:100680000400C4F2020050F8041C102262F3C701F7
:1006900040F8041C50F8042C4BF6C051CFF6F07112
:1006A00042F0010240F8042C0A4650F8043C9B0733
:1006B0000ED46AB150F8043C9B075CBF50F8043C70
:1006C0005FEA837304D450F8043C04329B07ECD5F2
:1006D000026822F0F00202600A46036813F0F00F8D
:1006E00018BF002A0CD0036813F0F00F08D003687D
:1006F00013F0F00F04D00368043213F0F00FECD1C4
:10070000026822F4E06202600A46036813F4E06FB4
:1007100018BF002A0CD0036813F4E06F08D00368F8
:1007200013F4E06F04D00368043213F4E06FECD1EB
:10073000026822F4605202600A46036813F4605FA4
:1007400018BF002A0CD0036813F4605F08D0036858
:1007500013F4605F04D00368043213F4605FECD1DB
:10076000026822F0030202600A46036813F00C0FCD
:1007700018BF002A0CD0036813F00C0F08D00368D0
:1007800013F00C0F04D00368043213F00C0FECD1FB
:10079000026822F440420260026812F4404F18BF1F
:1007A00000290DD0026812F4404F09D0026812F4FB
:1007B000404F08BF70470268043112F4404FEBD13C
:1007C000704700007047000041F21800C4F20200B8
:1007D00002684BF6C051CFF6F07142F480420260DD
:1007E0000A4603685B040BD452B103685B045CBF28
:1007F00003685FEA434303D4036804325B04F0D523
:10080000026842F004020260026852070BD451B140
:10081000026852075CBF02685FEA427203D4026852
:1008200004315207F0D540F60401C4F201010A6810
:10083000022342F030020A600A6843F60C0063F3B8
:100840008712C4F201000A6040F2413140F8041CF2
:10085000416821F480414160416821F400614160B8
:10086000816821F020018160816821F008018160A8
:10087000816821F002018160016821F480510160EA
:10088000016821F480610160416821F440514160B8
:10089000016841F008010160016821F080010160F8
:1008A000016821F004010160016821F0200101606C
:1008B000816821F400718160816821F48061816028
:1008C000816821F480718160016841F40051016008
:1008D00004E000BF0168890448BF704701688904CB
:1008E00006D4016889045CBF01685FEA8141F1D5E3
:1008F000704700000A7802E0426011F8012F82B1CF
:1009000003681B06F8D403681B065CBF03685FEA34
:100910000363F1D403681B06F2D5EDE7016809060D
:1009200009D40168090606D4016809065CBF01689C
:100930005FEA0161F2D50D2141600168090609D421
:10094000016809065CBF01685FEA016102D40168C1
:100950000906F2D50A21416004E000BF016849069A
:1009600048BF70470168490606D4016849065CBF64
:1009700001685FEA4161F1D57047000088B041F23B
:100980001800C4F2020042684BF6C051CFF6F07175
:1009900042F0805242600A464368DB000BD452B1F9
:1009A0004368DB005CBF43685FEAC30303D443686A
:1009B0000432DB00F0D5026842F0010202600268F6
:1009C000D2070BD151B10268D20704BF02685FEAB7
:1009D000C27203D102680431D207F0D00420C4F2FD
:1009E00001000168022262F31A610160FFF732FE22
:1009F000FFF7EAFE63200790432040F6AE260690FC
:100A00001020C0F600066C460590204631460022B4
:100A10001023FFF7D3FB43F60005C4F20105284677
:100A20002146FFF767FF2046314601224323FFF7A7
:100A3000C5FB28462146FFF75DFF204631460222CE
:100A40006323FFF7BBFB28462146FFF753FF05A8AA
:100A50000321FFF793FD024604A12046FFF7AEFBFA
:100A600028462146FFF746FFFEE700BF43524333C7
:100A7000323D30782532580030380A2801D2012022
:100A800070470020704730313233343536373839CB
:100A900041424344454640305800303132333435CA
:100AA0003637383961626364656640307800446186
:100AB00074615B2531645D3D30782532580000005B
:100AC000D00A00080000002060060000280100088D
:04000005080000ED02
:00000001FF
