:020000040800F2
:1000000068060020B5010008B50200087902000862
:10001000B102000871020008C902000800000000D7
:10002000000000000000000000000000BD02000809
:100030007502000800000000B9020008C1020008B3
:10004000CF010008CF010008CF010008CF01000850
:10005000CF010008CF010008CF010008CF01000840
:10006000CF010008CF010008CF010008CF01000830
:10007000CF010008CF010008CF010008CF01000820
:10008000CF010008CF010008CF010008CF01000810
:10009000CF010008CF010008CF010008CF01000800
:1000A000CF010008CF010008CF010008CF010008F0
:1000B000CF010008CF010008CF010008CF010008E0
:1000C000CF010008CF010008CF010008CF010008D0
:1000D000CF010008CF010008CF010008CF010008C0
:1000E000CF010008CF010008CF01000800F002F89E
:1000F00000F050F814A696E8000CB244B344DA4578
:1001000001D100F047F8BAE80F000FA696E83000DA
:10011000A5EB040504EB0607AAEB0704A7F101070A
:100120004FEA15154FEA3414A4F10104AC4201D38F
:1001300000F030F813F0010F18BFFB1A43F0010371
:1001400000F001F8DBE7184720040000400400003D
:10015000103A24BF78C878C1FAD8520724BF30C8F3
:1001600030C144BF04680C60704700007047000055
:100170000023002400250026103A28BF78C1FBD8B0
:10018000520728BF30C148BF0B6070471FB51FBD65
:1001900010B510BD00F031F81146FFF7F7FF00F081
:1001A00095F800F04FF803B4FFF7F2FF03BC00F03E
:1001B00057F800000948804709480047FEE7FEE776
:1001C000FEE7FEE7FEE7FEE7FEE7FEE7FEE7FEE707
:1001D00004480549054A064B70470000C50200085F
:1001E000ED0000086800002068060020680200207A
:1001F00068020020704770477047754600F02CF881
:10020000AE4605006946534620F00700854618B003
:1002100020B5FFF7DDFFBDE820404FF000064FF0AE
:1002200000074FF000084FF0000BAC46ACE8C009E7
:10023000ACE8C009ACE8C009ACE8C00921F007018E
:100240008D46704710B50446AFF300802046BDE8E8
:100250001040FFF7A8BF00000048704708000020CA
:1002600001491820ABBEFEE72600020070470000DF
:10027000FEE7000070470000FEE7000044F6D3519F
:10028000C1F26201A0FB01014FF0FF3000EB9110C1
:100290004EF21001CEF20001486000208860052077
:1002A0000860704740F20001C2F200010860704728
:1002B000FEE70000FEE70000704700007047000006
:1002C0007047000070470000FEE7000082B041F276
:1002D0000405C4F2020568694EF60C5140F00100B5
:1002E00068616869CEF2000100F001000190019898
:1002F000A8694FF6FF0240F08050A861A8694FF04E
:10030000FF3700F08050019001980868104040F2DB
:100310000032C0F2FA52104308600A6842F200004C
:10032000C2F3022282F00703042B28BF0423033AFE
:1003300007FA03F338BF0022DB4303FA02F212018B
:10034000CA750421C4F201010A68012363F31A6229
:10035000C4F202000A60016821F00701016001682F
:10036000490709D0016849071CBF01685FEA41716C
:1003700002D001684907F2D155F8040C102161F34D
:10038000C70045F8040C55F8040C40F0010045F88E
:10039000040C55F8040C80070CD455F8040C8007A5
:1003A0005CBF55F8040C5FEA807003D455F8040C68
:1003B0008007EED5286820F0F0002860286820F437
:1003C000E0602860286820F460502860286820F0E9
:1003D00003002860286810F00C0F0BD0286810F07C
:1003E0000C0F07D0286810F00C0F03D0286810F00D
:1003F0000C0FEFD141F20028C0F27A0841F210064A
:1004000040F6044740F600044046C4F20106C4F238
:100410000107C4F20104FFF731FF4046FFF742FF36
:100420006869012240F010006861686900F01000FE
:1004300001900198686940F004006861686900F003
:10044000040001900198686940F0080068616869DB
:1004500000F0080001900198D7F80014022060F322
:100460001551C7F80014D7F8001421F44001C7F85B
:100470000014D7F8081441F40051C7F80814216893
:1004800021F003012160216860F383012160E168AC
:1004900041F00101E160216821F030012160216813
:1004A00060F387112160E16821F00201E1602168B9
:1004B00021F440312160216862F393412160216879
:1004C00021F440112160216862F397512160216875
:1004D00021F040712160216862F39B6121602168F5
:1004E00021F040512160216862F39F7121603968D9
:1004F00060F311413960396821F4402139604FF4CB
:1005000080513961396860F315513960396821F4D7
:10051000400139604FF4005139613A6860F3196263
:100520003A603A6822F040623A604FF480423A61A1
:100530003A6860F31D723A60386820F040403860D5
:100540004FF40040386100BFA068C00708BF716069
:10055000A068800748BF3160A068BA68000960F3EE
:100560000F32BA60F0E700008805000800000020A4
:100570000800000050010008900500080800002055
:1005800060060000700100080024F4000000000074
:04000005080000ED02
:00000001FF
