:020000040800F2
:1000000070060020A1010008A9010008AB0100084A
:10001000AD010008AF010008B101000800000000B8
:10002000000000000000000000000000B301000814
:10003000B501000800000000B7010008B901000880
:10004000BB010008BB010008BB010008BB010008A0
:10005000BB010008BB010008BB010008BB01000890
:10006000BB010008BB010008BB010008BB01000880
:10007000BB010008BB010008BB010008BB01000870
:10008000BB010008BB0100088D0A0008BB01000885
:10009000BB010008BB010008BB010008BB01000850
:1000A000BB010008BB010008BB010008BB01000840
:1000B000BB010008BB010008BB010008BB01000830
:1000C000BB010008BB010008BB010008BB01000820
:1000D000BB010008BB010008BB010008BB01000810
:1000E000BB010008BB010008BB01000800F002F8DA
:1000F00000F047F80AA090E8000C82448344AAF17B
:100100000107DA4501D100F03CF8AFF2090EBAE878
:100110000F0013F0010F18BFFB1A43F0010318473B
:10012000AC210000CC210000103A24BF78C878C16F
:10013000FAD8520724BF30C830C144BF04680C60ED
:10014000704700000023002400250026103A28BF35
:1001500078C1FBD8520728BF30C148BF0B60704739
:10016000662902F05280002070471FB500F018FB8E
:1001700004000020002101F0B7FDE0601FBD10B5B4
:1001800010BD00F00DFC1146FFF7EFFF00F0E0FDA1
:1001900000F02BFC03B4FFF7F2FF03BC00F06EFC91
:1001A0000948804709480047FEE7FEE7FEE7FEE70B
:1001B000FEE7FEE7FEE7FEE7FEE7FEE70448054947
:1001C000054A064B704700004D0D0008ED00000881
:1001D00070000020700600207002002070020020D5
:1001E0000FB41CB5074B06AA7B44694600900598DE
:1001F00000F0BDFA0020694600F0CCFA1CBC5DF8A6
:1002000014FB0000A90500002DE9F05F89460446B3
:100210004FF0000ADFF824B1FB44C0F820A02046CC
:10022000E168884700287DD0252806D0D4E901213F
:100230009047206A401C2062F1E700255F46204677
:10024000E16888472028064607DB312E05D2B81919
:1002500010F8200C08B10543F1E7A80701D525F0F7
:100260000405C4F81CA00027C4F818A02A2E09D041
:10027000304601F031FD38B304EB8708303EC8F852
:10028000186019E059F8041B204604EB87029161BD
:10029000E1688847012F064618D1E069002820DA76
:1002A00025F020051DE0D8F8180000EB800006EBD3
:1002B00040003038C8F818002046E16888470646F4
:1002C00001F00AFD0028EED1012F0AD02E2E08D110
:1002D0002046E16888477F1C0646022F45F020052E
:1002E000C4DBA069002803DA404245F00105A061A3
:1002F000E80701D025F01005A6B1A6F141001928A4
:1003000002D8203645F400654A463146204625602D
:100310004D46FFF725FF60B1012807D0ED1D25F000
:10032000070000E007E000F1080978E705F104099B
:1003300075E730467AE7206ABDE8F09FF21F0000BB
:100340007047704770472DE9FF4F0C461E464FF02F
:10035000FF378BB0D2E90001DDF860800A908A4651
:10036000C1F30A5505B93D46002108464FF000008B
:10037000BAF1000F00F4400005DA00EB80004FF402
:10038000400101EA50004FEA9059B9F1010F00DD38
:10039000B9460A9850EA4A000ED044F61050A5F229
:1003A000FF3545432F14B8F1000F1ED07542291EAA
:1003B0001EDDC9F100021CE0B8F1010F4FF0000092
:1003C00001D0302103E0F24305E02154401CB0424B
:1003D000FBDB30460022002121540B99C1F8088034
:1003E000C1E900200FB0BDE8F08FBD1B6D1CDEE73A
:1003F0004A4600DA694206A800F05CFA06AB93E8C8
:10040000070003AB83E8070050460A9901F088F81B
:100410008DE80700A0F500501F3800900398002DCC
:100420000ADD42F21F014A460844002303A9039053
:10043000684601F0F1FA09E0A0F500504A461F387D
:10044000002303A90390684601F0FBFA8DE807003A
:100450000004000C03D04FF0FF30410800E01046CC
:10046000B8F1000F03D00022009215461EE0751E61
:1004700005D400F099F9303262556D1EF9D5B346B6
:100480000122084302D000227F1C04E0207830289B
:1004900001D100227F1E002A099784D01DE0112D72
:1004A00007DA00F081F9303262556D1C50EA010222
:1004B000F5D1084302D00098C8B10EE00021681EB3
:1004C00005E0235C625C63542254401E491C814257
:1004D000F7DBAB46A81B401E0990002004F80B0078
:1004E0000B98099AC0F80880C0E9002B7AE711261A
:1004F0004FF0000857E72DE9F04F88460446D21D1B
:1005000022F0070191B0D1E90001CDE90A0101F023
:10051000CFFB02460B98C00F01D02D2007E02068CA
:10052000810701D52B2002E0202101EAC000032A27
:10053000099001D0072A05DB03464146204600F01A
:1005400079F90BE12078800601D5E06900E006200A
:10055000B8F1650F814606D0B8F1660F18D0B8F132
:10056000670F70D131E00020B9F1110F009001DB6D
:10057000112301E009F101030AAA01A90CA8FFF760
:10058000E2FEDDE90C70002609F10105834647E033
:1005900001204B4600904FF000470AAA01A90CA881
:1005A000FFF7D1FEDDE90DB00C995D46002610B9CC
:1005B00009F101000D18B9EB050003D4C0F1FF36B5
:1005C00009F10105A5EB09002BE0B9F1010F01DAF2
:1005D0004FF001090020B9F1110F0090484601DDEC
:1005E000112300E003460AAA01A90CA8FFF7ABFEFD
:1005F000DDE90C704D4600268346207800070AD4BA
:10060000AB4500DA5D4601A8012D04DD411911F862
:10061000011C302907D04F4502DA17F1040F04DA24
:10062000012082460FE06D1EEEE7002F02DCED1B7D
:100630003E4403E0781CA84200DD7D1CB81B00F19D
:10064000010A4FF000472078000703D4AA4501DBD8
:100650004FF0FF3A0021B7F1004F0DF143088DF83C
:10066000431024D002202B23002F01DA7F422D23B8
:100670000A21021EA0F1010000DC5FB197FBF1FC32
:1006800097FBF1F201FB1C7C17460CF1300C08F8CB
:1006900001CDEEE7A8F1010003702188090501D51D
:1006A000452100E06521A0F1010800F8011C09982E
:1006B0000FA9A1EB0807FF1D00B10120411901EBB3
:1006C000EA70A1693844081A401EA0612078C0066B
:1006D00002D42046AFF30080099828B1D4E9012163
:1006E0009047206A401C20622078C00622D5204610
:1006F000AFF300801EE0002E04DBB34502DD01A84D
:10070000805D00E03020D4E901219047206A401C40
:100710002062761CAAF101005FEA000A0AD100F00B
:100720003FF8C0680168405CD4E901219047206A25
:10073000401C2062281EA5F10105DCDC07E0D4E99D
:10074000012118F8010B9047206A401C2062381ED6
:10075000A7F10107F3DC2046AFF30080032011B0BE
:1007600041E6000001694A1C02610878704700B543
:100770008FB0CDE901310021059105497944CDE9DA
:10078000031011466846FFF73FFD0FB000BD0000A3
:10079000E5FFFFFF0A6802F8010B0A6070470000DE
:1007A000004870472800002030B5B0F10A0271F10E
:1007B00000034FEA900E4EEA817EB0EB0E0061EB33
:1007C00091014FEA101E4EEA017E10EB0E0041EB44
:1007D00011114FEA102E4EEA016E10EB0E0041EBA4
:1007E00011214FEA104E4EEA014E10EB0E0041EB84
:1007F0001141401841F100014FEAD00040EA417038
:100800004FEAD1014FEA810444EA907410EB80056D
:1008100044EB01046D1944EB0404521BA3414FF057
:10082000000348BF0A3200D530BD401C41F1000131
:1008300030BD00002DE9F0411F4604460326016843
:10084000072A01F4006004DB08B116A505E016A52F
:1008500003E008B115A500E015A521F01000206007
:10086000A069C01EA0610FB1401EA0612046AFF379
:1008700000804FB1D4E9012138469047206A401CDE
:100880002062C01C206206E0206AFAE7D4E9012158
:1008900015F8010B9047761EF8D22046AFF3008082
:1008A000BDE8F0814E414E006E616E00494E46003B
:1008B000696E66002DE9F047814616468AB03548D4
:1008C00078440DC88DE80D0032487844801C03AC94
:1008D0000DC884E80D0041F69B300844372190FB99
:1008E000F1F290FBF1F5A5F1800501FB12041B3C30
:1008F00002D56442012000E00020DFF898A0804685
:100900000027FA44AAF1BE0A0EE0E0070AD03246F8
:10091000684607EB470101230AEB810101F091F8DA
:100920008DE8070064107F1C002CEED1194F7F4426
:10093000AE3F19E0E80715D007EB04100DF1180AD7
:1009400090E80E008AE80E00C068F04201D19819C4
:1009500008903246012306A903A801F072F803AB00
:1009600083E807006D10641C002DE3D14FF00103F4
:1009700032466946B8F1000F03A802D001F04CF8E6
:1009800001E001F05EF8C9E90001C9F808200AB0E9
:10099000BDE8F087D8190000004870470800002023
:1009A0007546FFF7F9FFAE4605006946534620F04D
:1009B0000700854618B020B5FFF700FCBDE82040D1
:1009C0004FF000064FF000074FF000084FF0000B0B
:1009D000AC46ACE8C009ACE8C009ACE8C009ACE87A
:1009E000C00921F007018D46704710B50446AFF3EA
:1009F00000802046BDE81040FFF7CCBB4FF0013C23
:100A000050F8042B51F8043B9A4221D1A2EB0C037D
:100A1000934313EACC1317D150F8042B51F8043B3D
:100A20009A4215D1A2EB0C03934313EACC130BD1DA
:100A300050F8042B51F8043B9A4209D1A2EB0C0365
:100A4000934313EACC13DBD04FF00000704700BF94
:100A5000D01A01BAB1FA81F101F0180122FA01F0BD
:100A6000CB40DBB2C0B2C01AC1F120012CFA01F3B5
:100A7000D11A914311EAC311E6D1704701491820F8
:100A8000ABBEFEE7260002007047000042F20040C5
:100A9000C4F201000168890758BF7047016821F05E
:100AA00002010160C06C40F26801C2F200010880DE
:100AB000704700002DE9F04FB1F8018098FAA8F3D3
:100AC000B3FA83F338FA03F750D040F2011C4FF029
:100AD000011E4FF00F0A4FF0040903E0013338FA0A
:100AE00003F243D028FA03F5ED07F7D0B3F1080578
:100AF0000EFA05F545F080664D6838BF0CFA03F62E
:100B0000082D0DD1370AD1F810B0C46897FAA7F7AD
:100B1000B7FA87F724EA16240BFA07F73C43C460B8
:100B2000370E96FAA6F6B6FA86F63C58B6000AFADA
:100B300006F224EA020205FA06F442EA04053D50F0
:100B40004A6842F00802092AC8D18A680324B440DE
:100B500025EA0404B2402243C251CC6809FA06F5E2
:100B6000AA43B4402243C251B8E700BF0020BDE809
:100B7000F08F000044F6D351C1F26201A0FB0101E5
:100B80004FF0FF3000EB91104EF21001CEF2000159
:100B900048600020886005200860704741F2040C1E
:100BA000C4F2020CDCF8002002F00C02082A41F228
:100BB0000022C0F27A0216D1DCF80030DB0305D443
:100BC00040F60012C0F23D0207E000BFDCF8003042
:100BD000C3F340430133B2FBF3F2DCF80030C3F35C
:100BE000834302335A430260DCF8003042F2B421FE
:100BF000C3F30313C0F60001C95C42F2C42322FA16
:100C000001F14160DCF80020C0F60003C2F30222CB
:100C10009A5C21FA02F28260DCF80020C2F3C22260
:100C20009A5CD140C160704740F20001C2F20001FD
:100C30000860704770B584B00446C06880045DD415
:100C40000D46E06841F20C6105F1040C88439CE814
:100C50004E10084318433043E06020696E4620F48C
:100C6000405010432061606920F4407040EA0C005D
:100C700060613046FFF792FF44F20040C4F200008A
:100C8000844211D044F60000C4F2000084420BD02C
:100C900043F60000C4F2010084422FD106F10C009B
:100CA000006828B92AE000BF06F10800006828B3F0
:100CB000296819B3192250438900B0FBF1F048F2BA
:100CC0001F51C5F2EB11A0FB01235A094FF69C738B
:100CD000C0F6FF7302FB0300322303EB0010A0FBFE
:100CE0000101F02000EA511000EB0210C1F34311A2
:100CF00080B20844A060002004B070BD012004B0A0
:100D000070BD000081B04EF21001CEF200010A6801
:100D100001300092009A28BF4FF0FF300A68D203DA
:100D200000EBE27078B10A68D20300EBE27050B1D8
:100D30000A68D20300EBE27028B10A68D20300EB24
:100D4000E2700028EAD101B070470000704700004F
:100D50008CB041F21806C4F2020630684EF60C5907
:100D600040F0010030603068CEF2000900F0010070
:100D70000590059870684FF6FF0240F08050706053
:100D80007168022301F0805105910599D9F800108E
:100D900042F20000114040F20032C0F2FA52114318
:100DA000C9F800100421C4F201010A68C4F202006B
:100DB00063F31A620A60016821F0070101600168AB
:100DC000490709D0016849071CBF01685FEA417102
:100DD00002D001684907F2D156F8180C102161F3CE
:100DE000C70046F8180C56F8180C40F0010046F8F9
:100DF000180C56F8180C80070CD456F8180C8007FD
:100E00005CBF56F8180C5FEA807003D456F8180CD3
:100E10008007EED556F8140C20F0F00046F8140CBC
:100E200056F8140C20F4E06046F8140C56F8140C34
:100E300020F4605046F8140C56F8140C20F003000F
:100E400046F8140C56F8140C10F00C0F0ED056F88F
:100E5000140C10F00C0F09D056F8140C10F00C0FF5
:100E600004D056F8140C10F00C0FEBD141F2002412
:100E7000C0F27A0443F640172046CFF6D277FFF748
:100E800079FE2046FFF7D0FE56F8140C20F44040BF
:100E900046F8140C306840F004003060306800F010
:100EA00004000590059800200990CDE907003068FE
:100EB00040F4007030603846316889050BD450B179
:100EC000316889055CBF31685FEA815103D43168BC
:100ED00004308905F0D5306840F6000840F0040081
:100EE00030603068C4F2010800F0040000900098FF
:100EF00040F6080042F208450590002405A9404646
:100F0000C4F201050694FFF7D5FDD9F800004EF2B2
:100F10001240CEF2000004704EF20010CEF200003B
:100F20004FF480210160286820F400602860384672
:100F3000296809050BD550B12968090544BF2968FE
:100F40005FEA015103D5296804300905F0D455F84A
:100F5000040C20F4807045F8040C384655F8041C45
:100F6000C9050ED568B155F8041CC90544BF55F82C
:100F7000041C5FEAC15104D555F8041C0430C905AE
:100F8000ECD455F8040C20F4702045F8040C3846D5
:100F900055F8041C11F4702F18BF00280FD055F815
:100FA000041C11F4702F0AD055F8041C11F4702F92
:100FB00005D055F8041C043011F4702FE8D12868CE
:100FC00040F4602028603846296801F46021B1F5BA
:100FD000602F18BF002812D0296801F46021B1F5F4
:100FE000602F0CD0296801F46021B1F5602F06D084
:100FF0002968043001F46021B1F5602FE4D155F87F
:10100000040C20F4604045F8040C384655F8041CE4
:1010100011F4604F18BF00280FD055F8041C11F4CC
:10102000604F0AD055F8041C11F4604F05D055F8F4
:10103000041C043011F4604FE8D155F8040C20F47E
:10104000006045F8040C384655F8041C09050ED517
:1010500068B155F8041C090544BF55F8041C5FEA43
:10106000015104D555F8041C04300905ECD4286856
:1010700020F48070286038462968C9050BD550B126
:101080002968C90544BF29685FEAC15103D52968A9
:101090000430C905F0D4286840F0020028603846C2
:1010A000296889070BD450B1296889075CBF296872
:1010B0005FEA817103D4296804308907F0D5E86AB2
:1010C000032161F30400E862A8684FF0000920F4EE
:1010D0006060A860CDF81090306840F2020A40F4D9
:1010E00080403060306801AA00F480400590059887
:1010F000306843F6000440F00400306030686E460B
:1011000000F00400059005980920C0F2024A82E828
:10111000030240463146C4F20104CDF800A0FFF7B7
:10112000C9FC0AF1021000900420019040463146AB
:10113000FFF7C0FC4FF41650CDE905090C20CDE9AE
:10114000090905A92046CDE90799CDF82C90FFF7AC
:1011500071FD206920F490402061606920F02A0030
:101160006061E06840F40050E060286840F00100F1
:10117000286038462968C9070BD150B12968C907CA
:1011800004BF29685FEAC17103D129680430C90727
:10119000F0D055F8040C40F0200045F8040C384617
:1011A00055F8041C89060ED468B155F8041C89064C
:1011B0005CBF55F8041C5FEA816104D455F8041C37
:1011C00004308906ECD5286840F0040028603846D1
:1011D000296849070BD550B12968490744BF2968D8
:1011E0005FEA417103D5296804304907F0D42868C3
:1011F00040F4800028603846296849020BD550B178
:101200002968490244BF29685FEA412103D529685A
:1012100004304902F0D4286820F48010286028683F
:10122000C0020BD557B12868C00244BF28685FEAE6
:10123000C02003D528680437C002F0D40D206060B8
:101240000120FFF75FFD0A2060600120FFF75AFDD3
:1012500040F2680946F266684FF20006C2F20009E1
:10126000C4F20A08C4F27F56A8A705AD04E000BF87
:101270004FF4FA70FFF746FDB9F8000000F07BFD6F
:101280004FF06632434600F089FD00F043FD3146E1
:1012900000F0AEFE00F080FE02460B4628463946BE
:1012A000FEF79EFF9DF8140060602068000609D4D8
:1012B000206800065CBF20685FEA006002D42068F6
:1012C0000006F2D59DF8150060602068000609D47C
:1012D000206800065CBF20685FEA006002D42068D6
:1012E0000006F2D59DF8160060602068000609D45B
:1012F000206800065CBF20685FEA006002D42068B6
:101300000006F2D59DF8170060602068000609D439
:10131000206800065CBF20685FEA006002D4206895
:101320000006F2D59DF8180060602068000609D418
:10133000206800065CBF20685FEA006002D4206875
:101340000006F2D59DF8190060602068000609D4F7
:10135000206800065CBF20685FEA006002D4206855
:101360000006F2D59DF81A0060602068000609D4D6
:10137000206800065CBF20685FEA006002D4206835
:101380000006F2D59DF81B0060602068000609D4B5
:10139000206800065CBF20685FEA006002D4206815
:1013A0000006F2D59DF81C0060602068000609D494
:1013B000206800065CBF20685FEA006002D42068F5
:1013C0000006F2D59DF81D0060602068000609D473
:1013D000206800065CBF20685FEA006002D42068D5
:1013E0000006F2D59DF81E0060602068000609D452
:1013F000206800065CBF20685FEA006002D42068B5
:101400000006F2D59DF81F0060602068000609D430
:10141000206800065CBF20685FEA006002D4206894
:101420000006F2D59DF8200060602068000609D40F
:10143000206800065CBF20685FEA006002D4206874
:101440000006F2D59DF8210060602068000609D4EE
:10145000206800065CBF20685FEA006002D4206854
:101460000006F2D59DF8220060602068000609D4CD
:10147000206800065CBF20685FEA006002D4206834
:101480000006F2D59DF8230060602068000609D4AC
:10149000206800065CBF20685FEA006002D4206814
:1014A0000006F2D59DF8240060602068000609D48B
:1014B000206800065CBF20685FEA006002D42068F4
:1014C0000006F2D59DF8250060602068000609D46A
:1014D000206800065CBF20685FEA006002D42068D4
:1014E0000006F2D59DF826006060206800063FF5F2
:1014F000BFAE206800065CBF20685FEA00603FF571
:10150000B7AE20680006F0D5B2E600BF566F6C7427
:101510006167652069733A2025302E32660D0A0016
:101520005FEA400C08BF91F0000F4FEA8C234FEAAE
:10153000C12243EA51514FEA1C5018BF00F5F04058
:101540004FEA300018BF41F000415FEA6C5C00F0E8
:101550002980BCF1FF3F08BF40F080407047130C6A
:1015600006BF12044FF0100C4FF0000C130E04BF16
:1015700012020CF1080C130F04BF12010CF1040C41
:10158000930F04BF92000CF1020CD30F04BF520062
:101590000CF1010C11464FF00002A0F11F00A0EB6E
:1015A0000C00704711F0004F08BF704731F0004148
:1015B0003FF4D5AF0B0C06BF09044FF0100C4FF0F1
:1015C000000C0B0E04BF09020CF1080C0B0F04BF3A
:1015D00009010CF1040C8B0F04BF89000CF1020C03
:1015E000CB0F04BF49000CF1010CCCF1200322FA0F
:1015F00003F341EA030102FA0CF2A0EB0C0000F144
:101600000100704723F07F4720F07F4C80EA030001
:1016100000F00040ACEB070303F57C5303F1FF033C
:101620002DE9804909B44FEA144324EA03484FEAFC
:10163000154B25EA0B4E0FF2042606EB13273E78D6
:1016400003FB0667C7F5000707FB06F64FEAD64619
:1016500006F102064FEA543707FB066CCCF1005C3A
:101660004FEA1C472CEA074C0CFB06F507FB06F477
:1016700004EB15464FEA961649085FEA320234BF7A
:1016800000204FF000404FEAD13706FB07FC4FEA3D
:101690001C4C0CFB0BF7D21B03FB0CF761EB070197
:1016A0000CFB0EF7B0EB074072EB17420CFB08F790
:1016B00034BFA2EB0742B2EB074261EB17414FEA9E
:1016C0000C444FEA910706FB07FC4FEA1C4C0CFB4D
:1016D0000BF7B0EBC74072EB573203FB0CF734BF8C
:1016E000A2EBC742B2EBC74261EB57310CFB0EF7DE
:1016F000B0EBC70072EB57720CFB08F734BFA2EBDC
:10170000C702B2EBC70261EB57714FEA816141EA50
:1017100092114FEA826242EA90124FEA806004EB33
:10172000CC04039F4FEAD13706FB07FC4FEA1C4C61
:101730000CFB0BF7D21B03FB0CF761EB07010CFB57
:101740000EF7B0EB074072EB17420CFB08F734BF03
:10175000A2EB0742B2EB074261EB17414FEA8C550F
:1017600004EB9C244FEA910706FB07FC4FEA1C4C54
:101770000CFB0BF7B0EBC74072EB573203FB0CF7D7
:1017800034BFA2EBC742B2EBC74261EB57310CFB4F
:101790000EF7B0EBC70072EB57720CFB08F734BFC3
:1017A000A2EBC702B2EBC70261EB57714FEA81614E
:1017B00041EA92114FEA826242EA90124FEA806057
:1017C00015EB4C2544F100044FEAD13706FB07FC2A
:1017D0004FEA1C4C0CFB0BF7D21B03FB0CF761EB25
:1017E00007010CFB0EF7B0EB074072EB17420CFB46
:1017F00008F734BFA2EB0742B2EB074261EB174197
:101800004FEA813141EA92414FEA823242EA904204
:101810004FEA80304FEA0C7615EB1C1544F10004BA
:1018200048EA03434EEA0B484FF0000EB2EB080CB7
:1018300071EB030724BF624639464EEB0E0E4FF0A4
:10184000000B0018524149414BEB0B0BB2EB080C5B
:1018500071EB03077BF1000B24BF624639464EEB68
:101860000E0E4FF0000B0018524149414BEB0B0B91
:10187000B2EB080C71EB03077BF1000B24BF62464F
:1018800039464EEB0E0E51EA020718BF46F001062C
:1018900016EB0E7655F1000254F1000103D5BDE8B8
:1018A0008901BDE80088BDE88901BDE80048B61996
:1018B000524141EB0101A3F10103704780807F7E1B
:1018C0007D7C7B7A797877767675747372717170B6
:1018D0006F6E6E6D6C6C6B6A6A6968686766666568
:1018E0006464636362616160605F5F5E5E5D5D5CF6
:1018F0005C5B5B5A5A595958585757565655555567
:101900005454535352525251515050504F4F4F4EC6
:101910004E4D4D4D4C4C4C4B4B4B4A4A4A49494914
:101920004848484747474746464645454544444456
:101930004443434343424242424141419C46002B7F
:1019400030D477002BD04FEA37071CB503B44FF0E3
:1019500010004FF01001BAF1000F06D0BCF1000FDB
:10196000DCBF40F0080040F008014FF000000FBC61
:10197000BDE810400BF1010BBBF1010F08BF5FEA9E
:10198000170722BF12F1010211F101014FF00041CE
:1019900043F1000300F0004043EA00007047F9D330
:1019A0005708D0E746EA06464FEA164613F1400FBD
:1019B0001FDD13F1200FDFBF16430A46002120333D
:1019C0005B42BED0C3F1200746EA06464FEA164600
:1019D00002FA07F746EA070622FA03F2C3F12007E4
:1019E00001FA07F742EA070221FA03F14FF0000378
:1019F000A7E746EA020646EA06464FEA164646EAE0
:101A00000106BCBF46EA0646360C4FF000034FF015
:101A100000024FF0000194E72DE9804C70B49A4623
:101A2000934691E8380007C831EA400C48BF34EAD1
:101A3000430C03D5FFF7E6FDFFF780FFF0BCBDE8E0
:101A4000008C2DE9804C70B49A46934691E838009A
:101A500007C810F0804F08BF13F0804F03D100F08B
:101A600005F8FFF76BFFF0BCBDE8008C20F07F4766
:101A700023F07F4C80EA030000F0004007EB0C03EA
:101A8000A3F57C53A3F1FE0392F0000F00F0B380A6
:101A900095F0000F00F077802DE901494FEA1140E1
:101AA00021EA00484FEA144624EA064700FB06FCF8
:101AB00008FB06F607FB08F818EB06484CEB164C3B
:101AC00000FB07F718EB07484CEB17404FEA124BA7
:101AD00022EA0B4E4FEA154625EA06470BFB06FCA9
:101AE0000EFB06F607FB0EFE1EEB064E4CEB164CED
:101AF0000BFB07F71EEB074E4CEB174B18EB0B08D5
:101B000040F1000018EB0E0B58EB000840F100000C
:101B10008F1A4FF000014FF000063CBFC943661B0F
:101B200014BFB5EB040C00213CBFC943F61B4FEAC0
:101B3000174427EA04454FEA1C472CEA074C04FBEC
:101B4000076205FB07F70CFB05F616EB074642EBB1
:101B5000174204FB0CFC16EB0C4642EB1C421BEB41
:101B6000060658EB020241414EEA8E0E46EA9E06F8
:101B700001D5BDE80189B619524141EB0101A3F13C
:101B80000103BDE801894FEA144524EA05464FEAFE
:101B9000114721EA074C05FB07F406FB07F70CFB8E
:101BA00006F111EB074144EB174405FB0CFC11EB6C
:101BB0000C4144EB1C444FEA124722EA074C05FB58
:101BC00007F206FB07F70CFB06F616EB074642EB9F
:101BD000174205FB0CFC16EB0C4642EB1C456A1841
:101BE00054F1000148BF7047B619524141EB010161
:101BF000A3F10103704795F0000F37D04FEA11426F
:101C000021EA02464FEA144724EA074C02FB07F197
:101C100006FB07F70CFB06F414EB074441EB1741F6
:101C200002FB0CFC14EB0C4441EB1C414FEA154742
:101C300025EA074C02FB07F506FB07F70CFB06F647
:101C400016EB074645EB174502FB0CFC16EB0C4662
:101C500045EB1C42121951F1000148BF7047B619FB
:101C6000524141EB0101A3F1010370474FEA1445D2
:101C700024EA05464FEA114721EA074C05FB07F124
:101C800006FB07F70CFB06F212EB074241EB17418C
:101C900005FB0CFC12EB0C4251EB1C414FF0000613
:101CA00048BF7047921841EB0101A3F1010370474F
:101CB000490050EAC12018BF04204A0D18BF40F067
:101CC000010040F2FF72B2EB515F08BF40F002002A
:101CD000012808BF0520704730380A2801D20120AA
:101CE000704700207047000010B500290AD008781E
:101CF000002807D005487844FEF780FE002801D070
:101D0000002010BD0248784410BD0000F605000018
:101D1000EE05000021F0004201F00043A2F1605204
:101D2000B2F5801F28BFD2F17F6C0BD95FEA001C8F
:101D300043EAC20242EB507018BF704728BF20F040
:101D400001007047B2F5801FBCBF184670474FEACC
:101D5000410C1CF5001F02D2084600F051BA70B5C4
:101D600000F0C6F800000089FFF7F6BF4FF0004012
:101D7000A0F580007047B0FA80F310FA03F10AD0A2
:101D8000C3F11D0303F580634FEA03524FEA41504C
:101D900002EBD12170474FF00000704770B5DFF8BB
:101DA00048C11CEA111E1EBF1CEA13159EEA0C0F47
:101DB00095EA0C0F00F06F8081EA03044EEAD47EAE
:101DC000AE4421EA4C1123EA4C1341F4801143F450
:101DD0008013AEF17F7EA1FB024CA0FB0365361998
:101DE00055EB0C05A1FB034C4CF10003A0FB021CBE
:101DF00016EB0C06654153F10003094218BF46F08B
:101E0000010613F4007F0BD14FEA03314FEA05308E
:101E100041EA155140EA165034036FF003020AE01C
:101E20004FEAC3214FEAC52041EA555140EA5650D6
:101E3000F4026FF0020202EB2E4201EB025585EA3A
:101E4000CE710AD05FEA440C18BF24F0004450F170
:101E5000000041F1000120EAD47040F2FE7C6245AE
:101E600000D270BDA84214BF4FF080444FF04044F0
:101E7000002E08BF0024BEF1806FA8BFA1F1C041B1
:101E8000BDE8704080F2828001F1C04101F0004164
:101E90004FF0000070470CEA13159EEA0C0F18BFB4
:101EA00095EA0C0F06D081EA030E4FF000000EF009
:101EB000004170BD00F01CF88900013E00F007B839
:101EC00000F009B84FEA430C5FEA5C5C08D081EA95
:101ED000030100F05BB84FEA410C5FEA5C5CF6D1AD
:101EE00002494FF0000070470000FF070000F87F34
:101EF0000EF1020E2EF0030E5EF8046B364205D48E
:101F0000012A43EB030515F5001F12D8012841EB08
:101F1000010C1CF5001F0CD80ED14FEAD17C0CEB44
:101F20004C0C0CF1020C15F5001F08BF4CEBD37CD8
:101F300004E04FF0080C01E04FEAD37C0CEB4C05B9
:101F400026FA05F606F00706B6F1040C06D20EEBEB
:101F5000860CBDE870404CF0010C6047DFE80CF0E7
:101F6000090B02024FF00041A1F500214FF00000E3
:101F700070BD19461046012851EB010418BFD4F575
:101F8000001484BF002001F0004170BD0808A0F5D6
:101F900000114FEA3101704743004FEAD30C4FEA7A
:101FA0003C0C43401FBF40070CF1605113F0FE4F43
:101FB00070471CF0006F03D10CF000410020704707
:101FC0000CF0004343EA507040EACC0010B500F03A
:101FD000D1F800BF000000924FEA0001FFF7D6BF22
:101FE0004FF00041A1F500214FF0000070470000C4
:101FF0004FF47F0C1CEAD0121EBF1CEAD11392EAE8
:102000000C0F93EA0C0F00F0858090EA010F48BF97
:1020100042F4807240F4000C41F400002CF07F4147
:1020200020F07F4000B5A2EB030281420FF2081CB2
:10203000ACEB504E9EF800E0C0F100004FEA4E0EAF
:1020400000FB0EFC38BF49004FEA2C1C0CFB0EF3C2
:102050004FEACE1E0EEB635E4FEA112C0EFB0CFC1A
:102060004FEAC1214FEA1C5300FB031102F5FA02AB
:102070004FEA112C0EFB0CFC4FEA01314FEADC4C0D
:1020800000FB0C1142EB2242C14228BF09184CEB65
:1020900003335DF804EB10EB410143EBC250B2F5A2
:1020A0007C0F38BF704729D512F0F00F1CBF00F12C
:1020B000C04000F00040704700818283848586879D
:1020C00088898B8C8D8E8F919293959697999A9CF7
:1020D0009D9FA0A2A3A5A7A8AAACAEB0B2B3B5B766
:1020E000B9BCBEC0C2C5C7C9CCCED1D4D7D9DCDF3C
:1020F000E2E6E9ECF0F3F7FAFE0000004FEA400CEC
:102100000CF1807CBCF17E4F28BF7047B0F1C0401D
:1021100000F076B80CEAD11390EA010F48BF42F400
:102120008072624538BF634507D213F47F0F16D023
:1021300080EA010000F00040704710B500F01AF886
:10214000097EFC3E00F005B880EA010000F0004086
:10215000704780EA010000F0004000F051B812F42E
:102160007F0F04BF0248704780EA010000F048B8C2
:102170000000C07F0EF1020E2EF0030E5EF8044B3D
:10218000244204D44FEA4102B2F17F4F11D84FEA02
:102190004003B3F17F4F0CD80ED14FEAD07C0CEB4B
:1021A0004C0C0CF1020CB2F17F4F08BF4CEBD17C10
:1021B00004E04FF0080C01E04FEAD17C0CEB4C033B
:1021C00024FA03F404F00704B4F1040C06D20EEB75
:1021D000840CBDE810404CF0010C6047DFE80CF0C7
:1021E000070802024FF00040A0F5800010BD08462D
:1021F000420018BFD2F1807288BF00F0004010BDCD
:10220000FF2141EAD050C0057047FEF774B90400C1
:1022100000080000000000000002000100001000A3
:1022200002400000000000A0000000000540000087
:10223000000000C8000000000C4000000000409CAE
:1022400000000000194000000020BCBE000000009B
:1022500034400000BFC91B8E00000004B5400000E0
:10226000504BCFD06607E2CF010000006C41000068
:102270003E8251AADFEEA73401000000D9420000DF
:10228000DCB5A0E23A301F97FFFFFFFFB445000026
:10229000FD25A0C8E9A3C14FFFFFFFFFFF3F0000DE
:1022A0000000008000000000FF3F000000000080F0
:1022B0000000000000000000000000000102030414
:1022C00006070809000000000102030408230008B3
:1022D000000000200800000028010008102300086A
:1022E0000800002068060000440100081C000000EF
:1022F00043000000F8FFFFFF0C0000000E0000008C
:102300000F0000002E0000000024F4000000000078
:04000005080000ED02
:00000001FF
