:020000040000FA
:100000006806002089010000B1040000F102000030
:10001000AD04000045020000C5040000000000001F
:10002000000000000000000000000000B904000013
:100030004902000000000000B5040000BD040000FB
:10004000A3010000A3010000A3010000A301000020
:10005000A3010000A30100004D020000A301000065
:10006000A3010000A3010000A3010000A301000000
:10007000A3010000A3010000A3010000A3010000F0
:10008000A3010000A3010000A3010000A3010000E0
:10009000A3010000A3010000A3010000C5020000AD
:1000A000A3010000A3010000A3010000A3010000C0
:1000B000A3010000A3010000A3010000A3010000B0
:1000C000A3010000A3010000A3010000A3010000A0
:1000D000A3010000A3010000A3010000A301000090
:1000E00079020000A3010000A301000000F002F863
:1000F00000F03AF80AA090E8000C82448344AAF188
:100100000107DA4501D100F02FF8AFF2090EBAE885
:100110000F0013F0010F18BFFB1A43F0010318473B
:100120006406000084060000103A24BF78C878C135
:10013000FAD8520724BF30C830C144BF04680C60ED
:10014000704700000023002400250026103A28BF35
:1001500078C1FBD8520728BF30C148BF0B60704739
:100160001FB51FBD10B510BD00F031F81146FFF7E7
:10017000F7FF00F0A9F900F04FF803B4FFF7F2FF22
:1001800003BC00F057F800000948804709480047C1
:10019000FEE7FEE7FEE7FEE7FEE7FEE7FEE7FEE737
:1001A000FEE7FEE704480549054A064B7047000094
:1001B000C1040000ED000000680000206806002077
:1001C000680200206802002070477047704775463B
:1001D00000F02CF8AE4605006946534620F00700B3
:1001E000854618B020B5FFF7DDFFBDE820404FF091
:1001F00000064FF000074FF000084FF0000BAC4630
:10020000ACE8C009ACE8C009ACE8C009ACE8C0097A
:1002100021F007018D46704710B50446AFF300800A
:100220002046BDE81040FFF7A8BF00000048704717
:100230000800002001491820ABBEFEE7260002009E
:1002400070470000FEE700007047000040F21440D5
:10025000C4F201000168C90708BF704701210160AD
:10026000D0F8F81301F0020141EA014181F00201E6
:10027000C0F8FC137047000040F21440C4F20100C3
:10028000016809050CD54FF400610160D0F8F8133E
:1002900001F0080141EA014181F00801C0F8FC13B6
:1002A0000168C90458BF70474FF480510160D0F80D
:1002B000F81301F0100141EA014181F01001C0F88A
:1002C000FC13704740F21440C4F201000168490673
:1002D00058BF704740210160D0F8F81301F00401C5
:1002E00041EA014181F00401C0F8FC1370470000AD
:1002F000FEE70000014600790A68C8B1002A04BF81
:1003000000207047487940F2004C0228C4F2010CEA
:100310001AD001281CD038BBDCF804009043CCF87C
:100320000400DCF800001043CCF800001AE000BF25
:1003300040F20040C4F2010001689143016041684D
:1003400091434160002019E0DCF80000104302E016
:10035000DCF800009043CCF80000DCF80400104307
:10036000CCF80400002000E001208979032984BF33
:1003700001207047DFE801F002041014704700BF4D
:10038000DCF80C109143CCF80C10DCF80810114389
:10039000CCF80810704700BFDCF80810914302E069
:1003A000DCF808101143CCF80810DCF80C101143ED
:1003B000CCF80C10704700002DE9F04FB1F8018027
:1003C00098FAA8F3B3FA83F338FA03F750D040F25F
:1003D000011C4FF0011E4FF00F0A4FF0040903E01B
:1003E000013338FA03F243D028FA03F5ED07F7D0CA
:1003F000B3F108050EFA05F545F080664D6838BF83
:100400000CFA03F6082D0DD1370AD1F810B0C468E4
:1004100097FAA7F7B7FA87F724EA16240BFA07F733
:100420003C43C460370E96FAA6F6B6FA86F63C58F8
:10043000B6000AFA06F224EA020205FA06F442EAD3
:1004400004053D504A6842F00802092AC8D18A686A
:100450000324B44025EA0404B2402243C251CC68CC
:1004600009FA06F5AA43B4402243C251B8E700BFD7
:100470000020BDE8F08F000044F6D351C1F26201C4
:10048000A0FB01014FF0FF3000EB91104EF2100184
:10049000CEF20001486000208860052008607047A7
:1004A00040F20001C2F2000108607047FEE7000060
:1004B000FEE7000070470000704700007047000032
:1004C00070470000FEE7000086B041F20406C4F267
:1004D000020670694EF60C5840F0010070617069B8
:1004E000CEF2000800F0010000900098B1694FF6CC
:1004F000FF0241F08051B161B169142501F08051D2
:1005000000910099D8F80010C4F20105114040F2A2
:100510000032C0F2FA521143C8F8001055F8101C0E
:10052000042242F2000062F31A61C4F2020045F8AC
:10053000101C016821F0070101600168490709D01A
:10054000016849071CBF01685FEA417102D0016878
:100550004907F2D156F8040C102161F3C70046F8A0
:10056000040C56F8040C40F0010046F8040C56F850
:10057000040C80070CD456F8040C80075CBF56F8B6
:10058000040C5FEA807003D456F8040C8007EED5A3
:10059000306820F0F0003060306820F4E0603060B7
:1005A000306820F460503060306820F00300306024
:1005B000306810F00C0F0BD0306810F00C0F07D023
:1005C000306810F00C0F03D0306810F00C0FEFD132
:1005D00041F20024C0F27A042046FFF74DFF204686
:1005E000FFF75EFF012000904FF00110019070694D
:1005F00040F0040070617069400709D470694007D9
:100600005CBF70695FEA407002D470694007F2D540
:1006100055F80C0C6C4620F00F0045F80C0C55F802
:10062000080C40F60C4720F4706045F8080C55F8AB
:10063000040CC4F2010720F4704045F8040C28684B
:1006400020F00F0028602046FFF754FE4FF0400BCB
:100650004FF001094FF0020A2046CDF800B0ADF886
:1006600004908DF806A0FFF745FE4FF4006000905F
:1006700003208DF806002046ADF80490FFF73AFEFF
:100680004FF4805000902046ADF804908DF806900D
:10069000FFF730FE40F60000C4F2010001684EF2A0
:1006A000064269F38301016001684EF2001369F3A9
:1006B0009B6101604168CEF2000269F38F314160B5
:1006C0004168CEF2000369F393414160D8F800100D
:1006D00000211170C3F800B0D8F800404FF40004B6
:1006E00051741C60D8F8004082F822104FF48072D8
:1006F0005A6002686AF305120260026822F0C002C2
:100700000260C0F814A002686AF30922026002685D
:1007100022F4406202600422426102686AF30D32F0
:100720000260026822F440420260082242610268CC
:100730006AF311420260026822F440220260102231
:1007400042610491726900F5806042F008027261B2
:10075000726902F008020592059A4FF6FF72BA60BC
:100760006FF07B42039169468DE80406FFF724FE93
:1007700028683860286838602868386028683860D9
:10078000F6E70000A80700000000002008000000B5
:1007900028010000B00700000800002060060000EB
:1007A00044010000000000000024F40000000000EC
:04000005000000ED0A
:00000001FF
