:020000040000FA
:1000000068060020890100009101000093010000B2
:100010009501000097010000990100000000000018
:100020000000000000000000000000009B01000034
:100030009D010000000000009F010000A1010000E0
:10004000A3010000A3010000A3010000A301000020
:10005000A3010000A3010000B1030000110400008F
:1000600025040000390400004D040000A301000035
:10007000A3010000A3010000A3010000A3010000F0
:10008000A3010000A3010000A3010000A3010000E0
:10009000A3010000A3010000A3010000610400000F
:1000A000A3010000A3010000A3010000A3010000C0
:1000B000A3010000A3010000A3010000A3010000B0
:1000C000A3010000A3010000A3010000A3010000A0
:1000D000A3010000A3010000A3010000A301000090
:1000E000D5030000A3010000A301000000F002F806
:1000F00000F03AF80AA090E8000C82448344AAF188
:100100000107DA4501D100F02FF8AFF2090EBAE885
:100110000F0013F0010F18BFFB1A43F0010318473B
:10012000F806000018070000103A24BF78C878C10C
:10013000FAD8520724BF30C830C144BF04680C60ED
:10014000704700000023002400250026103A28BF35
:1001500078C1FBD8520728BF30C148BF0B60704739
:100160001FB51FBD10B510BD00F031F81146FFF7E7
:10017000F7FF00F08FFA00F04FF803B4FFF7F2FF3B
:1001800003BC00F057F800000948804709480047C1
:10019000FEE7FEE7FEE7FEE7FEE7FEE7FEE7FEE737
:1001A000FEE7FEE704480549054A064B7047000094
:1001B00091060000ED0000006800002068060020A5
:1001C000680200206802002070477047704775463B
:1001D00000F02CF8AE4605006946534620F00700B3
:1001E000854618B020B5FFF7DDFFBDE820404FF091
:1001F00000064FF000074FF000084FF0000BAC4630
:10020000ACE8C009ACE8C009ACE8C009ACE8C0097A
:1002100021F007018D46704710B50446AFF300800A
:100220002046BDE81040FFF7A8BF00000048704717
:100230000800002001491820ABBEFEE7260002009E
:100240007047000010B541F21804C4F2020400F037
:1002500019F900F04DF900F027F9206840F004008A
:1002600020602068400709D4206840075CBF2068F0
:100270005FEA407002D420684007F2D54FF608418B
:1002800040F20040CFF6FF71C4F20100425822F064
:100290000F02425040F20C41C4F20101D1F8F43394
:1002A000012262F38303C1F8F433D1F8003423F060
:1002B0000103C1F80034036843F00103036043689D
:1002C00023F001034360836843F0010383600B68FC
:1002D00023F001030B604FF60C43CFF6FF73C458B5
:1002E00024F47064C450D1F8F43362F39B63C1F812
:1002F000F433D1F8003423F04003C1F8003403682C
:1003000043F040030360436823F040034360836885
:1003100023F0400383600B6843F040030B604FF60B
:100320001043CFF6FF73C45824F47044C450D1F87E
:10033000F83362F38F33C1F8F833D1F8003423F483
:100340000063C1F80034036843F40063036043684A
:1003500023F400634360836843F4006383600B68A5
:1003600043F400630B604FF61443CFF6FF73C45899
:1003700024F00F04C450D1F8F83362F39343C1F86A
:10038000F833D1F8002422F48052C1F80024026826
:1003900042F480520260426822F4805242608268D5
:1003A00042F480528260086820F48050086010BDDA
:1003B00040F21440C4F201000168C90708BF704749
:1003C00001210160D0F8F81381F00201C0F8F813A0
:1003D0007047000040F21440C4F2010001680905B2
:1003E00008D54FF400610160D0F8F81381F00801DE
:1003F000C0F8F8130168C90458BF70474FF4805122
:100400000160D0F8F81381F01001C0F8F8137047BC
:1004100040F21440C4F201000168890744BF022180
:100420000160704740F21440C4F2010001684907BE
:1004300044BF04210160704740F21440C4F201003F
:100440000168090744BF08210160704740F2144069
:10045000C4F201000168C90644BF10210160704761
:1004600040F21440C4F201000168490658BF7047C9
:1004700040210160D0F8F81381F00401C0F8F813AE
:10048000704700004EF60C50CEF2000000684EF2AD
:100490000640CEF20000002101704EF20010CEF2B4
:1004A00000004021016070474EF60C50CEF2000073
:1004B00000684FF0FF32C0F3022080F007010429EA
:1004C00028BF0421033802FA01F14FF0020238BFBD
:1004D000002022EA010101FA00F04EF204110001AD
:1004E000CEF2000181F824034FF480700860704759
:1004F0004EF60C50CEF2000000684FF0FF32C0F311
:10050000022080F00701042928BF0421033802FAE1
:1005100001F14FF0010238BF002022EA010101FA87
:1005200000F04EF217410001CEF2000108704EF2C9
:100530000010CEF200004FF400010160704700008F
:1005400080B542F20000C4F20200016821F0070108
:1005500001600168490709D0016849071CBF0168AB
:100560005FEA417102D001684907F2D141F204000B
:10057000C4F2020050F8041C102262F3C70140F8D4
:10058000041C50F8041C41F0010140F8041C50F810
:10059000041C89070CD450F8041C89075CBF50F870
:1005A000041C5FEA817103D450F8041C8907EED55E
:1005B000016821F003010160016811F00C0F0BD0FC
:1005C000016811F00C0F07D0016811F00C0F03D077
:1005D000016811F00C0FEFD1016821F0F00101600A
:1005E000016821F4E0610160016821F4605101605B
:1005F00000F016F84EF21000CEF2000041F63F7106
:100600004160002181600521016040F2000041F25B
:100610000021C2F20000C0F27A01016080BD00003A
:1006200041F20400C4F20200016801F00C01082943
:1006300041F20021C0F27A0119D102680368C2F3C5
:100640008342DB0302F1020206D440F60011C0F23D
:100650003D0151430BE000BF03689B0302D45143AB
:1006600005E000BF40F60011C0F23D01514340F2E9
:100670000002C2F200021160006840F60603C0F3F7
:100680000310C0F20003185C21FA00F010607047FC
:10069000704700004EF60C50CEF2000001684FF695
:1006A000FF02114040F20032C0F2FA5241F2180447
:1006B0001143C4F202040160606840F08050606041
:1006C0006068C00009D46068C0005CBF60685FEA11
:1006D000C00002D46068C000F2D5206840F001007C
:1006E00020602068C00709D12068C00704BF2068C7
:1006F0005FEAC07002D12068C007F2D040F2004526
:100700004FF60440C4F20105CFF6FF70295821F0DE
:10071000E0612950FFF714FFFFF794FD206840F0D7
:10072000040020602068400709D4206840075CBFAF
:1007300020685FEA407002D420684007F2D540F696
:100740000000C4F201000268022161F30512026098
:10075000026822F080020260026822F04002026019
:100760004161026861F309220260026822F40062BA
:100770000260026822F48062026004224261026820
:1007800061F30D320260026822F4004202600268E6
:1007900022F48042026008224261026861F3114241
:1007A0000260016821F400210160016821F48021C8
:1007B000016010214161216841F008012160216838
:1007C000090709D4216809075CBF21685FEA017144
:1007D00002D421680907F2D540F60C414FF02232CD
:1007E000C4F20101C0F800244FF6FF7041F8082C54
:1007F000886000BF2868086028680860286808606A
:1008000028680860F6E70000000000000000010210
:100810000304060708090000380800000000002053
:100820000800000028010000400800000800002027
:1008300060060000440100000024F40000000000F5
:04000005000000ED0A
:00000001FF
