:020000040800F2
:100000007006002089010008910100089301000892
:100010009501000897010008990100080000000000
:100020000000000000000000000000009B0100082C
:100030009D010008000000009F010008A1010008C8
:10004000A3010008A3010008A3010008A301000800
:10005000A3010008A3010008A3010008A3010008F0
:10006000A3010008A3010008A3010008A3010008E0
:10007000A3010008A3010008A3010008A3010008D0
:10008000A3010008A3010008A3010008A3010008C0
:10009000A3010008A3010008A3010008A3010008B0
:1000A000A3010008A3010008A3010008A3010008A0
:1000B000A3010008A3010008A3010008A301000890
:1000C000A3010008A3010008A3010008A301000880
:1000D000A3010008A3010008A3010008A301000870
:1000E000A3010008A3010008A301000800F002F822
:1000F00000F03AF80AA090E8000C82448344AAF188
:100100000107DA4501D100F02FF8AFF2090EBAE885
:100110000F0013F0010F18BFFB1A43F0010318473B
:100120004C0800006C080000103A24BF78C878C161
:10013000FAD8520724BF30C830C144BF04680C60ED
:10014000704700000023002400250026103A28BF35
:1001500078C1FBD8520728BF30C148BF0B60704739
:100160001FB51FBD10B510BD00F031F81146FFF7E7
:10017000F7FF00F06DFB00F04FF803B4FFF7F2FF5C
:1001800003BC00F057F800000948804709480047C1
:10019000FEE7FEE7FEE7FEE7FEE7FEE7FEE7FEE737
:1001A000FEE7FEE704480549054A064B7047000094
:1001B0004D080008ED0000087000002070060020C7
:1001C000700200207002002070477047704775462B
:1001D00000F02CF8AE4605006946534620F00700B3
:1001E000854618B020B5FFF7DDFFBDE820404FF091
:1001F00000064FF000074FF000084FF0000BAC4630
:10020000ACE8C009ACE8C009ACE8C009ACE8C0097A
:1002100021F007018D46704710B50446AFF300800A
:100220002046BDE81040FFF7A8BF00000048704717
:100230000800002001491820ABBEFEE7260002009E
:1002400070470000A0F18041A1F584314FEAB1214F
:10025000032900F28980DFE801F00323436300BF34
:1002600040F26801C2F200010978CA0740F09480A8
:1002700041F21800C4F20200026842F00402026077
:100280000268520709D4026852075CBF02685FEA3D
:10029000427202D402685207F2D541F001005EE0DA
:1002A00040F26801C2F2000109788A0766D441F27F
:1002B0001800C4F20200026842F0080202600268FC
:1002C000120709D4026812075CBF02685FEA027273
:1002D00002D402681207F2D541F002003FE000BFED
:1002E00040F26801C2F2000109784A073ED441F2A7
:1002F0001800C4F20200026842F0100202600268B4
:10030000D20609D40268D2065CBF02685FEAC26204
:1003100002D40268D206F2D541F004001FE000BF0B
:1003200040F26800C2F200000178080748BF704739
:1003300041F21800C4F20200026842F0200202609A
:100340000268920609D4026892065CBF02685FEAFE
:10035000826202D402689206F2D541F0080040F2AF
:100360006801C2F200010870704700BF41F200420C
:10037000C4F201029042F7D1D7E700BF41F2004238
:10038000C4F201029042D0D041F20002C4F2010254
:100390009042AAD0E8E700BF41F20042C4F2010255
:1003A0009042C2D041F20002C4F2010290429CD0BD
:1003B00040F60042C4F201029042D5D175E7000038
:1003C000002808BF704700214FF47A7200BF00BFB9
:1003D00000BF00BF00BF00BF00BF00BF00BF00BF25
:1003E00000BF00BF00BF00BF00BF00BF00BF00BF15
:1003F00000BF00BF00BF00BF00BF00BF00BF00BF05
:1004000000BF00BF00BF00BF00BF00BF00BF00BFF4
:1004100000BF00BF00BF00BF00BF00BF00BF00BFE4
:1004200000BF00BF00BF00BF00BF00BF00BF00BFD4
:1004300000BF00BF00BF00BF00BF00BF00BF00BFC4
:1004400000BF00BF00BF00BF00BF00BF00BF00BFB4
:1004500000BF00BF00BF00BF00BF00BF00BF00BFA4
:1004600000BF00BF00BF00BF00BF0A3A00BFADD150
:1004700001318142A8D1704710B540F60004C4F2A2
:1004800001042046FFF7DEFE2046002100F006F9B9
:100490002046FFF7D7FE2046012100F0FFF8204656
:1004A000FFF7D0FE2046022100F0F8F82046FFF7C3
:1004B000C9FE2046032100F0F1F82046FFF7C2FEF6
:1004C0002046042100F0EAF82046FFF7BBFE204654
:1004D000052100F0E3F82046FFF7B4FE2046062190
:1004E00000F0DCF82046FFF7ADFE2046072100F0C3
:1004F000D5F82046FFF7A6FE20460F2100F0CEF8E3
:10050000E06820F40040E060E06840F00100E06056
:10051000E06840F00200E060E06840F00400E06065
:10052000E06840F00800E060E06840F01000E06043
:10053000E06840F02000E060E06840F04000E060EB
:10054000E06840F08000E06010BD000040F204016F
:10055000C2F200010978002908BF704740F65A111D
:10056000C0F60001095C40F60C00C4F2010002680C
:1005700081F0FF0161F30002026002684B0863F33F
:100580004102026002688B0863F382020260026823
:10059000CB0863F3C302026002680B0963F3041221
:1005A000026002684B0963F34512026002688B091E
:1005B00063F3861202600268C90961F3C712026020
:1005C000016841F4004101607047000040F20401FD
:1005D00010F00100C2F20001087018BF704740F629
:1005E0000C00C4F20100016821F4004101600168BF
:1005F00041F001010160016841F002010160016800
:1006000041F004010160016841F0080101600168E6
:1006100041F010010160016841F0200101600168B2
:1006200041F040010160016841F0800101607047C4
:1006300080B507290CD88A00D0F800C00323934066
:100640002CEA0303036002F1020E024611E000BF30
:1006500002466FF01F0352F804CF03EB810E032311
:1006600003FA0EF32CEA030313606FF01D0303EB90
:10067000810ED2F800C0032303FA0EF32CEA030C18
:10068000022303FA0EF343EA0C031360C26801234A
:1006900003FA01F11143C16080BD0000B0B500F163
:1006A000040E6FF01F0202EB8102734608293CBF63
:1006B0008A0003461C6803259540AC43022505FAD1
:1006C00002F24FEA810C224307291A600CD84CF041
:1006D00003010268012303FA01F122EA010101602A
:1006E0004CF002010EE000BFACF11D00DEF800107E
:1006F000012202FA00F021EA0000CEF80000ACF17D
:100700001E0170460268012303FA01F122EA010189
:100710000160B0BD80B542F20000C4F20200016881
:1007200021F0070101600168490709D00168490704
:100730001CBF01685FEA417102D001684907F2D12C
:1007400041F20400C4F2020050F8041C102262F3CB
:10075000C70140F8041C50F8041C41F0010140F8A6
:10076000041C50F8041C89070CD450F8041C890799
:100770005CBF50F8041C5FEA817103D450F8041C7C
:100780008907EED5016821F003010160016811F0CD
:100790000C0F0BD0016811F00C0F07D0016811F09D
:1007A0000C0F03D0016811F00C0FEFD1016821F09C
:1007B000F0010160016821F4E0610160016821F449
:1007C0006051016000F00AF840F2000041F200219F
:1007D000C2F20000C0F27A01016080BD41F2040063
:1007E000C4F20200016801F00C01082941F2002165
:1007F000C0F27A0119D102680368C2F38342DB03B5
:1008000002F1020206D440F60011C0F23D0151434C
:100810000BE000BF03689B0302D4514305E000BF17
:1008200040F60011C0F23D01514340F20002C2F215
:1008300000021160006840F64A13C0F30310C0F6CE
:100840000003185C21FA00F0106070477047000048
:1008500041F21804C4F20204606840F08050606005
:100860006068C00009D46068C0005CBF60685FEA6F
:10087000C00002D46068C000F2D5206840F00100DA
:1008800020602068C00709D12068C00704BF206825
:100890005FEAC07002D12068C007F2D00420C4F221
:1008A00001000168022262F31A610160FFF732FF62
:1008B000206840F0080020602068000709D4206804
:1008C00000075CBF20685FEA007002D42068000760
:1008D000F2D540F60844C4F20104A4F10800002156
:1008E0000025FFF7A5FEFFF7C7FD01200126FFF752
:1008F0006DFE0920FFF72AFE08E000BF1E20FFF76B
:100900005FFD2068C00713D0206801262068C0075B
:1009100008BF012EF2D02068C007F7D0002EF5D115
:100920001E20FFF74DFD206800F00106EEE700BF36
:100930000135E8B2092888BF0025E8B2FFF706FEB6
:1009400000262068C007E9D1E0E7000000000000B1
:10095000000001020304060708093F065B4F666DAD
:100960007D077F6F777C395E797140809009000840
:100970000000002008000000280100089809000875
:100980000800002068060000440100080000000084
:080990000024F4000100000046
:04000005080000ED02
:00000001FF
