:020000040800F2
:100000007006002089010008910100089301000892
:100010009501000897010008990100080000000000
:100020000000000000000000000000009B0100082C
:100030009D010008000000009F010008A1010008C8
:10004000A3010008A3010008A3010008A301000800
:10005000A3010008A3010008A3010008A3010008F0
:10006000A3010008A3010008A3010008A3010008E0
:10007000A3010008A3010008A3010008A3010008D0
:10008000A3010008A3010008A3010008A3010008C0
:10009000A3010008A3010008A3010008A3010008B0
:1000A000A3010008A3010008A3010008A3010008A0
:1000B000A3010008A3010008A3010008A301000890
:1000C000A3010008A3010008A3010008A301000880
:1000D000A3010008A3010008A3010008A301000870
:1000E000A3010008A3010008A301000800F002F822
:1000F00000F03AF80AA090E8000C82448344AAF188
:100100000107DA4501D100F02FF8AFF2090EBAE885
:100110000F0013F0010F18BFFB1A43F0010318473B
:10012000F016000010170000103A24BF78C878C1FC
:10013000FAD8520724BF30C830C144BF04680C60ED
:10014000704700000023002400250026103A28BF35
:1001500078C1FBD8520728BF30C148BF0B60704739
:100160001FB51FBD10B510BD00F031F81146FFF7E7
:10017000F7FF01F075FA00F04FF803B4FFF7F2FF54
:1001800003BC00F057F800000948804709480047C1
:10019000FEE7FEE7FEE7FEE7FEE7FEE7FEE7FEE737
:1001A000FEE7FEE704480549054A064B7047000094
:1001B0007D150008ED00000870000020700600208A
:1001C000700200207002002070477047704775462B
:1001D00000F02CF8AE4605006946534620F00700B3
:1001E000854618B020B5FFF7DDFFBDE820404FF091
:1001F00000064FF000074FF000084FF0000BAC4630
:10020000ACE8C009ACE8C009ACE8C009ACE8C0097A
:1002100021F007018D46704710B50446AFF300800A
:100220002046BDE81040FFF7A8BF00000048704717
:100230000800002001491820ABBEFEE7260002009E
:1002400070470000A0F18041A1F584314FEAB1214F
:10025000032900F2A180DFE801F003294F7500BFF8
:1002600040F26801C2F200010978CA0740F0AC8090
:1002700041F21800C4F2020003684BF6C052CFF6F8
:10028000F07243F00403036003685B070BD452B1C0
:1002900003685B075CBF03685FEA437303D40368CA
:1002A00004325B07F0D541F0010070E040F26801D4
:1002B000C2F2000109788A0778D441F21800C4F22A
:1002C000020003684BF6C052CFF6F07243F0080309
:1002D000036003681B070BD452B103681B075CBFA4
:1002E00003685FEA037303D4036804321B07F0D585
:1002F00041F002004BE000BF40F26801C2F2000191
:1003000009784A074AD441F21800C4F2020003688F
:100310004BF6C052CFF6F07243F01003036003684F
:10032000DB060BD452B10368DB065CBF03685FEAEF
:10033000C36303D403680432DB06F0D541F0040044
:1003400025E000BF40F26800C2F200000178080713
:1003500048BF704741F21800C4F2020003684BF630
:10036000C052CFF6F07243F02003036003689B068F
:100370000BD452B103689B065CBF03685FEA8363DA
:1003800003D4036804329B06F0D541F0080040F224
:100390006801C2F200010870704700BF41F20042DC
:1003A000C4F201029042F7D1D1E700BF41F200420E
:1003B000C4F201029042CAD041F20002C4F201022A
:1003C00090429ED0E8E700BF41F20042C4F2010231
:1003D0009042BCD041F20002C4F2010290423FF4CC
:1003E00090AF40F60042C4F201029042D4D162E7DD
:1003F000002808BF704700214FF47A7200BF00BF89
:1004000000BF00BF00BF00BF00BF00BF00BF00BFF4
:1004100000BF00BF00BF00BF00BF00BF00BF00BFE4
:1004200000BF00BF00BF00BF00BF00BF00BF00BFD4
:1004300000BF00BF00BF00BF00BF00BF00BF00BFC4
:1004400000BF00BF00BF00BF00BF00BF00BF00BFB4
:1004500000BF00BF00BF00BF00BF00BF00BF00BFA4
:1004600000BF00BF00BF00BF00BF00BF00BF00BF94
:1004700000BF00BF00BF00BF00BF00BF00BF00BF84
:1004800000BF00BF00BF00BF00BF00BF00BF00BF74
:1004900000BF00BF00BF00BF00BF0A3A00BFADD120
:1004A00001318142A8D17047072907D88900026825
:1004B00003238B409A43026002310EE06FF01F036A
:1004C00050F804CF03EB810303229A402CEA020286
:1004D00002606FF01D0202EB8101026803238B4072
:1004E0009A43012303FA01F11143016070470000B0
:1004F000B0B500F1040E6FF01F0202EB81027346EB
:1005000008293CBF8A0003461C6803259540AC437C
:10051000022505FA02F24FEA810C224307291A60EC
:100520000CD84CF003010268012303FA01F122EA1E
:10053000010101604CF002010EE000BFACF11D00B2
:10054000DEF80010012202FA00F021EA0000CEF8E5
:100550000000ACF11E0170460268012303FA01F1AC
:1005600022EA01010160B0BD2DE9F04140F60C0521
:10057000C4F20105A5F10C042046FFF763FE2046F6
:100580000021FFF7B5FF2046FFF75CFE2046012162
:10059000FFF7AEFF2046FFF755FE20460221FFF78A
:1005A000A7FF2046FFF74EFE204604210426FFF752
:1005B0009FFF2046FFF746FE20460521FFF798FFE4
:1005C0002046FFF73FFE20460621FFF791FF204619
:1005D000FFF738FE20460721FFF78AFF322000F0A0
:1005E000B5FE286820F001002860286820F002008D
:1005F0002860286820F080002860286820F04000EB
:100600002860286840F020002860286840F010002A
:1006100028606E6000BF00BFAE6000BF052000BF55
:1006200000F094FE286820F080002860286820F000
:1006300040002860286840F020002860286840F0CA
:10064000100028606E6000BF00BFAE6000BF0120D8
:1006500000BF00F07BFE286820F08000286028683A
:1006600020F040002860286840F0200028602868BA
:1006700040F0100028606E6000BF00BFAE6000BF99
:10068000012000BF00F062FE286820F08000286092
:10069000286820F040002860286840F0200028608A
:1006A000286820F0100028606E6000BF00BFAE60B8
:1006B00000BF012000BF00F049FE40F20008C2F276
:1006C000000898F8014004F0EF0088F8010000F0FD
:1006D00057FF2868E10920F001002860286820F011
:1006E0000200286000BF286861F3C71028602868EE
:1006F000A10961F3861028602868610961F345103B
:1007000028602868210120F0100028606E6000BF7A
:1007100000BFAE6000BF00BF2868C9B2CA0962F35B
:10072000C710286028688A0962F386102860286844
:100730004A0962F3451028602868090961F304102A
:1007400028606E6000BF00BFAE6000BF322000BFF7
:1007500000F088FE98F8017047F0080488F801401E
:1007600000F00EFF2868F90920F0010028602868D1
:1007700020F00200286000BF286861F3C7102860DD
:100780002868B90961F3861028602868790961F33F
:10079000451028602868390961F3041028606E60EC
:1007A00000BF00BFAE6000BF00BF2868210140F05D
:1007B00080002860C9B228688A0962F38610286020
:1007C00028684A0962F3451028602868090961F31E
:1007D000041028606E6000BF00BFAE6000BF322012
:1007E00000BF00F03FFE98F8014004F0FB0088F8DD
:1007F000010000F0C5FE2868E10920F00100286032
:100800002868B02720F00200286000BF286861F344
:10081000C71028602868A10961F38610286028683D
:10082000610961F3451028602868210961F304100B
:1008300028606E6000BF00BFAE6000BF00BF2868C8
:1008400007EA0411CA0962F3C710286028684A0938
:1008500020F0400028602868090962F345102860EC
:10086000286861F3041028606E6000BF00BFAE60AE
:1008700000BF322000BF00F0F5FD98F8004004F002
:10088000FB0088F8000000F07BFE2868E10920F0FA
:1008900001002860286820F00200286000BF286856
:1008A00061F3C71028602868A10961F386102860E9
:1008B0002868610961F3451028602868210961F3FF
:1008C000041028606E6000BF00BFAE6000BF00BFB4
:1008D000286807EA0411CA0962F3C710286028686B
:1008E0004A0920F0400028602868090962F3451091
:1008F0002860286861F3041028606E6000BF00BFA4
:10090000AE6000BF322000BF00F0ACFD00F038FE4A
:10091000286820F001002860286820F00200286084
:1009200000BF286820F080002860286820F0400080
:100930002860286820F020002860286820F0100037
:1009400028606E6000BF00BFAE6000BF00BF2868B7
:1009500020F080002860286820F040002860286887
:1009600020F020002860286840F0100028606E60A9
:1009700000BF00BFAE6000BF022000BF00F0E6FC79
:1009800098F8004004F0FD0088F8000000F0F8FD41
:100990002868E10920F001002860286820F00200A2
:1009A000286000BF286861F3C71028602868A10983
:1009B00061F3861028602868610961F3451028609A
:1009C0002868210961F3041028606E6000BF00BF31
:1009D000AE6000BF00BFD021286801EA0411CA0937
:1009E00062F3C710286028688A0962F386102860BD
:1009F0002868090920F020002860286861F30410A5
:100A000028606E6000BF00BFAE6000BF322000BF34
:100A100000F028FD98F8007007F0FE0088F800004C
:100A200000F0AEFD2868F90920F001002860286870
:100A3000E02220F00200286000BF286802EA0712C6
:100A400061F3C71028602868B90961F3861028602F
:100A50002868790961F3451028602868390961F32D
:100A6000041028606E6000BF00BFAE6000BF00BF12
:100A70002868D30963F3C71028602868920962F3D5
:100A80008610286039012868C1F3421161F34510CE
:100A90002860286820F0100028606E6000BF00BF4A
:100AA000AE6000BF322000BF00F0DCFC98F80070A0
:100AB00047F0040488F8004000F062FD2868F90956
:100AC00020F001002860286820F00200286000BFA4
:100AD000286861F3C71028602868B90961F3861097
:100AE00028602868790961F3451028602868390969
:100AF00061F3041028606E6000BF00BFAE6000BFED
:100B000000BF21012868C9B2CA0962F3C710286072
:100B100028684A0940F0400028602868090962F303
:100B200045102860286861F3041028606E6000BFDB
:100B300000BFAE6000BF322000BFBDE8F04100F052
:100B400091BC0000B0B540F20001C2F200010D7886
:100B500000F0010005F0FE0214180C7000F010FD0A
:100B600040F60C00C4F201000168EA0921F001011D
:100B700001600168230121F00201016000BF0168EA
:100B8000DBB262F3C71101600168AA0962F3861142
:100B9000016001686A0962F34511016001682A0970
:100BA00062F3041101600421416000BF00BF816055
:100BB00000BF00BF0268DD0965F3C712026002686A
:100BC0009D0965F38612026002685D0965F34512AE
:100BD000026002681B0963F304120260416000BFF7
:100BE00000BF816000BF322000BFBDE8B04000F010
:100BF00039BC0000B0B540F20001C2F200010D782E
:100C000000F0010005F0FD0242EA40040C7000F023
:100C1000B7FC40F60C00C4F201000168EA0921F0BB
:100C2000010101600168230121F00201016000BFA0
:100C30000168DBB262F3C71101600168AA0962F3BF
:100C40008611016001686A0962F34511016001685B
:100C50002A0962F3041101600421416000BF00BF52
:100C6000816000BF00BF0268DD0965F3C712026042
:100C700002689D0965F38612026002685D0965F3EA
:100C80004512026002681B0963F3041202604160AE
:100C900000BF00BF816000BF322000BFBDE8B04090
:100CA00000F0E0BB10B528A2515C0C1800F068FC05
:100CB00040F60C00C4F20100016804F0F00221F0DB
:100CC000010101600168D30921F00201016000BF48
:100CD000016863F3C71101600168930963F386112A
:100CE00001600168520962F3451101600168C4F3B3
:100CF000031262F3041101600421416000BF00BFD0
:100D0000816000BF00BF23010268DBB2DC0964F32D
:100D1000C712026002689C0964F3861202600268CE
:100D20005C0964F34512026002681B0963F3041254
:100D30000260416000BF00BF816000BF322000BF81
:100D4000BDE8104000F08EBB80C094D42DE9F04186
:100D500040F60C060D468046C4F2010600F010FC79
:100D60003068042720F001003060306820F0020075
:100D7000306000BF3168302021F08001316031687F
:100D800000EAC50041F0400131604030316842095D
:100D900062F3451131603168000960F3041131607C
:100DA000776000BF00BFB76000BF00BF306805F0CC
:100DB000010120F0800040EAC110306030684FF03F
:100DC000FF3520F040003060306820F020003060B7
:100DD000306820F010003060776000BF00BFB7605F
:100DE00000BF00BF08EB0500447800F0C9FB306885
:100DF000E10940F001003060306820F0020030600E
:100E0000306861F3C71030603068A10961F3861063
:100E100030603068610961F3451030603068210945
:100E200061F304103060776000BF00BFB76000BF9F
:100E300000BF21013068C9B2CA0962F3C71030602F
:100E400030688A0962F38610306030684A0962F3BC
:100E5000451030603068090961F304103060776034
:100E600000BF00BFB76000BF322000BF00F0FAFA39
:100E70000135072DB6D1BDE8F081000080B500F046
:100E80007FFB40F60C00C4F20100016821F0010173
:100E90000160016821F00201016000BF016821F0DA
:100EA00080010160016821F040010160016821F0CA
:100EB00020010160016821F01001016004214160FE
:100EC00000BF00BF816000BF00BF026822F0800247
:100ED0000260026822F040020260026822F02002F2
:100EE0000260026842F010020260416000BF00BF71
:100EF000816000BF022000BFBDE8804000F026BA3C
:100F0000B0B540F20001C2F200010D7800F001001E
:100F100005F0FB0242EA80040C7000F031FB40F661
:100F20000C00C4F201000168EA0921F0010101602E
:100F30000168230121F00201016000BF0168DBB2FA
:100F400062F3C71101600168AA0962F386110160AA
:100F500001686A0962F34511016001682A0962F3B8
:100F6000041101600421416000BF00BF816000BF27
:100F700000BF0268DD0965F3C712026002689D09BF
:100F800065F38612026002685D0965F3451202602E
:100F900002681B0963F304120260416000BF00BFD6
:100FA000816000BF322000BFBDE8B04000F05ABAF7
:100FB00010B5044600F0E4FA40F60C00C4F201005B
:100FC0000168E20941F0010101600168230121F09B
:100FD000020101600168DBB262F3C71101600168C0
:100FE000A20962F3861101600168620962F345118A
:100FF00001600168220962F304110160042141606B
:1010000000BF00BF816000BF00BF0268DC0964F35D
:10101000C712026002689C0964F3861202600268CB
:101020005C0964F34512026002681B0963F3041251
:101030000260416000BF00BF816000BF322000BF7E
:10104000BDE8104000F00EBAF0B581B00778002F6F
:1010500050D040F60C04C4F20104451E042600BF23
:1010600000F08EFA206807F0F00140F001002060E7
:101070002068CA0920F002002060206862F3C710CF
:10108000206020688A0962F3861020602068490980
:1010900061F3451020602068C7F3031161F3041069
:1010A0002060666000BF00BFA66000BF00BF3901BE
:1010B0002068C9B2CA0962F3C710206020688A0993
:1010C00062F38610206020684A0962F345102060B0
:1010D0002068090961F304102060666000BF00BF4A
:1010E000A66000BF322000BF00F0BCF9AF78013528
:1010F000002FB5D101B0F0BDF0B581B00778002F59
:1011000050D040F60C04C4F20104451E042600BF72
:1011100000F036FA206807F0F00140F0010020608E
:101120002068CA0920F002002060206862F3C7101E
:10113000206020688A0962F38610206020684909CF
:1011400061F3451020602068C7F3031161F30410B8
:101150002060666000BF00BFA66000BF00BF39010D
:101160002068C9B2CA0962F3C710206020688A09E2
:1011700062F38610206020684A0962F345102060FF
:101180002068090961F304102060666000BF00BF99
:10119000A66000BF322000BF00F064F9AF780135CF
:1011A000002FB5D101B0F0BD42F20000C4F2020040
:1011B000016821F0070101600168490709D0016851
:1011C00049071CBF01685FEA417102D00168490705
:1011D000F2D141F20400C4F2020050F8042C4BF6A4
:1011E000C051CFF6F07122F0010240F8042C0A46FB
:1011F00050F8043C9B070ED56AB150F8043C9B079D
:1012000044BF50F8043C5FEA837304D550F8043CB3
:1012100004329B07ECD450F8042C102363F3C7026C
:1012200040F8042C026822F0F00202600A460368CB
:1012300013F0F00F18BF002A0CD0036813F0F00F62
:1012400008D0036813F0F00F04D00368043213F0E1
:10125000F00FECD1026822F4E06202600A460368F3
:1012600013F4E06F18BF002A0CD0036813F4E06F8A
:1012700008D0036813F4E06F04D00368043213F459
:10128000E06FECD1026822F4605202600A46036803
:1012900013F4605F18BF002A0CD0036813F4605F7A
:1012A00008D0036813F4605F04D00368043213F4B9
:1012B000605FECD1026822F0030202600A46036814
:1012C00013F00C0F18BF002A0CD0036813F00C0F9A
:1012D00008D0036813F00C0F04D00368043213F035
:1012E0000C0FECD1026822F4404202600A46036807
:1012F00013F4404F18BF002A0CD0036813F4404F7A
:1013000008D0036813F4404F04D00368043213F488
:10131000404FECD150F8042C42F0010240F8042C6C
:1013200050F8042C920748BF704769B150F8042C5C
:1013300092075CBF50F8042C5FEA827204D450F824
:10134000042C04319207EBD5704700004EF21001D7
:10135000CEF200010A6842F004020A604FF4FA5229
:101360004A604FF000028A600A6842F001020A6097
:1013700038B3421E032A00F0030C27D2BCF1000F41
:101380001FD00868C00309D40868C0035CBF0868A0
:101390005FEAC03002D40868C003F2D5BCF1010F87
:1013A0000FD00868C00309D40868C0035CBF086890
:1013B0005FEAC03002D40868C003F2D5BCF1020F66
:1013C00042D1086820F001000860704720F0030057
:1013D000002302E004338342D0D00A68D20306D44B
:1013E0000A68D2035CBF0A685FEAC23228D50A687D
:1013F000D20309D40A68D2035CBF0A685FEAC2322A
:1014000002D40A68D203F2D50A68D2030AD40A6861
:10141000D2035CBF0A685FEAC23203D40A68D2030F
:10142000F2D500BF0A68D203D4D40A68D2035CBFE5
:101430000A685FEAC232CDD40A68D203F2D5C9E79E
:101440000A68D203C9D5D2E70868C003B9D40868CE
:10145000C0035CBF08685FEAC030B2D40868C0034C
:10146000F2D5AEE74EF21001CEF200010A6842F06A
:1014700004020A604FF008024A604FF000028A60DE
:101480000A6842F001020A6038B3421E032A00F0E3
:10149000030C27D2BCF1000F1FD00868C00309D489
:1014A0000868C0035CBF08685FEAC03002D40868FF
:1014B000C003F2D5BCF1010F0FD00868C00309D4F6
:1014C0000868C0035CBF08685FEAC03002D40868DF
:1014D000C003F2D5BCF1020F42D1086820F0010030
:1014E0000860704720F00300002302E004338342C9
:1014F000D0D00A68D20306D40A68D2035CBF0A6857
:101500005FEAC23228D50A68D20309D40A68D20336
:101510005CBF0A685FEAC23202D40A68D203F2D51D
:101520000A68D2030AD40A68D2035CBF0A685FEA79
:10153000C23203D40A68D203F2D500BF0A68D203CC
:10154000D4D40A68D2035CBF0A685FEAC232CDD441
:101550000A68D203F2D5C9E70A68D203C9D5D2E72F
:101560000868C003B9D40868C0035CBF08685FEAB4
:10157000C030B2D40868C003F2D5AEE770470000AF
:10158000B0B540F60004C4F2010420460721FEF77E
:101590008BFF20460621FEF787FF20460521FEF738
:1015A00083FF204604210425FEF77EFFE06820F03B
:1015B0000100E060E06840F00200E06000BF00BFB2
:1015C000256100BF00BFA068656100BF00BF256145
:1015D00000BF00BF656100BF000600BF2CD52561BC
:1015E00000BF00BFA068656100BF00BF256100BFEC
:1015F00000BF656100BF000600BF1DD5256100BFAB
:1016000000BFA068656100BF00BF256100BF00BFCB
:10161000656100BF000600BF0ED5256100BF00BF99
:10162000A068656100BF00BF256100BF00BF6561A4
:1016300000BF000600BFC3D42046072100BFFEF74D
:1016400057FF20460621FEF753FF20460521FEF7EF
:101650004FFF20460421BDE8B040FEF749BF00001F
:1016600084B00021039146F66F71C6F664110291B1
:1016700047F66521C4F66121019146F6414141F2E8
:101680001800C5F26921C4F20200009142684BF6CD
:10169000C051CFF6F07142F0805242600A46436872
:1016A000DB000BD452B14368DB005CBF43685FEAE8
:1016B000C30303D443680432DB00F0D5026842F070
:1016C000010202600268D2070BD151B10268D20751
:1016D00004BF02685FEAC27203D102680431D20714
:1016E000F0D00420C4F201000168022262F31A6102
:1016F0000160FFF759FDFEF737FF00200021FFF7DB
:10170000D1FA36A0FFF7A0FC4FF47A70FEF770FE16
:101710000020FFF7F5FB4FF47A70FEF769FE012019
:10172000FFF7EEFB4FF47A70FEF762FE0020012116
:10173000FFF7B8FA6846FFF787FC4FF47A70FEF7B8
:1017400057FE0120FFF756FA4FF47A70FEF750FE6D
:10175000FFF794FB4120FFF72BFC0120FFF7F2F984
:101760004FF47A70FEF744FE0020FFF7EBF94FF4D8
:101770007A70FEF73DFE0020FFF73CFA4FF47A70D6
:10178000FEF736FE08200021FFF78CFA18A0FFF7BD
:10179000B3FC41F2F870C0F600000021FFF7D6FA62
:1017A00041F60000C0F600000121FFF7CFFA41F634
:1017B0000800C0F600000221FFF7C8FA002001214E
:1017C000FFF770FA0020FFF7F3FB0120FFF7F0FBB3
:1017D0000220FFF7EDFB00BFFEE700BF30313233E0
:1017E0003435363738393031323334350000000083
:1017F0004C696E65310000000814080304040300FE
:101800008894808485868580878587808080808095
:10181000301800080000002008000000280100081F
:10182000381800080800002068060000440100087D
:08183000082000000000000088
:04000005080000ED02
:00000001FF
