:020000040800F2
:100000007006002089010008910100089301000892
:100010009501000897010008990100080000000000
:100020000000000000000000000000009B0100082C
:100030009D010008000000009F010008A1010008C8
:10004000A3010008A3010008A3010008A301000800
:10005000A3010008A3010008A3010008A3010008F0
:10006000A3010008A3010008A3010008A3010008E0
:10007000A3010008A3010008A3010008A3010008D0
:10008000A3010008A3010008A3010008A3010008C0
:10009000A3010008A3010008A3010008A3010008B0
:1000A000A3010008A3010008A3010008A3010008A0
:1000B000A3010008A3010008A3010008A301000890
:1000C000A3010008A3010008A3010008A301000880
:1000D000A3010008A3010008A3010008A301000870
:1000E000A3010008A3010008A301000800F002F822
:1000F00000F03AF80AA090E8000C82448344AAF188
:100100000107DA4501D100F02FF8AFF2090EBAE885
:100110000F0013F0010F18BFFB1A43F0010318473B
:100120001814000038140000103A24BF78C878C1B1
:10013000FAD8520724BF30C830C144BF04680C60ED
:10014000704700000023002400250026103A28BF35
:1001500078C1FBD8520728BF30C148BF0B60704739
:100160001FB51FBD10B510BD00F031F81146FFF7E7
:10017000F7FF01F02DF900F04FF803B4FFF7F2FF9D
:1001800003BC00F057F800000948804709480047C1
:10019000FEE7FEE7FEE7FEE7FEE7FEE7FEE7FEE737
:1001A000FEE7FEE704480549054A064B7047000094
:1001B000ED120008ED00000870000020700600201D
:1001C000700200207002002070477047704775462B
:1001D00000F02CF8AE4605006946534620F00700B3
:1001E000854618B020B5FFF7DDFFBDE820404FF091
:1001F00000064FF000074FF000084FF0000BAC4630
:10020000ACE8C009ACE8C009ACE8C009ACE8C0097A
:1002100021F007018D46704710B50446AFF300800A
:100220002046BDE81040FFF7A8BF00000048704717
:100230000800002001491820ABBEFEE7260002009E
:1002400070470000A0F18041A1F584314FEAB1214F
:10025000032900F2A180DFE801F003294F7500BFF8
:1002600040F26801C2F200010978CA0740F0AC8090
:1002700041F21800C4F2020003684BF6C052CFF6F8
:10028000F07243F00403036003685B070BD452B1C0
:1002900003685B075CBF03685FEA437303D40368CA
:1002A00004325B07F0D541F0010070E040F26801D4
:1002B000C2F2000109788A0778D441F21800C4F22A
:1002C000020003684BF6C052CFF6F07243F0080309
:1002D000036003681B070BD452B103681B075CBFA4
:1002E00003685FEA037303D4036804321B07F0D585
:1002F00041F002004BE000BF40F26801C2F2000191
:1003000009784A074AD441F21800C4F2020003688F
:100310004BF6C052CFF6F07243F01003036003684F
:10032000DB060BD452B10368DB065CBF03685FEAEF
:10033000C36303D403680432DB06F0D541F0040044
:1003400025E000BF40F26800C2F200000178080713
:1003500048BF704741F21800C4F2020003684BF630
:10036000C052CFF6F07243F02003036003689B068F
:100370000BD452B103689B065CBF03685FEA8363DA
:1003800003D4036804329B06F0D541F0080040F224
:100390006801C2F200010870704700BF41F20042DC
:1003A000C4F201029042F7D1D1E700BF41F200420E
:1003B000C4F201029042CAD041F20002C4F201022A
:1003C00090429ED0E8E700BF41F20042C4F2010231
:1003D0009042BCD041F20002C4F2010290423FF4CC
:1003E00090AF40F60042C4F201029042D4D162E7DD
:1003F000002808BF704700214FF47A7200BF00BF89
:1004000000BF00BF00BF00BF00BF00BF00BF00BFF4
:1004100000BF00BF00BF00BF00BF00BF00BF00BFE4
:1004200000BF00BF00BF00BF00BF00BF00BF00BFD4
:1004300000BF00BF00BF00BF00BF00BF00BF00BFC4
:1004400000BF00BF00BF00BF00BF00BF00BF00BFB4
:1004500000BF00BF00BF00BF00BF00BF00BF00BFA4
:1004600000BF00BF00BF00BF00BF00BF00BF00BF94
:1004700000BF00BF00BF00BF00BF00BF00BF00BF84
:1004800000BF00BF00BF00BF00BF00BF00BF00BF74
:1004900000BF00BF00BF00BF00BF0A3A00BFADD120
:1004A00001318142A8D17047072907D88900026825
:1004B00003238B409A43026002310EE06FF01F036A
:1004C00050F804CF03EB810303229A402CEA020286
:1004D00002606FF01D0202EB8101026803238B4072
:1004E0009A43012303FA01F11143016070470000B0
:1004F000B0B500F1040E6FF01F0202EB81027346EB
:1005000008293CBF8A0003461C6803259540AC437C
:10051000022505FA02F24FEA810C224307291A60EC
:100520000CD84CF003010268012303FA01F122EA1E
:10053000010101604CF002010EE000BFACF11D00B2
:10054000DEF80010012202FA00F021EA0000CEF8E5
:100550000000ACF11E0170460268012303FA01F1AC
:1005600022EA01010160B0BD2DE9F04140F60C0521
:10057000C4F20105A5F10C042046FFF763FE2046F6
:10058000FFF760FE2046FFF75DFE2046FFF75AFEAC
:100590002046FFF757FE2046FFF754FE2046FFF7A0
:1005A00051FE20460021FFF7A3FF20460121FFF75F
:1005B0009FFF20460221FFF79BFF20460721FFF700
:1005C00097FF20460621FFF793FF20460521FFF7FE
:1005D0008FFF204604210424FFF78AFF322000F019
:1005E0006DFD286820F001002860286820F00200D6
:1005F0002860286820F080002860286820F04000EB
:100600002860286840F020002860286840F010002A
:1006100028606C6000BF00BFAC6000BF052000BF59
:1006200000F04CFD286820F080002860286820F049
:1006300040002860286840F020002860286840F0CA
:10064000100028606C6000BF00BFAC6000BF0120DC
:1006500000BF00F033FD286820F080002860286883
:1006600020F040002860286840F0200028602868BA
:1006700040F0100028606C6000BF00BFAC6000BF9D
:10068000012000BF00F01AFD286820F080002860DB
:10069000286820F040002860286840F0200028608A
:1006A000286820F0100028606C6000BF00BFAC60BC
:1006B00000BF012000BF00F001FD40F20008C2F2BF
:1006C000000898F8017007F0EF0088F8010000F0CA
:1006D0000FFE2868F90920F001002860286820F042
:1006E0000200286000BF286861F3C71028602868EE
:1006F000B90961F3861028602868790961F345100B
:1007000028602868390120F0100028606C6000BF64
:1007100000BFAC6000BF00BF2868C9B2CA0962F35D
:10072000C710286028688A0962F386102860286844
:100730004A0962F3451028602868090961F304102A
:1007400028606C6000BF00BFAC6000BF322000BFFB
:1007500000F040FD98F8016046F0080788F8017045
:1007600000F0C6FD2868F10920F001002860286823
:1007700020F00200286000BF286861F3C7102860DD
:100780002868B10961F3861028602868710961F34F
:10079000451028602868310961F3041028606C60F6
:1007A00000BF00BFAC6000BF00BF2868390140F047
:1007B00080002860C9B228688A0962F38610286020
:1007C00028684A0962F3451028602868090961F31E
:1007D000041028606C6000BF00BFAC6000BF322016
:1007E00000BF00F0F7FC98F8017007F0FB0088F8F4
:1007F000010000F07DFD2868F90920F00100286063
:10080000286820F00200286000BF286861F3C71044
:1008100028602868B90961F386102860286879097A
:1008200061F3451028602868390961F304102860D5
:100830006C6000BF00BFAC6000BF00BFB021286883
:1008400001EA0711CA0962F3C710286028684A093B
:1008500020F0400028602868090962F345102860EC
:10086000286861F3041028606C6000BF00BFAC60B2
:1008700000BF322000BF00F0ADFC98F8006046F0E9
:10088000040788F8007000F033FD2868F10920F0B3
:1008900001002860286820F00200286000BF286856
:1008A00061F3C71028602868B10961F386102860D9
:1008B0002868710961F3451028602868310961F3DF
:1008C000041028606C6000BF00BFAC6000BF00BFB8
:1008D00039012868C9B2CA0962F3C71028602868BC
:1008E0004A0940F0400028602868090962F3451071
:1008F0002860286861F3041028606C6000BF00BFA6
:10090000AC6000BF322000BF00F064FC98F80070BB
:1009100007F0FD0088F8000000F0EAFC2868F909FB
:1009200020F001002860286820F00200286000BF45
:10093000286861F3C71028602868B90961F3861038
:1009400028602868790961F345102860286839090A
:1009500061F3041028606C6000BF00BFAC6000BF92
:1009600000BFD021286801EA0711CA0962F3C71045
:10097000286028688A0962F38610286028680909B7
:1009800020F020002860286861F3041028606C6063
:1009900000BF00BFAC6000BF322000BF00F01AFCF7
:1009A00098F8007007F0FE0088F8000000F0A0FC46
:1009B0002868F90920F0010028602868E02220F06A
:1009C0000200286000BF286802EA071261F3C7101E
:1009D00028602868B90961F38610286028687909B9
:1009E00061F3451028602868390961F30410286014
:1009F0006C6000BF00BFAC6000BF00BF2868D309B7
:100A000063F3C71028602868920962F38610286093
:100A100039012868C1F3421161F345102860286844
:100A200020F0100028606C6000BF00BFAC6000BF09
:100A3000322000BF00F0CEFB00F05AFC286820F006
:100A400001002860286820F00200286000BF2868A4
:100A500020F080002860286820F040002860286886
:100A600020F020002860286820F0100028606C60CA
:100A700000BF00BFAC6000BF00BF286820F080004E
:100A80002860286820F040002860286820F02000B6
:100A90002860286840F0100028606C6000BF00BF2C
:100AA000AC6000BF022000BFBDE8F04100F006BB13
:100AB000B0B540F20001C2F200010D7800F0010073
:100AC00005F0FE0214180C7000F012FC40F60C0049
:100AD000C4F201000168EA0921F001010160016826
:100AE000230121F00201016000BF0168DBB262F363
:100AF000C71101600168AA0962F3861101600168EB
:100B00006A0962F34511016001682A0962F3041160
:100B100001600421416000BF00BF816000BF00BFD1
:100B20000268DD0965F3C712026002689D0965F37A
:100B30008612026002685D0965F345120260026870
:100B40001B0963F304120260416000BF00BF8160B3
:100B500000BF322000BFBDE8B04000F03BBB00004A
:100B6000B0B540F20001C2F200010D7800F00100C2
:100B700005F0FD0242EA40040C7000F0B9FB40F6BB
:100B80000C00C4F201000168EA0921F001010160D2
:100B90000168230121F00201016000BF0168DBB29E
:100BA00062F3C71101600168AA0962F3861101604E
:100BB00001686A0962F34511016001682A0962F35C
:100BC000041101600421416000BF00BF816000BFCB
:100BD00000BF0268DD0965F3C712026002689D0963
:100BE00065F38612026002685D0965F345120260D2
:100BF00002681B0963F304120260416000BF00BF7A
:100C0000816000BF322000BFBDE8B04000F0E2BA12
:100C100010B528A2515C0C1800F06AFB40F60C00DD
:100C2000C4F20100016804F0F00221F0010101604A
:100C30000168D30921F00201016000BF016863F37C
:100C4000C71101600168930963F3861101600168AF
:100C5000520962F3451101600168C4F3031262F3A3
:100C6000041101600421416000BF00BF816000BF2A
:100C700000BF23010268DBB2DC0964F3C712026023
:100C800002689C0964F38612026002685C0964F3DE
:100C90004512026002681B0963F30412026041609E
:100CA00000BF00BF816000BF322000BFBDE8104020
:100CB00000F090BA80C094D480B500F019FB40F6E3
:100CC0000C00C4F20100016821F00101016001681B
:100CD00021F00201016000BF016821F08001016084
:100CE000016821F040010160016821F020010160EC
:100CF000016821F0100101600421416000BF00BFC4
:100D0000816000BF00BF026822F0800202600268BA
:100D100022F040020260026822F0200202600268B3
:100D200042F010020260416000BF00BF816000BF5E
:100D3000022000BFBDE8804000F0C0B9B0B540F26D
:100D40000001C2F200010D7800F0010005F0FB0285
:100D500042EA80040C7000F0CBFA40F60C00C4F2BA
:100D600001000168EA0921F0010101600168230125
:100D700021F00201016000BF0168DBB262F3C7111C
:100D800001600168AA0962F38611016001686A09BD
:100D900062F34511016001682A0962F304110160E0
:100DA0000421416000BF00BF816000BF00BF026836
:100DB000DD0965F3C712026002689D0965F38612BA
:100DC000026002685D0965F34512026002681B0952
:100DD00063F304120260416000BF00BF816000BF86
:100DE000322000BFBDE8B04000F0F4B910B50446B1
:100DF00000F07EFA40F60C00C4F201000168E2093E
:100E000041F0010101600168230121F0020101604C
:100E10000168DBB262F3C71101600168A20962F3E5
:100E2000861101600168620962F345110160016881
:100E3000220962F3041101600421416000BF00BF78
:100E4000816000BF00BF0268DC0964F3C712026062
:100E500002689C0964F38612026002685C0964F30C
:100E60004512026002681B0963F3041202604160CC
:100E700000BF00BF816000BF322000BFBDE810404E
:100E800000F0A8B9F0B581B00778002F50D040F637
:100E90000C04C4F20104451E042600BF00F028FA29
:100EA000206807F0F00140F0010020602068CA09C6
:100EB00020F002002060206862F3C71020602068E4
:100EC0008A0962F3861020602068490961F34510A1
:100ED00020602068C7F3031161F30410206066608E
:100EE00000BF00BFA66000BF00BF39012068C9B2C3
:100EF000CA0962F3C710206020688A0962F386106D
:100F0000206020684A0962F34510206020680909C2
:100F100061F304102060666000BF00BFA66000BFE0
:100F2000322000BF00F056F9AF780135002FB5D15F
:100F300001B0F0BDF0B581B00778002F50D040F679
:100F40000C04C4F20104451E042600BF00F0D0F9D1
:100F5000206807F0F00140F0010020602068CA0915
:100F600020F002002060206862F3C7102060206833
:100F70008A0962F3861020602068490961F34510F0
:100F800020602068C7F3031161F3041020606660DD
:100F900000BF00BFA66000BF00BF39012068C9B212
:100FA000CA0962F3C710206020688A0962F38610BC
:100FB000206020684A0962F3451020602068090912
:100FC00061F304102060666000BF00BFA66000BF30
:100FD000322000BF00F0FEF8AF780135002FB5D108
:100FE00001B0F0BD42F20000C4F20200016821F03D
:100FF000070101600168490709D0016849071CBF62
:1010000001685FEA417102D001684907F2D141F2FB
:101010000000C4F2020002684BF6C051CFF6F07136
:1010200022F0010202600A4603689B070BD552B109
:1010300003689B0744BF03685FEA837303D50368B3
:1010400004329B07F0D40268102363F3C7020260E6
:10105000426822F0F0024260426822F4E06242609C
:10106000426822F460524260426822F00302426009
:10107000426812F00C0F0BD0426812F00C0F07D030
:10108000426812F00C0F03D0426812F00C0FEFD13F
:10109000026842F0010202600268920748BF70478E
:1010A00051B1026892075CBF02685FEA827203D4A2
:1010B000026804319207EFD5704700004EF210012C
:1010C000CEF200010A6842F004020A604FF4FA52BC
:1010D0004A604FF000028A600A6842F001020A602A
:1010E00038B3421E032A00F0030C27D2BCF1000FD4
:1010F0001FD00868C00309D40868C0035CBF086833
:101100005FEAC03002D40868C003F2D5BCF1010F19
:101110000FD00868C00309D40868C0035CBF086822
:101120005FEAC03002D40868C003F2D5BCF1020FF8
:1011300042D1086820F001000860704720F00300E9
:10114000002302E004338342D0D00A68D20306D4DD
:101150000A68D2035CBF0A685FEAC23228D50A680F
:10116000D20309D40A68D2035CBF0A685FEAC232BC
:1011700002D40A68D203F2D50A68D2030AD40A68F4
:10118000D2035CBF0A685FEAC23203D40A68D203A2
:10119000F2D500BF0A68D203D4D40A68D2035CBF78
:1011A0000A685FEAC232CDD40A68D203F2D5C9E731
:1011B0000A68D203C9D5D2E70868C003B9D4086861
:1011C000C0035CBF08685FEAC030B2D40868C003DF
:1011D000F2D5AEE74EF21001CEF200010A6842F0FD
:1011E00004020A604FF008024A604FF000028A6071
:1011F0000A6842F001020A6038B3421E032A00F076
:10120000030C27D2BCF1000F1FD00868C00309D41B
:101210000868C0035CBF08685FEAC03002D4086891
:10122000C003F2D5BCF1010F0FD00868C00309D488
:101230000868C0035CBF08685FEAC03002D4086871
:10124000C003F2D5BCF1020F42D1086820F00100C2
:101250000860704720F00300002302E0043383425B
:10126000D0D00A68D20306D40A68D2035CBF0A68E9
:101270005FEAC23228D50A68D20309D40A68D203C9
:101280005CBF0A685FEAC23202D40A68D203F2D5B0
:101290000A68D2030AD40A68D2035CBF0A685FEA0C
:1012A000C23203D40A68D203F2D500BF0A68D2035F
:1012B000D4D40A68D2035CBF0A685FEAC232CDD4D4
:1012C0000A68D203F2D5C9E70A68D203C9D5D2E7C2
:1012D0000868C003B9D40868C0035CBF08685FEA47
:1012E000C030B2D40868C003F2D5AEE77047000042
:1012F000B0B540F60004C4F2010420460721FFF710
:10130000D3F820460621FFF7CFF820460521FFF746
:10131000CBF8204604210425FFF7C6F8E06820F04A
:101320000100E060E06840F00200E06000BF00BF44
:10133000256100BF00BFA068656100BF00BF2561D7
:1013400000BF00BF656100BF000600BF2CD525614E
:1013500000BF00BFA068656100BF00BF256100BF7E
:1013600000BF656100BF000600BF1DD5256100BF3D
:1013700000BFA068656100BF00BF256100BF00BF5E
:10138000656100BF000600BF0ED5256100BF00BF2C
:10139000A068656100BF00BF256100BF00BF656137
:1013A00000BF000600BFC3D42046072100BFFFF7DF
:1013B0009FF820460621FFF79BF820460521FFF7FE
:1013C00097F820460421BDE8B040FFF791B800002F
:1013D00084B00021039146F66F71C6F66411029144
:1013E00047F66521C4F66121019146F6414141F27B
:1013F0001800C5F26921C4F20200009142684BF660
:10140000C051CFF6F07142F0805242600A46436804
:10141000DB000BD452B14368DB005CBF43685FEA7A
:10142000C30303D443680432DB00F0D5026842F002
:10143000010202600268D2070BD151B10268D207E3
:1014400004BF02685FEAC27203D102680431D207A6
:10145000F0D00420C4F201000168022262F31A6194
:101460000160FFF7BFFDFFF77FF800200021FFF7C5
:10147000CFFB28A0FFF706FD4FF47A70FEF7B8FF08
:101480000020FFF75BFC4FF47A70FEF7B1FF0120FC
:10149000FFF754FC4FF47A70FEF7AAFF00200121F9
:1014A000FFF7B6FB6846FFF7EDFC4FF47A70FEF7E6
:1014B0009FFF0120FFF754FB4FF47A70FEF798FF6F
:1014C000FFF7FAFB4120FFF791FC0120FFF7F0FA4C
:1014D0004FF47A70FEF78CFF0020FFF7E9FA4FF423
:1014E0007A70FEF785FF0020FFF73AFB4FF47A7021
:1014F000FEF77EFF08200021FFF78AFB0AA0FFF716
:1015000019FD08200121FFF783FB09A0FFF712FD59
:10151000FEE700BF303132333435363738393031B9
:1015200032333435000000004C696E653100000034
:101530004C696E653200000058150008000000205C
:1015400008000000280100086015000808000020BD
:1015500068060000440100080820000000000000A8
:04000005080000ED02
:00000001FF
