:020000040800F2
:10000000780600208901000891010008930100088A
:100010009501000897010008990100080000000000
:100020000000000000000000000000009B0100082C
:100030009D010008000000009F010008A1010008C8
:10004000A3010008A3010008A3010008A301000800
:10005000A3010008A3010008A3010008A3010008F0
:10006000A3010008A3010008A3010008A3010008E0
:10007000A3010008A3010008A3010008A3010008D0
:10008000A3010008A3010008A3010008A3010008C0
:10009000A3010008A3010008A3010008A3010008B0
:1000A000A3010008A3010008A3010008A3010008A0
:1000B000A3010008A3010008A3010008A301000890
:1000C000A3010008A3010008A3010008A301000880
:1000D000A3010008A3010008A3010008A301000870
:1000E000A3010008A3010008A301000800F002F822
:1000F00000F03AF80AA090E8000C82448344AAF188
:100100000107DA4501D100F02FF8AFF2090EBAE885
:100110000F0013F0010F18BFFB1A43F0010318473B
:10012000BC0D0000DC0D0000103A24BF78C878C177
:10013000FAD8520724BF30C830C144BF04680C60ED
:10014000704700000023002400250026103A28BF35
:1001500078C1FBD8520728BF30C148BF0B60704739
:100160001FB51FBD10B510BD00F031F81146FFF7E7
:10017000F7FF00F09BFC00F04FF803B4FFF7F2FF2D
:1001800003BC00F057F800000948804709480047C1
:10019000FEE7FEE7FEE7FEE7FEE7FEE7FEE7FEE737
:1001A000FEE7FEE704480549054A064B7047000094
:1001B000B5090008ED00000878000020780600204E
:1001C000780200207802002070477047704775461B
:1001D00000F02CF8AE4605006946534620F00700B3
:1001E000854618B020B5FFF7DDFFBDE820404FF091
:1001F00000064FF000074FF000084FF0000BAC4630
:10020000ACE8C009ACE8C009ACE8C009ACE8C0097A
:1002100021F007018D46704710B50446AFF300800A
:100220002046BDE81040FFF7A8BF00000048704717
:100230000800002001491820ABBEFEE7260002009E
:1002400070470000A0F18041A1F584314FEAB1214F
:10025000032900F28980DFE801F00323436300BF34
:1002600040F27001C2F200010978CA0740F09480A0
:1002700041F21800C4F20200026842F00402026077
:100280000268520709D4026852075CBF02685FEA3D
:10029000427202D402685207F2D541F001005EE0DA
:1002A00040F27001C2F2000109788A0766D441F277
:1002B0001800C4F20200026842F0080202600268FC
:1002C000120709D4026812075CBF02685FEA027273
:1002D00002D402681207F2D541F002003FE000BFED
:1002E00040F27001C2F2000109784A073ED441F29F
:1002F0001800C4F20200026842F0100202600268B4
:10030000D20609D40268D2065CBF02685FEAC26204
:1003100002D40268D206F2D541F004001FE000BF0B
:1003200040F27000C2F200000178080748BF704731
:1003300041F21800C4F20200026842F0200202609A
:100340000268920609D4026892065CBF02685FEAFE
:10035000826202D402689206F2D541F0080040F2AF
:100360007001C2F200010870704700BF41F2004204
:10037000C4F201029042F7D1D7E700BF41F2004238
:10038000C4F201029042D0D041F20002C4F2010254
:100390009042AAD0E8E700BF41F20042C4F2010255
:1003A0009042C2D041F20002C4F2010290429CD0BD
:1003B00040F60042C4F201029042D5D175E7000038
:1003C000B0B540F60004C4F201042046FFF73AFF3E
:1003D0002046002100F00AFA2046FFF733FF2046AE
:1003E000012100F003FA2046FFF72CFF20460221EE
:1003F00000F0FCF92046FFF725FF2046032100F01E
:10040000F5F92046FFF71EFF2046042100F0EEF923
:100410002046FFF717FF2046052100F0E7F92046A8
:10042000FFF710FF2046062100F0E0F92046FFF715
:1004300009FF2046072100F0D9F904F58065284618
:10044000FFF700FF2846002100F0D0F92846FFF70B
:10045000F9FE2846012100F0C9F92846FFF7F2FE0F
:100460002846022100F0C2F92846FFF7EBFE284695
:10047000032100F0BBF940F60C40C4F20100016812
:1004800021F001010160016821F0020101600168B1
:1004900021F004010160016821F008010160E068B9
:1004A00040F00100E060E06840F00200E060E068D9
:1004B00040F00400E060E06840F00800E060E068C0
:1004C00040F01000E060E06840F02000E060E0688C
:1004D00040F04000E060E06840F08000E060B0BDC7
:1004E00040F20500C2F200000078002808BF704703
:1004F00040F27400C2F2000001680131B1F5FA6FF8
:10050000016003D90021016000F056BA7047000075
:1005100040F2050110F00100C2F20001087018BF9E
:10052000704740F60C00C4F20100D0F8001421F02E
:100530000101C0F80014D0F8001421F00201C0F845
:100540000014D0F8001421F00401C0F80014D0F811
:10055000001421F00801C0F80014016841F0010105
:100560000160016841F002010160016841F004018D
:100570000160016841F008010160016841F010016B
:100580000160016841F020010160016841F0400113
:100590000160016841F08001016070472DE9F0437E
:1005A00081B00021044600F0E3FA40F26808C2F28C
:1005B0000008C8B943F60041C4F21C61204600F0AF
:1005C000C9FA88B90021C4F22011204600F0C2FA0D
:1005D00070BB0021C4F27A41204600F099FB04462A
:1005E0004FF0030998E000BF4CF20001CCF27941D2
:1005F000204600F0BDFA98B92046002100F0AAFA82
:1006000070B90021CCF22011204600F0AAFA002196
:10061000CCF2C821F0B9204600F07AFB02243AE07F
:100620004FF04030C8F8040040214020CAE000BF2D
:100630000021C4F2C821204600F08CFAB0B9002194
:10064000C4F2C821204600F063FB04464FF00209C3
:1006500062E000BF204600F084FAC8B90021CCF265
:100660002011204600F054FB012414E00021C4F2C4
:100670007A41204600F06EFA00284BD10021C4F2E6
:100680002011204600F044FB04464FF0010943E0EE
:1006900084F00040002488F8004000F0B1FA4CF6E5
:1006A000CD41CCF6CC41A0FB0123DA08A2FB0137F7
:1006B00048F21F53C5F2EB13A0FB03367309A3FBEB
:1006C000011602EB8201A0EB4100F90840F6B86583
:1006D00001EB8101F708C0F60005A2EB410107EB31
:1006E00087076A5CA3EB4703285C4146EB5C01F893
:1006F000052F012C88F8063004D0022C08D108F10F
:1007000006011A4642F080020A7040215AE000BFFA
:10071000402157E04FF00009204688F8009000F093
:100720006FFA4CF6CD41CCF6CC41A0FB0123DA08A0
:10073000A2FB013448F21F53C5F2EB13A0FB0335B3
:100740006B09A3FB015744F6D355C1F26205A0FB28
:100750000556B609A6FB011502EB8201FF08A0EBC6
:10076000410040F6B86107EB8707C0F60001A3EB34
:100770004703CB5CE40804EB840488F80630EB08FC
:10078000A2EB440203EB83038C5CA6EB4303085CFF
:100790004246C95C02F8054FB9F1010F88F807100D
:1007A0000AD0B9F1030F05D0B9F1020F0AD108F14F
:1007B000060201E008F10702117841F08001117092
:1007C00098F80710C04388F8040098F8050098F8D6
:1007D0000620C04388F80500D04388F80600C843C7
:1007E00088F8070001B0BDE8F0830000B0B500F163
:1007F000040E6FF01F0202EB8102734608293CBF12
:100800008A0003461C6803259540AC43022505FA7F
:1008100002F24FEA810C224307291A600CD84CF0EF
:1008200003010268012303FA01F122EA01010160D8
:100830004CF002010EE000BFACF11D00DEF800102C
:10084000012202FA00F021EA0000CEF80000ACF12B
:100850001E0170460268012303FA01F122EA010138
:100860000160B0BD80B542F20000C4F20200016830
:1008700021F0070101600168490709D001684907B3
:100880001CBF01685FEA417102D001684907F2D1DB
:1008900041F20400C4F2020050F8041C102262F37A
:1008A000C70140F8041C50F8041C41F0010140F855
:1008B000041C50F8041C89070CD450F8041C890748
:1008C0005CBF50F8041C5FEA817103D450F8041C2B
:1008D0008907EED5016821F003010160016811F07C
:1008E0000C0F0BD0016811F00C0F07D0016811F04C
:1008F0000C0F03D0016811F00C0FEFD1016821F04B
:10090000F0010160016821F4E0610160016821F4F7
:100910006051016000F016F84EF21000CEF20000B7
:1009200041F63F714160002181600521016040F284
:10093000000041F20021C2F20000C0F27A01016021
:1009400080BD000041F20400C4F20200016801F021
:100950000C01082941F20021C0F27A0119D1026884
:100960000368C2F38342DB0302F1020206D440F6BD
:100970000011C0F23D0151430BE000BF03689B032F
:1009800002D4514305E000BF40F60011C0F23D0122
:10099000514340F20002C2F200021160006840F6CA
:1009A000A863C0F30310C0F60003185C21FA00F03E
:1009B000106070477047000010B540F60C00C4F29C
:1009C0000100D0F8001440F2040C21F00101C0F83D
:1009D0000014D0F80014C2F2000C21F00201C0F89B
:1009E0000014D0F8001440F2680321F00401C0F8AC
:1009F0000014D0F80014C2F2000321F00801C0F87E
:100A000000149CF800E0734419790268BEF1030FEA
:100A100061F300020260197902684FEA510161F343
:100A200041020260197902684FEA910161F3820282
:100A30000260197902684FEAD10161F3C3020260D2
:100A4000197902684FEA111161F3041202601979F1
:100A500002684FEA511161F3451202601979026888
:100A60004FEA911161F386120260197902684FEA28
:100A7000D11161F3C712026013D840F6CC61C0F601
:100A8000000151F82E100323D0F800444FEACE02A3
:100A9000C0F2012323FA02FE2143C0F800148CF8AF
:100AA00000E0CEF10300C0B210BD000041F218001A
:100AB000C4F20200416841F0805141604168C900C0
:100AC00009D44168C9005CBF41685FEAC10102D432
:100AD0004168C900F2D5016841F001010160016877
:100AE000C90709D10168C90704BF01685FEAC1717C
:100AF00002D10168C907F2D00420C4F201000168E4
:100B0000022262F31A610160FFF7ACFEFFF758FCA6
:100B10000120FFF7FDFC4FF2B630CBF69D70FFF7DA
:100B20003DFD00BFFFF7DCFCFCE710B500F034F83A
:100B30000CBF0120002010BD10B500F02DF814BF2F
:100B40000120002010BD10B500F07AF88CBF012004
:100B5000002010BD10B500F073F82CBF012000205C
:100B600010BD10B500F0A0F894BF0120002010BD0A
:100B700010B500F099F834BF0120002010BD4010DE
:100B800058BFC0F14040491058BFC1F140418142B7
:100B9000EFF300807047000050EA010C00F1138071
:100BA0001CF5000F58BFBCF5000F01D488427047F8
:100BB00007D710F5000F58BF11F5000F15D4884264
:100BC0007047894270471CF5000F04D5BCF5000F33
:100BD000F7D5814270474FF0807C1CEB400F38BF47
:100BE0001CEB410F01D28142704710B500F011F9A2
:100BF000922449004FF000504FF08051FFF7BFBFE3
:100C0000C10DD1F19E0206DB4FEA002343F0004301
:100C100023FA02F07047004207D54FEA4001B1F1D4
:100C2000FE4F02D24FF00000704710B500F0F1F80F
:100C300049922480002070476FEA2000704700002E
:100C400050EA010C00F113801CF5000F58BFBCF5F1
:100C5000000F01D48842704707D710F5000F58BF26
:100C600011F5000F15D488427047894270471CF572
:100C7000000F04D5BCF5000FF7D5814270474FF047
:100C8000807C1CEB400F38BF1CEB410F01D281422E
:100C9000704710B500F0BDF8922449004FF0805025
:100CA0004FF00051FFF76BBF50EA010C00F11380C9
:100CB0001CF5000F58BFBCF5000F01D488427047E7
:100CC00007D710F5000F58BF11F5000F15D4884253
:100CD0007047894270471CF5000F04D5BCF5000F22
:100CE000F7D5814270474FF0807C1CEB400F38BF36
:100CF0001CEB410F01D28142704710B500F089F81A
:100D0000922449004FF000504FF08051FFF737BF59
:100D10004FF47F0C1CEAD0121EBF1CEAD11392EADA
:100D20000C0F93EA0C0F00F0478090EA010F48BFC8
:100D300042F480724FF0004C4CEA00204CEA012152
:100D400002EB0302A0FB0113A2F50002002918BF69
:100D500043F001035B0028BF4FEA330342EB22421A
:100D60005FEA132C4CEBC2502EBFBCEB436FB2F5C5
:100D70007C0F70474FEA036CBCF1004F08BF20F0B6
:100D80000100B2F57C0F38BF70470BD582F0FF022F
:100D900012F5803FC8BF704700F1C040D8BF00F0D7
:100DA0000040704700F5000C5FEA4C0C48BF7047EC
:100DB000B0F1C04000F073B80CEAD11390EA010F13
:100DC00048BF42F48072624538BF634504D280EA6E
:100DD000010000F00040704710B500F01AF800BFA5
:100DE0008900013E00F007B800F009B85FEA410C45
:100DF0005FEA1C6C08D080EA010000F050B85FEA9E
:100E0000400C5FEA1C6CF6D14FF00040A0F580006A
:100E100070470EF1020E2EF0030E5EF8044B2442D2
:100E200004D44FEA4102B2F17F4F11D84FEA400398
:100E3000B3F17F4F0CD80ED14FEAD07C0CEB4C0CA9
:100E40000CF1020CB2F17F4F08BF4CEBD17C04E0F7
:100E50004FF0080C01E04FEAD17C0CEB4C0324FA74
:100E600003F404F00704B4F1040C06D20EEB840C76
:100E7000BDE810404CF0010C6047DFE80CF00708BB
:100E800002024FF00040A0F5800010BD084642006D
:100E900018BFD2F1807288BF00F0004010BDFF2162
:100EA00041EAD050C005704700000000000000007B
:100EB00001020304060708093F065B4F666D7D07C4
:100EC0007F6F777C395E79714080000001000000FF
:100ED000020000000400000008000000000F0008ED
:100EE000000000200800000028010008080F00088A
:100EF0000800002070060000440100080000000007
:080F00000024F40003010000CD
:04000005080000ED02
:00000001FF
