:020000040800F2
:100000008006002099010008A1010008A301000852
:10001000A5010008A7010008A901000800000000D0
:10002000000000000000000000000000AB0100081C
:10003000AD01000800000000AF010008B101000898
:10004000B3010008B3010008B3010008B3010008C0
:10005000B3010008B3010008B3010008B3010008B0
:10006000B3010008B3010008B3010008B3010008A0
:10007000B3010008B3010008B3010008B301000890
:10008000B3010008B3010008B3010008B301000880
:10009000B3010008B3010008B3010008B301000870
:1000A000B3010008B3010008B3010008B301000860
:1000B000B3010008B3010008B3010008B301000850
:1000C000B3010008B3010008B3010008B301000840
:1000D000B3010008B3010008B3010008B301000830
:1000E000B3010008B3010008B301000800F002F8F2
:1000F00000F042F80AA090E8000C82448344AAF180
:100100000107DA4501D100F037F8AFF2090EBAE87D
:100110000F0013F0010F18BFFB1A43F0010318473B
:100120000809000028090000103A24BF78C878C1E7
:10013000FAD8520724BF30C830C144BF04680C60ED
:10014000704700000023002400250026103A28BF35
:1001500078C1FBD8520728BF30C148BF0B60704739
:10016000642900F07580782900F0AE800020704787
:100170001FB51FBD10B510BD00F0D3F91146FFF734
:10018000F7FF00F0BFFB00F0F1F903B4FFF7F2FF57
:1001900003BC00F0F9F9000009488047094800470E
:1001A000FEE7FEE7FEE7FEE7FEE7FEE7FEE7FEE727
:1001B000FEE7FEE704480549054A064B7047000084
:1001C000D1060008ED000008800000208006002015
:1001D00080020020800200200FB41CB5074B06AA45
:1001E0007B4469460090059800F083F90020694639
:1001F00000F092F91CBC5DF814FB00003503000010
:1002000070B5044685690068C10601D5302600E056
:100210002026C00707D070BDD4E9012130469047A1
:10022000206A401C20626D1EF6D570BD70B5044674
:1002300085690078C00707D170BDD4E9012120206D
:100240009047206A401C20626D1EF6D570BD0000EC
:100250002DE9F0410646002410687529314616A59F
:1002600010D0AFF30080002802DA404213A507E067
:1002700031688A0701D512A502E0490704D511A506
:10028000012401E0AFF3008000210A2206F12407D7
:1002900009E0B0FBF2FCB0FBF2F302FB1C003030D3
:1002A00078541846491C0028F3D123462A46304684
:1002B000BDE8F04100F0BEB8000000002D000000D5
:1002C0002B0000002000000070B504460D462146BA
:1002D0001068AFF300802188090502D50F4A7A44DF
:1002E00002E00E4A7A440E32002104F1240305E0B4
:1002F00000F00F060009965D5E54491C0028F7D1F6
:1003000020780023000704D5702D02D009B1022304
:1003100011322046BDE8704000F08CB80C07000098
:100320002DE9F0474FF0000A89460446C0F820A0A6
:100330002046E1688847002876D0252806D0D4E9F1
:1003400001219047206A401C2062F1E7E1682046C5
:1003500000258847C4F81CA006460027C4F818A04A
:100360002A2E09D0304600F03BFB38B304EB870857
:10037000303EC8F8186019E059F8041B204604EB19
:1003800087029161E1688847012F064618D1E0692C
:10039000002820DA25F020051DE0D8F8180000EB31
:1003A000800006EB40003038C8F818002046E168AD
:1003B0008847064600F014FB0028EED1012F0AD032
:1003C0002E2E08D12046E16888477F1C0646022F62
:1003D00045F02005C4DBA069002803DA404245F05F
:1003E0000105A061E80701D025F01005B6B1A6F11E
:1003F0004100192802D8203645F400654A463146A6
:10040000204625604D46FFF7ABFE58B1012806D0C7
:10041000ED1D25F0070000F1080989E704E005F16A
:10042000040985E730468AE7206ABDE8F08770470F
:10043000704770472DE9F0470D46994692460446AD
:1004400000F124080168880604D5E06921F0100154
:10045000216000E00120A84201DD471B00E00027E9
:10046000A1697A1902EB0900081AA0612078C00678
:1004700002D42046FFF7C4FE002608E0D4E901219B
:100480001AF806009047206A401C761C20624E45F0
:10049000F4DB2078C0060AD52046FFF7B1FE06E05F
:1004A000D4E9012130209047206A401C2062381E88
:1004B000A7F10107F4DC07E0D4E9012118F80500F1
:1004C0009047206A401C2062281EA5F10105F3DC3C
:1004D0002046FFF7ABFE2078000602D50220BDE8DB
:1004E000F0870120FBE7000001694A1C02610878DF
:1004F000704700B58FB0CDE9013100210591054964
:100500007944CDE9031011466846FFF709FF0FB0A3
:1005100000BD0000E5FFFFFF0A6802F8010B0A605A
:100520007047754600F02CF8AE4605006946534604
:1005300020F00700854618B020B5FFF73BFEBDE868
:1005400020404FF000064FF000074FF000084FF03A
:10055000000BAC46ACE8C009ACE8C009ACE8C00987
:10056000ACE8C00921F007018D46704710B504467C
:10057000AFF300802046BDE81040FFF706BE000044
:10058000004870470800002001491820ABBEFEE774
:10059000260002007047000080B542F20000C4F25D
:1005A0000200016821F0070101600168490709D0D4
:1005B000016849071CBF01685FEA417102D0016808
:1005C0004907F2D141F20400C4F2020050F8041CC1
:1005D000102262F3C70140F8041C50F8041C41F0DB
:1005E000010140F8041C50F8041C89070CD450F891
:1005F000041C89075CBF50F8041C5FEA817103D4B6
:1006000050F8041C8907EED5016821F00301016050
:10061000016811F00C0F0BD0016811F00C0F07D01E
:10062000016811F00C0F03D0016811F00C0FEFD12D
:10063000016821F0F0010160016821F4E0610160CE
:10064000016821F46051016000F00AF840F20000F6
:1006500041F20021C2F20000C0F27A01016080BDC7
:1006600041F20400C4F20200016801F00C01082903
:1006700041F20021C0F27A0119D102680368C2F385
:100680008342DB0302F1020206D440F60011C0F2FD
:100690003D0151430BE000BF03689B0302D451436B
:1006A00005E000BF40F60011C0F23D01514340F2A9
:1006B0000002C2F200021160006840F61623C0F387
:1006C0000310C0F60003185C21FA00F010607047B8
:1006D0007047000041F21800C4F20200016841F0C6
:1006E000040101600168490709D4016849075CBF3A
:1006F00001685FEA417102D401684907F2D540F60A
:100700000401C4F201010A6842F030020A600A687A
:1007100042F080020A600A6822F040020A60016822
:1007200041F4804101600168490409D40168490429
:100730005CBF01685FEA414102D401684904F2D517
:1007400043F60C00C4F2010040F2413140F8041CB1
:10075000416821F480414160416821F400614160B9
:10076000816821F020018160816821F008018160A9
:10077000816821F002018160016821F480510160EB
:10078000016821F480610160416821F440514160B9
:10079000016841F008010160016821F080010160F9
:1007A000016821F004010160016821F0200101606D
:1007B000816821F400718160816821F48061816029
:1007C000816821F480718160016841F40051016009
:1007D00004E000BF0168890448BF704701688904CC
:1007E00006D4016889045CBF01685FEA8141F1D5E4
:1007F000704700000A7802E0426011F8012F82B1D0
:1008000003681B06F8D403681B065CBF03685FEA35
:100810000363F1D403681B06F2D5EDE7016809060E
:1008200009D40168090606D4016809065CBF01689D
:100830005FEA0161F2D50D2141600168090609D422
:10084000016809065CBF01685FEA016102D40168C2
:100850000906F2D50A21416004E000BF016849069B
:1008600048BF70470168490606D4016849065CBF65
:1008700001685FEA4161F1D5704700000A7802E043
:10088000426011F8012F82B103681B06F8D4036897
:100890001B065CBF03685FEA0363F1D403681B06B1
:1008A000F2D5EDE70168090609D40168090606D406
:1008B000016809065CBF01685FEA0161F2D50D219C
:1008C00041600168090609D4016809065CBF016836
:1008D0005FEA016102D401680906F2D50A2141608C
:1008E00004E000BF0168490648BF70470168490637
:1008F00006D4016849065CBF01685FEA4161F1D531
:100900007047000041F21800C4F20200416841F053
:10091000805141604168C90009D44168C9005CBF89
:1009200041685FEAC10102D44168C900F2D501689B
:1009300041F0010101600168C90709D10168C907D7
:1009400004BF01685FEAC17102D10168C907F2D032
:100950000420C4F201000168022262F31A610160FE
:10096000FFF71AFEFFF7B6FE43F60004C4F20104D7
:100970000FA12046FFF782FF40F20406C2F20006F4
:1009800040F268053278C2F200050CA12846FFF754
:1009900023FC20462946FFF72DFF32780BA128467D
:1009A000FFF71AFC20462946FFF724FFFEE700BFA9
:1009B0005465737420555341525431004E756D6225
:1009C000657228444543293D253364004E756D62A8
:1009D000657228486578293D307825580000000068
:1009E00030380A2801D2012070470020704730318A
:1009F0003233343536373839414243444546403046
:100A000058003031323334353637383961626364F7
:100A10006566403078000000000000000000010220
:100A20000304060708090000480A00080000002027
:100A30000800000028010008500A000808000020F3
:100A400078060000440100080024F40011000000B2
:04000005080000ED02
:00000001FF
