:020000040800F2
:10000000680600208901000891010008930100089A
:100010009501000897010008990100080000000000
:100020000000000000000000000000009B0100082C
:100030009D010008000000009F010008A1010008C8
:10004000A3010008A3010008A3010008A301000800
:10005000A3010008A3010008A3010008A3010008F0
:10006000A3010008A3010008A3010008A3010008E0
:10007000A3010008A3010008A3010008A3010008D0
:10008000A3010008A3010008A3010008A3010008C0
:10009000A3010008A3010008A3010008A3010008B0
:1000A000A3010008A3010008A3010008A3010008A0
:1000B000A3010008A3010008A3010008A301000890
:1000C000A3010008A3010008A3010008A301000880
:1000D000A3010008A3010008A3010008A301000870
:1000E000A3010008A3010008A301000800F002F822
:1000F00000F03AF80AA090E8000C82448344AAF188
:100100000107DA4501D100F02FF8AFF2090EBAE885
:100110000F0013F0010F18BFFB1A43F0010318473B
:100120005004000070040000103A24BF78C878C161
:10013000FAD8520724BF30C830C144BF04680C60ED
:10014000704700000023002400250026103A28BF35
:1001500078C1FBD8520728BF30C148BF0B60704739
:100160001FB51FBD10B510BD00F031F81146FFF7E7
:10017000F7FF00F09DF900F04FF803B4FFF7F2FF2E
:1001800003BC00F057F800000948804709480047C1
:10019000FEE7FEE7FEE7FEE7FEE7FEE7FEE7FEE737
:1001A000FEE7FEE704480549054A064B7047000094
:1001B000AD040008ED00000868000020680600207B
:1001C000680200206802002070477047704775463B
:1001D00000F02CF8AE4605006946534620F00700B3
:1001E000854618B020B5FFF7DDFFBDE820404FF091
:1001F00000064FF000074FF000084FF0000BAC4630
:10020000ACE8C009ACE8C009ACE8C009ACE8C0097A
:1002100021F007018D46704710B50446AFF300800A
:100220002046BDE81040FFF7A8BF00000048704717
:100230000800002001491820ABBEFEE7260002009E
:1002400070470000002808BF704700214FF47A7201
:1002500000BF00BF00BF00BF00BF00BF00BF00BFA6
:1002600000BF00BF00BF00BF00BF00BF00BF00BF96
:1002700000BF00BF00BF00BF00BF00BF00BF00BF86
:1002800000BF00BF00BF00BF00BF00BF00BF00BF76
:1002900000BF00BF00BF00BF00BF00BF00BF00BF66
:1002A00000BF00BF00BF00BF00BF00BF00BF00BF56
:1002B00000BF00BF00BF00BF00BF00BF00BF00BF46
:1002C00000BF00BF00BF00BF00BF00BF00BF00BF36
:1002D00000BF00BF00BF00BF00BF00BF00BF00BF26
:1002E00000BF00BF00BF00BF00BF00BF00BF0A3A91
:1002F00000BFADD101318142A8D17047B0B500F146
:10030000040E6FF01F0202EB8102734608293CBF06
:100310008A0003461C6803259540AC43022505FA74
:1003200002F24FEA810C224307291A600CD84CF0E4
:1003300003010268012303FA01F122EA01010160CD
:100340004CF002010EE000BFACF11D00DEF8001021
:10035000012202FA00F021EA0000CEF80000ACF120
:100360001E0170460268012303FA01F122EA01012D
:100370000160B0BD80B542F20000C4F20200016825
:1003800021F0070101600168490709D001684907A8
:100390001CBF01685FEA417102D001684907F2D1D0
:1003A00041F20400C4F2020050F8041C102262F36F
:1003B000C70140F8041C50F8041C41F0010140F84A
:1003C000041C50F8041C89070CD450F8041C89073D
:1003D0005CBF50F8041C5FEA817103D450F8041C20
:1003E0008907EED5016821F003010160016811F071
:1003F0000C0F0BD0016811F00C0F07D0016811F041
:100400000C0F03D0016811F00C0FEFD1016821F03F
:10041000F0010160016821F4E0610160016821F4EC
:100420006051016000F00AF840F2000041F2002142
:10043000C2F20000C0F27A01016080BD41F2040006
:10044000C4F20200016801F00C01082941F2002108
:10045000C0F27A0119D102680368C2F38342DB0358
:1004600002F1020206D440F60011C0F23D015143F0
:100470000BE000BF03689B0302D4514305E000BFBB
:1004800040F60011C0F23D01514340F20002C2F2B9
:1004900000021160006840F26053C0F30310C0F620
:1004A0000003185C21FA00F01060704770470000EC
:1004B00041F21804C4F20204606840F080506060A9
:1004C0006068C00009D46068C0005CBF60685FEA13
:1004D000C00002D46068C000F2D5206840F001007E
:1004E00020602068C00709D12068C00704BF2068C9
:1004F0005FEAC07002D12068C007F2D00420C4F2C5
:1005000001000168022262F31A610160FFF732FF05
:10051000206840F0100020602068C00609D42068E0
:10052000C0065CBF20685FEAC06002D42068C006D5
:10053000F2D541F21004C4F20104A4F110000D211F
:10054000FFF7DCFE4FF40055256000BF0A20656010
:10055000FFF778FE4FF47A702560FFF773FEF5E73A
:100560000000000000000000010203040607080963
:100570009005000800000020080000002801000885
:1005800098050008080000206006000044010008EB
:080590000024F400000000004B
:04000005080000ED02
:00000001FF
