:020000040800F2
:10000000600600206D0100087501000877010008F6
:10001000790100087B0100087D0100080000000054
:100020000000000000000000000000007F01000848
:10003000810100080000000083010008850100081C
:100040008701000887010008870100088701000870
:100050008701000887010008870100088701000860
:100060008701000887010008870100088701000850
:100070008701000887010008870100088701000840
:100080008701000887010008870100088701000830
:100090008701000887010008870100088701000820
:1000A0008701000887010008870100088701000810
:1000B0008701000887010008870100088701000800
:1000C00087010008870100088701000887010008F0
:1000D00087010008870100088701000887010008E0
:1000E00087010008870100088701000800F002F876
:1000F00000F02CF80AA090E8000C82448344AAF196
:100100000107DA4501D100F021F8AFF2090EBAE893
:100110000F0013F0010F18BFFB1A43F0010318473B
:10012000440400005404000000230024002500269D
:10013000103A28BF78C1FBD8520728BF30C148BF4A
:100140000B6070471FB51FBD10B510BD00F031F832
:100150001146FFF7F7FF00F0A1F900F04FF803B4E4
:10016000FFF7F2FF03BC00F057F800000948804792
:1001700009480047FEE7FEE7FEE7FEE7FEE7FEE789
:10018000FEE7FEE7FEE7FEE704480549054A064BA1
:100190007047000099040008ED000008600000208E
:1001A0006006002060020020600200207047704757
:1001B0007047754600F02CF8AE4605006946534678
:1001C00020F00700854618B020B5FFF7DDFFBDE839
:1001D00020404FF000064FF000074FF000084FF0AE
:1001E000000BAC46ACE8C009ACE8C009ACE8C009FB
:1001F000ACE8C00921F007018D46704710B50446F0
:10020000AFF300802046BDE81040FFF7A8BF000014
:10021000004870470000002001491820ABBEFEE7EF
:100220002600020070470000002808BF7047002128
:100230004FF47A7200BF00BF00BF00BF00BF00BF15
:1002400000BF00BF00BF00BF00BF00BF00BF00BFB6
:1002500000BF00BF00BF00BF00BF00BF00BF00BFA6
:1002600000BF00BF00BF00BF00BF00BF00BF00BF96
:1002700000BF00BF00BF00BF00BF00BF00BF00BF86
:1002800000BF00BF00BF00BF00BF00BF00BF00BF76
:1002900000BF00BF00BF00BF00BF00BF00BF00BF66
:1002A00000BF00BF00BF00BF00BF00BF00BF00BF56
:1002B00000BF00BF00BF00BF00BF00BF00BF00BF46
:1002C00000BF00BF00BF00BF00BF00BF00BF00BF36
:1002D00000BF0A3A00BFADD101318142A8D17047B9
:1002E00010B56FF01F0303EB8103082934BF8B00A7
:1002F000043002684FF0030E0EFA03F4A243022406
:1003000004FA03F31A4302606FF01D0202EB81024C
:100310004FEA810C082938BF0CF1020201680EFA7D
:1003200002F29143016010BD42F20000C4F20200EB
:10033000016821F0070101600168490709D00168DF
:1003400049071CBF01685FEA417102D00168490793
:10035000F2D141F20400C4F2020050F8041C102251
:1003600062F3C70140F8041C50F8042C4BF6C0514E
:10037000CFF6F07142F0010240F8042C0A4650F822
:10038000043C9B070ED46AB150F8043C9B075CBF49
:1003900050F8043C5FEA837304D450F8043C043200
:1003A0009B07ECD5026822F0F00202600A4603685F
:1003B00013F0F00F18BF002A0CD0036813F0F00FF1
:1003C00008D0036813F0F00F04D00368043213F070
:1003D000F00FECD1026822F4E06202600A46036882
:1003E00013F4E06F18BF002A0CD0036813F4E06F19
:1003F00008D0036813F4E06F04D00368043213F4E8
:10040000E06FECD1026822F4605202600A46036891
:1004100013F4605F18BF002A0CD0036813F4605F08
:1004200008D0036813F4605F04D00368043213F447
:10043000605FECD1026822F0030202600A460368A2
:1004400013F00C0F18BF002A0CD0036813F00C0F28
:1004500008D0036813F00C0F04D00368043213F0C3
:100460000C0FECD1026822F440420260026812F4E0
:10047000404F18BF00290DD0026812F4404F09D038
:10048000026812F4404F08BF70470268043112F44A
:10049000404FEBD1704700007047000041F2180454
:1004A000C4F2020460684BF6C055CFF6F07540F018
:1004B0008050606028466168C9000BD450B1616803
:1004C000C9005CBF61685FEAC10103D461680430A0
:1004D000C900F0D5206840F001002060284621685E
:1004E000C9070BD150B12168C90704BF21685FEA71
:1004F000C17103D121680430C907F0D00420C4F2CF
:1005000001000168022262F31A610160FFF70CFF2B
:10051000206840F0100020602068C0060BD455B160
:100520002068C0065CBF20685FEAC06003D4206812
:100530000435C006F0D541F21004C4F20104A4F160
:1005400010000D21FFF7CCFE4FF40055256000BFD1
:100550000A206560FFF768FE4FF47A702560FFF7A8
:1005600063FEF5E774050008000000206006000047
:040570002801000856
:04000005080000ED02
:00000001FF
