:020000040800F2
:100000006806002061020008490400082503000872
:10001000450400081D0300086D04000800000000EE
:100020000000000000000000000000005104000873
:1000300021030008000000004D04000855040008DA
:100040007B0200087B0200087B0200087B0200089C
:100050007B0200087B0200087B0200087B0200088C
:100060007B0200087B0200087B0200087B0200087C
:100070007B0200087B0200087B0200087B0200086C
:100080007B0200087B0200087B02000800000000E1
:100090000000000000000000000000007B020008DB
:1000A0007B0200087B0200087B0200087B0200083C
:1000B0007B0200087B0200087B0200087B0200082C
:1000C0007B0200087B0200087B0200087B0200081C
:1000D0007B0200087B0200087B0200080000000091
:1000E0007B0200087B0200087B0200080000000081
:1000F0000000000000000000000000007B0200087B
:10010000000000007B0200087B0200087B02000860
:1001100000000000000000000000000000000000DF
:100120007B0200087B0200087B0200087B020008BB
:100130007B0200080000000000000000000000003A
:100140000000000000000000000000007B0200082A
:100150007B0200087B0200087B0200087B0200088B
:100160007B0200087B020008000000000000000085
:10017000000000000000000000000000000000007F
:10018000000000007B0200080000000000000000EA
:100190007B02000800F002F800F052F814A696E87E
:1001A000000CB244B344DA4501D100F049F8BAE892
:1001B0000F000FA696E83000A5EB040504EB060738
:1001C000AAEB0704A7F101074FEA15154FEA34140B
:1001D000A4F10104AC4201D300F032F813F0010F96
:1001E00018BFFB1A43F0010300F001F8DBE71847E2
:1001F000EC0400000C050000103A24BF78C878C158
:10020000FAD8520724BF30C830C144BF04680C601C
:1002100070470000704700000023002400250026DE
:10022000103A28BF78C1FBD8520728BF30C148BF59
:100230000B6070471FB500F044FA1FBD10B510BD2C
:1002400000F031F81146FFF7F5FF00F011F900F06A
:100250004FF803B4FFF7F2FF03BC00F057F80000BB
:100260000948804709480047FEE7FEE7FEE7FEE74A
:10027000FEE7FEE7FEE7FEE7FEE7FEE70448054986
:10028000054A064B70470000590400089501000814
:100290006800002068060020680200206802002034
:1002A000704770477047754600F02CF8AE46050061
:1002B0006946534620F00700854618B020B5FFF781
:1002C000DDFFBDE820404FF000064FF000074FF083
:1002D00000084FF0000BAC46ACE8C009ACE8C00920
:1002E000ACE8C009ACE8C00921F007018D467047B1
:1002F00010B50446AFF300802046BDE81040FFF77C
:10030000A8BF0000004870470800002001491820DD
:10031000ABBEFEE72600020070470000FEE70000CB
:1003200070470000FEE700002DE9F04F0E6896FAD6
:10033000A6F2B2FA82F236FA02F365D04FF0010863
:100340004FF0030C0CE000BFD1E900630768AB403D
:1003500007EA0A073B430360013236FA02F353D03F
:1003600008FA02F316EA0304F6D0D1F804E0AEF17D
:100370000103022B1CD294FAA4F5B5FA85F6D0F845
:1003800008907500D1E902AB0CFA05F329EA0309DC
:100390000AFA05F747EA0907876047686FEA030A20
:1003A00027EA04090BFB04F747EA0907476008E05E
:1003B00094FAA4F3B3FA83F675000CFA05F36FEA26
:1003C000030A0F69C368AF4003EA0A033B43BEF167
:1003D000020FC360B8D1E3B2240AD1F814E094FA52
:1003E000A4F4002B08BFB4FA84F64FF0200308BF32
:1003F0002423C458B6000F27B740BC430EFA06F7B3
:100400002743C750A0E700BF0020BDE8F08F0000E1
:1004100044F6D351C1F26201A0FB01014FF0FF305D
:1004200000EB91104EF21001CEF200014860002066
:10043000886005200860704740F20001C2F20001A8
:1004400008607047FEE70000FEE70000704700000C
:1004500070470000704700004EF68850CEF2000052
:10046000016841F47001016070470000FEE7000080
:1004700088B043F60806C4F20206F06B4FF6FF029E
:1004800040F48040F063F06B4FF0FF3300F48040A5
:1004900001900198B06B40F08050B063B06B00F0F9
:1004A0008050019001984EF60C50CEF20000016889
:1004B000114040F20032C0F2FA521143016001686B
:1004C000C1F3022181F00702042A28BF0422033964
:1004D00003FA02F238BF0021D24302FA01F1090106
:1004E000C175D6F8F80320F00700C6F8F803D6F86F
:1004F000F80340070CD0D6F8F80340071CBFD6F825
:10050000F8035FEA407003D0D6F8F8034007EED155
:1005100040F2000847F20000C4F20208CFF6FE7075
:1005200058F80010022262F38F3148F8001056F894
:10053000080C102161F3C70046F8080C56F8080CA7
:1005400040F0010046F8080C56F8080C80070CD45F
:1005500056F8080C80075CBF56F8080C5FEA8070FC
:1005600003D456F8080C8007EED5306820F0F00070
:100570003060306820F4E0503060306820F4604033
:100580003060306820F00300306000BF306810F049
:100590000C0F0BD0306810F00C0F07D0306810F043
:1005A0000C0F03D0306810F00C0FEFD142F200496D
:1005B000C0F2F40940F6180740F2144410254846EA
:1005C000C4F20207C4F20204C4F20205FFF720FFDE
:1005D0004846FFF731FFD6F884004FF0000A20F0BC
:1005E0008070C6F88400CDF818A0B06A0DF1040937
:1005F00040F00400B062B06A4FF0010B00F004005C
:1006000007900798B06A494640F00100B062B06AAE
:1006100000F0010007900798B06A40F00200B06255
:10062000B06A4FF4005600F00200079007984FF4AC
:1006300080303E6038604FF07040606042F20100F0
:10064000019004F57B70CDE902BACDE904AAFFF769
:100650006BFE40464946CDE901BACDF814B0FFF72C
:1006600063FE0220CDE9010A059040464946FFF7A6
:100670005BFEF020CDE9010A40464946CDF814A0C2
:10068000FFF752FE4FF47040CDE9010B05F57C7089
:100690004946CDE903AACDF814A0FFF745FE4FF077
:1006A000005000BF2968C90708BF3860296889075A
:1006B00048BF3E6029682268090961F30F32226051
:1006C000F0E7F1EE100A4FF6FF71C0F2C03120EAF8
:1006D000010040F04070E1EE100A7047000700088A
:1006E0000000002008000000F801000808070008CA
:1006F000080000206006000018020008000000004A
:080700000024F40000000000D9
:040000050800019559
:00000001FF
