:020000040800F2
:10000000680600206D0100087501000877010008EE
:10001000790100087B0100087D0100080000000054
:100020000000000000000000000000007F01000848
:10003000810100080000000083010008850100081C
:100040008701000887010008870100088701000870
:100050008701000887010008870100088701000860
:100060008701000887010008870100088701000850
:100070008701000887010008870100088701000840
:100080008701000887010008870100088701000830
:100090008701000887010008870100088701000820
:1000A0008701000887010008870100088701000810
:1000B0008701000887010008870100088701000800
:1000C00087010008870100088701000887010008F0
:1000D00087010008870100088701000887010008E0
:1000E00087010008870100088701000800F002F876
:1000F00000F02CF80AA090E8000C82448344AAF196
:100100000107DA4501D100F021F8AFF2090EBAE893
:100110000F0013F0010F18BFFB1A43F0010318473B
:100120000406000014060000002300240025002619
:10013000103A28BF78C1FBD8520728BF30C148BF4A
:100140000B6070471FB51FBD10B510BD00F031F832
:100150001146FFF7F7FF00F0A5FA00F04FF803B4DF
:10016000FFF7F2FF03BC00F057F800000948804792
:1001700009480047FEE7FEE7FEE7FEE7FEE7FEE789
:10018000FEE7FEE7FEE7FEE704480549054A064BA1
:1001900070470000A1060008ED000008680000207C
:1001A000680600206802002068020020704770473F
:1001B0007047754600F02CF8AE4605006946534678
:1001C00020F00700854618B020B5FFF7DDFFBDE839
:1001D00020404FF000064FF000074FF000084FF0AE
:1001E000000BAC46ACE8C009ACE8C009ACE8C009FB
:1001F000ACE8C00921F007018D46704710B50446F0
:10020000AFF300802046BDE81040FFF7A8BF000014
:10021000004870470000002001491820ABBEFEE7EF
:100220002600020070470000A0F18041A1F5843152
:100230004FEAB121032900F2A180DFE801F0032990
:100240004F7500BF40F26001C2F200010978CA0791
:1002500040F0AC8041F21800C4F2020003684BF693
:10026000C052CFF6F07243F00403036003685B07EB
:100270000BD452B103685B075CBF03685FEA43734A
:1002800003D4036804325B07F0D541F0010070E04D
:1002900040F26001C2F2000109788A0778D441F285
:1002A0001800C4F2020003684BF6C052CFF6F07299
:1002B00043F00803036003681B070BD452B10368C3
:1002C0001B075CBF03685FEA037303D4036804324F
:1002D0001B07F0D541F002004BE000BF40F2600187
:1002E000C2F2000109784A074AD441F21800C4F268
:1002F000020003684BF6C052CFF6F07243F01003D1
:1003000003600368DB060BD452B10368DB065CBFF5
:1003100003685FEAC36303D403680432DB06F0D5E5
:1003200041F0040025E000BF40F26000C2F200008E
:100330000178080748BF704741F21800C4F2020074
:1003400003684BF6C052CFF6F07243F0200303600F
:1003500003689B060BD452B103689B065CBF03681D
:100360005FEA836303D4036804329B06F0D541F04F
:10037000080040F26001C2F200010870704700BF3F
:1003800041F20042C4F201029042F7D1D1E700BF2E
:1003900041F20042C4F201029042CAD041F200028E
:1003A000C4F2010290429ED0E8E700BF41F2004251
:1003B000C4F201029042BCD041F20002C4F2010238
:1003C00090423FF490AF40F60042C4F201029042E6
:1003D000D4D162E710B540F60004C4F2010420460F
:1003E000FFF722FF2046012100F026F8E06820F008
:1003F0000200E06010BD0000032888BF704710B500
:1004000040F60C04C4F2010407A1226851F8200050
:1004100042F00201216000F0B7F8206820F00200ED
:100420002060BDE810407047500000005000000000
:10043000DC000000F4010000B0B500F1040E6FF024
:100440001F0202EB8102734608293CBF8A00034663
:100450001C6803259540AC43022505FA02F24FEAD9
:10046000810C224307291A600CD84CF00301026862
:10047000012303FA01F122EA010101604CF00201BB
:100480000EE000BFACF11D00DEF80010012202FA00
:1004900000F021EA0000CEF80000ACF11E01704629
:1004A0000268012303FA01F122EA01010160B0BDF3
:1004B00042F20000C4F20200016821F0070101606D
:1004C0000168490709D0016849071CBF01685FEA54
:1004D000417102D001684907F2D141F20000C4F233
:1004E000020002684BF6C051CFF6F07122F0010213
:1004F00002600A4603689B070BD552B103689B074D
:1005000044BF03685FEA837303D5036804329B0723
:10051000F0D40268102363F3C7020260426822F03D
:10052000F0024260426822F4E0624260426822F4D3
:1005300060524260426822F003024260426812F058
:100540000C0F0BD0426812F00C0F07D0426812F06B
:100550000C0F03D0426812F00C0FEFD1026842F08A
:10056000010202600268920748BF704751B10268F9
:1005700092075CBF02685FEA827203D402680431AA
:100580009207EFD5704700004EF21001CEF2000145
:100590000A6842F004020A604FF4FA524A604FF0CF
:1005A00000028A600A6842F001020A6038B3421E03
:1005B000032A00F0030C27D2BCF1000F1FD00868FB
:1005C000C00309D40868C0035CBF08685FEAC03094
:1005D00002D40868C003F2D5BCF1010F0FD008683F
:1005E000C00309D40868C0035CBF08685FEAC03074
:1005F00002D40868C003F2D5BCF1020F42D10868EA
:1006000020F001000860704720F00300002302E0A2
:1006100004338342D0D00A68D20306D40A68D203D6
:100620005CBF0A685FEAC23228D50A68D20309D4DF
:100630000A68D2035CBF0A685FEAC23202D40A6861
:10064000D203F2D50A68D2030AD40A68D2035CBF87
:100650000A685FEAC23203D40A68D203F2D500BF47
:100660000A68D203D4D40A68D2035CBF0A685FEA7E
:10067000C232CDD40A68D203F2D5C9E70A68D203E0
:10068000C9D5D2E70868C003B9D40868C0035CBF05
:1006900008685FEAC030B2D40868C003F2D5AEE79C
:1006A0007047000041F21800C4F2020042684BF6A5
:1006B000C051CFF6F07142F0805242600A46436862
:1006C000DB000BD452B14368DB005CBF43685FEAD8
:1006D000C30303D443680432DB00F0D5026842F060
:1006E000010202600268D2070BD151B10268D20741
:1006F00004BF02685FEAC27203D102680431D20704
:10070000F0D00420C4F201000168022262F31A61F1
:100710000160FFF7CDFEFFF75DFE0220FFF76CFEE4
:10072000FEE7000034070008000000206806000013
:040730002801000894
:04000005080000ED02
:00000001FF
