:020000040800F2
:100000006806002099010008F9070008A10500080A
:10001000F5070008990500080D0800080000000019
:1000200000000000000000000000000001080008BF
:100030009D05000800000000FD07000805080008F5
:10004000B3010008B3010008B3010008B3010008C0
:10005000B3010008B3010008B3010008B3010008B0
:10006000B3010008B3010008B3010008B3010008A0
:10007000B3010008B3010008B3010008B301000890
:10008000B3010008B3010008B3010008B301000880
:10009000B3010008B3010008B3010008B301000870
:1000A000B3010008B3010008B3010008B301000860
:1000B000B3010008B3010008B3010008B301000850
:1000C000B3010008B3010008B3010008B301000840
:1000D000B3010008B3010008B3010008B301000830
:1000E000B3010008B3010008B301000800F002F8F2
:1000F00000F042F80AA090E8000C82448344AAF180
:100100000107DA4501D100F037F8AFF2090EBAE87D
:100110000F0013F0010F18BFFB1A43F0010318473B
:10012000740C0000940C0000103A24BF78C878C109
:10013000FAD8520724BF30C830C144BF04680C60ED
:10014000704700000023002400250026103A28BF35
:1001500078C1FBD8520728BF30C148BF0B60704739
:10016000642900F07580782900F0AE800020704787
:100170001FB51FBD10B510BD00F0D3F91146FFF734
:10018000F7FF00F045FB00F0F1F903B4FFF7F2FFD1
:1001900003BC00F0F9F9000009488047094800470E
:1001A000FEE7FEE7FEE7FEE7FEE7FEE7FEE7FEE727
:1001B000FEE7FEE704480549054A064B7047000084
:1001C00009080008ED00000868000020680600200B
:1001D00068020020680200200FB41CB5074B06AA75
:1001E0007B4469460090059800F083F90020694639
:1001F00000F092F91CBC5DF814FB00003503000010
:1002000070B5044685690068C10601D5302600E056
:100210002026C00707D070BDD4E9012130469047A1
:10022000206A401C20626D1EF6D570BD70B5044674
:1002300085690078C00707D170BDD4E9012120206D
:100240009047206A401C20626D1EF6D570BD0000EC
:100250002DE9F0410646002410687529314616A59F
:1002600010D0AFF30080002802DA404213A507E067
:1002700031688A0701D512A502E0490704D511A506
:10028000012401E0AFF3008000210A2206F12407D7
:1002900009E0B0FBF2FCB0FBF2F302FB1C003030D3
:1002A00078541846491C0028F3D123462A46304684
:1002B000BDE8F04100F0BEB8000000002D000000D5
:1002C0002B0000002000000070B504460D462146BA
:1002D0001068AFF300802188090502D50F4A7A44DF
:1002E00002E00E4A7A440E32002104F1240305E0B4
:1002F00000F00F060009965D5E54491C0028F7D1F6
:1003000020780023000704D5702D02D009B1022304
:1003100011322046BDE8704000F08CB8600A000041
:100320002DE9F0474FF0000A89460446C0F820A0A6
:100330002046E1688847002876D0252806D0D4E9F1
:1003400001219047206A401C2062F1E7E1682046C5
:1003500000258847C4F81CA006460027C4F818A04A
:100360002A2E09D0304600F0E5FC38B304EB8708AC
:10037000303EC8F8186019E059F8041B204604EB19
:1003800087029161E1688847012F064618D1E0692C
:10039000002820DA25F020051DE0D8F8180000EB31
:1003A000800006EB40003038C8F818002046E168AD
:1003B0008847064600F0BEFC0028EED1012F0AD087
:1003C0002E2E08D12046E16888477F1C0646022F62
:1003D00045F02005C4DBA069002803DA404245F05F
:1003E0000105A061E80701D025F01005B6B1A6F11E
:1003F0004100192802D8203645F400654A463146A6
:10040000204625604D46FFF7ABFE58B1012806D0C7
:10041000ED1D25F0070000F1080989E704E005F16A
:10042000040985E730468AE7206ABDE8F08770470F
:10043000704770472DE9F0470D46994692460446AD
:1004400000F124080168880604D5E06921F0100154
:10045000216000E00120A84201DD471B00E00027E9
:10046000A1697A1902EB0900081AA0612078C00678
:1004700002D42046FFF7C4FE002608E0D4E901219B
:100480001AF806009047206A401C761C20624E45F0
:10049000F4DB2078C0060AD52046FFF7B1FE06E05F
:1004A000D4E9012130209047206A401C2062381E88
:1004B000A7F10107F4DC07E0D4E9012118F80500F1
:1004C0009047206A401C2062281EA5F10105F3DC3C
:1004D0002046FFF7ABFE2078000602D50220BDE8DB
:1004E000F0870120FBE7000001694A1C02610878DF
:1004F000704700B58FB0CDE9013100210591054964
:100500007944CDE9031011466846FFF709FF0FB0A3
:1005100000BD0000E5FFFFFF0A6802F8010B0A605A
:100520007047754600F02CF8AE4605006946534604
:1005300020F00700854618B020B5FFF73BFEBDE868
:1005400020404FF000064FF000074FF000084FF03A
:10055000000BAC46ACE8C009ACE8C009ACE8C00987
:10056000ACE8C00921F007018D46704710B504467C
:10057000AFF300802046BDE81040FFF706BE000044
:10058000004870470800002001491820ABBEFEE774
:100590002600020070470000FEE7000070470000E0
:1005A000FEE700002DE9F04FB1F8018098FAA8F3BA
:1005B000B3FA83F338FA03F750D040F2011C4FF03E
:1005C000011E4FF00F0A4FF0040903E0013338FA1F
:1005D00003F243D028FA03F5ED07F7D0B3F108058D
:1005E0000EFA05F545F080664D6838BF0CFA03F643
:1005F000082D0DD1370AD1F810B0C46897FAA7F7C3
:10060000B7FA87F724EA16240BFA07F73C43C460CD
:10061000370E96FAA6F6B6FA86F63C58B6000AFAEF
:1006200006F224EA020205FA06F442EA04053D5005
:100630004A6842F00802092AC8D18A680324B440F3
:1006400025EA0404B2402243C251CC6809FA06F5F7
:10065000AA43B4402243C251B8E700BF0020BDE81E
:10066000F08F000044F6D351C1F26201A0FB0101FA
:100670004FF0FF3000EB91104EF21001CEF200016E
:1006800048600020886005200860704741F2040C33
:10069000C4F2020CDCF8002002F00C02082A41F23D
:1006A0000022C0F27A0216D1DCF80030DB0305D458
:1006B00040F60012C0F23D0207E000BFDCF8003057
:1006C000C3F340430133B2FBF3F2DCF80030C3F371
:1006D000834302335A430260DCF8003040F66A512B
:1006E000C3F30313C0F60001C95C40F67A5322FA43
:1006F00001F14160DCF80020C0F60003C2F30222E1
:100700009A5C21FA02F28260DCF80020C2F3C22275
:100710009A5CD140C160704740F20001C2F2000112
:100720000860704770B584B00446C06880045DD42A
:100730000D46E06841F20C6105F1040C88439CE829
:100740004E10084318433043E06020696E4620F4A1
:10075000405010432061606920F4407040EA0C0072
:1007600060613046FFF792FF44F20040C4F200009F
:10077000844211D044F60000C4F2000084420BD041
:1007800043F60000C4F2010084422FD106F10C00B0
:10079000006828B92AE000BF06F10800006828B305
:1007A000296819B3192250438900B0FBF1F048F2CF
:1007B0001F51C5F2EB11A0FB01235A094FF69C73A0
:1007C000C0F6FF7302FB0300322303EB0010A0FB13
:1007D0000101F02000EA511000EB0210C1F34311B7
:1007E00080B20844A060002004B070BD012004B0B5
:1007F00070BD0000FEE70000704700007047000079
:10080000704700007047000070470000FEE70000DE
:100810008CB041F20407C4F202077869022340F069
:1008200001007861786900F0010005900598B869C9
:1008300040F08050B861B96942F2000001F0805187
:10084000059105990421C4F201010A68C4F202006D
:1008500063F31A620A60016821F007010160016810
:10086000490709D0016849071CBF01685FEA417167
:1008700002D001684907F2D157F8040C102161F346
:10088000C70047F8040C57F8040C40F0010047F883
:10089000040C57F8040C80070CD457F8040C80079C
:1008A0005CBF57F8040C5FEA807003D457F8040C5F
:1008B0008007EED5386820F0F0003860386820F402
:1008C000E0603860386820F460503860386820F0A4
:1008D00003003860386810F00C0F0BD0386810F047
:1008E0000C0F07D0386810F00C0F03D0386810F0E8
:1008F0000C0FEFD141F20025C0F27A0543F6000457
:100900002846C4F20104FFF7ADFE2846FFF704FFB6
:100910007869002540F004007861786940F60008A5
:1009200000F00400059005980495786940F20209EA
:1009300040F4804078617869C4F2010800F4804096
:100940000590059878696E4640F0040078617869F2
:10095000C0F2024900F004000590059809200190BA
:100960000320CDE9020540463146CDF80090FFF75F
:1009700019FE09F102100090042001904046314612
:10098000FFF710FE4FF41650CDE905050820CDE91C
:10099000090505A92046CDE907550B95FFF7C2FECD
:1009A000206940F6825120F4904020616069C0F6D1
:1009B000000120F02A006061E068002240F400504D
:1009C000E0603869102340F040003861386900F079
:1009D00040000590059805A8FFF7FEFB9DF8141050
:1009E00029B305A803E000BF10F8011FF9B1226880
:1009F000120606D4226812065CBF22685FEA026211
:100A00000ED5616021684906EED4216849065CBFB5
:100A100021685FEA4161E7D421684906F2D5E3E73E
:100A200022681206E3D5ECE72068000609D42068A6
:100A3000000606D4206800065CBF20685FEA0060FC
:100A4000F2D50D2060602068400609D42068400679
:100A50005CBF20685FEA406002D420684006F2D59F
:100A60002068000609D4206800065CBF20685FEAA1
:100A7000006002D420680006F2D50A206060206879
:100A8000400609D4206840065CBF20685FEA4060E9
:100A900002D420684006F2D540F68251C0F600012B
:100AA00005A801224323FFF797FB9DF8141021B3FB
:100AB00005A802E010F8011FF9B12268120606D459
:100AC000226812065CBF22685FEA02620ED561608E
:100AD00021684906EED4216849065CBF21685FEAB7
:100AE0004161E7D421684906F2D5E3E7226812069E
:100AF000E3D5ECE72068000609D42068000606D498
:100B0000206800065CBF20685FEA0060F2D50D2017
:100B100060602068400609D4206840065CBF2068F9
:100B20005FEA406002D420684006F2D520680006E3
:100B300009D4206800065CBF20685FEA006002D428
:100B400020680006F2D50A2060602068400609D4BB
:100B5000206840065CBF20685FEA406002D42068DD
:100B60004006F2D540F68251C0F6000105A80222E7
:100B70006323FFF731FB9DF8141021B305A802E0B1
:100B800010F8011FF9B12268120606D42268120675
:100B90005CBF22685FEA02620ED561602168490687
:100BA000EED4216849065CBF21685FEA4161E7D461
:100BB00021684906F2D5E3E722681206E3D5ECE79F
:100BC0002068000609D42068000606D420680006C4
:100BD0005CBF20685FEA0060F2D50D20606020688D
:100BE000400609D4206840065CBF20685FEA406088
:100BF00002D420684006F2D52068000609D4206897
:100C000000065CBF20685FEA006002D4206800062E
:100C1000F2D50A2060602068400609D420684006AA
:100C20005CBF20685FEA406002D420684006F2D5CD
:100C3000386940F040003861386900F040000090A9
:100C4000009843F20000C4F20200816841F0010103
:100C5000816010210160432101606321016000BFB8
:100C6000026831A105A8FFF7B7FA9DF8141021B367
:100C700005A802E010F8011FF9B12268120606D497
:100C8000226812065CBF22685FEA02620ED56160CC
:100C900021684906EED4216849065CBF21685FEAF5
:100CA0004161E7D421684906F2D5E3E722681206DC
:100CB000E3D5ECE72068000609D42068000606D4D6
:100CC000206800065CBF20685FEA0060F2D50D2056
:100CD00060602068400609D4206840065CBF206838
:100CE0005FEA406002D420684006F2D52068000622
:100CF00009D4206800065CBF20685FEA006002D467
:100D000020680006F2D50A2060602068400609D4F9
:100D1000206840065CBF20685FEA406002D420681B
:100D20004006F2D5FEE700BF4352433D30782532FE
:100D30005800000030380A2801D2012070470020F6
:100D400070473031323334353637383941424344D5
:100D50004546403058003031323334353637383933
:100D60006162636465664030780000000000000046
:100D70000000010203040607080900000000010248
:100D80000304446174615B2531645D3D3078253234
:100D900058000000B80D0008000000200800000006
:100DA00028010008C00D00080800002060060000AF
:100DB00044010008000000000024F40000000000CE
:04000005080000ED02
:00000001FF
