:020000040800F2
:1000000068060020B5010008BD0300087902000859
:10001000B903000871020008D103000800000000C5
:10002000000000000000000000000000C503000800
:100030007502000800000000C1030008C9030008A1
:10004000CF010008CF010008CF010008CF01000850
:10005000CF010008CF010008CF010008CF01000840
:10006000CF010008CF010008CF010008CF01000830
:10007000CF010008CF010008CF010008CF01000820
:10008000CF010008CF010008CF010008CF01000810
:10009000CF010008CF010008CF010008CF01000800
:1000A000CF010008CF010008CF010008CF010008F0
:1000B000CF010008CF010008CF010008CF010008E0
:1000C000CF010008CF010008CF010008CF010008D0
:1000D000CF010008CF010008CF010008CF010008C0
:1000E000CF010008CF010008CF01000800F002F89E
:1000F00000F050F814A696E8000CB244B344DA4578
:1001000001D100F047F8BAE80F000FA696E83000DA
:10011000A5EB040504EB0607AAEB0704A7F101070A
:100120004FEA15154FEA3414A4F10104AC4201D38F
:1001300000F030F813F0010F18BFFB1A43F0010371
:1001400000F001F8DBE718474804000068040000ED
:10015000103A24BF78C878C1FAD8520724BF30C8F3
:1001600030C144BF04680C60704700007047000055
:100170000023002400250026103A28BF78C1FBD8B0
:10018000520728BF30C148BF0B6070471FB51FBD65
:1001900010B510BD00F031F81146FFF7F7FF00F081
:1001A00019F900F04FF803B4FFF7F2FF03BC00F0B9
:1001B00057F800000948804709480047FEE7FEE776
:1001C000FEE7FEE7FEE7FEE7FEE7FEE7FEE7FEE707
:1001D00004480549054A064B70470000CD03000856
:1001E000ED0000086800002068060020680200207A
:1001F00068020020704770477047754600F02CF881
:10020000AE4605006946534620F00700854618B003
:1002100020B5FFF7DDFFBDE820404FF000064FF0AE
:1002200000074FF000084FF0000BAC46ACE8C009E7
:10023000ACE8C009ACE8C009ACE8C00921F007018E
:100240008D46704710B50446AFF300802046BDE8E8
:100250001040FFF7A8BF00000048704708000020CA
:1002600001491820ABBEFEE72600020070470000DF
:10027000FEE7000070470000FEE700002DE9F04FA8
:10028000B1F8018098FAA8F3B3FA83F338FA03F7C8
:1002900050D040F2011C4FF0011E4FF00F0A4FF0FA
:1002A000040903E0013338FA03F243D028FA03F5D6
:1002B000ED07F7D0B3F108050EFA05F545F08066B5
:1002C0004D6838BF0CFA03F6082D0DD1370AD1F866
:1002D00010B0C46897FAA7F7B7FA87F724EA16248C
:1002E0000BFA07F73C43C460370E96FAA6F6B6FA47
:1002F00086F63C58B6000AFA06F224EA020205FA2B
:1003000006F442EA04053D504A6842F00802092A10
:10031000C8D18A680324B44025EA0404B2402243C9
:10032000C251CC6809FA06F5AA43B4402243C2512F
:10033000B8E700BF0020BDE8F08F000044F6D351BD
:10034000C1F26201A0FB01014FF0FF3000EB911000
:100350004EF21001CEF200014860002088600520B6
:100360000860704740F20001C2F200010860704767
:1003700081B04EF21001CEF200010A680130009205
:10038000009A28BF4FF0FF300A68D20300EBE270FA
:1003900078B10A68D20300EBE27050B10A68D20368
:1003A00000EBE27028B10A68D20300EBE27000288B
:1003B000EAD101B070470000FEE70000FEE7000050
:1003C0007047000070470000704700007047000051
:1003D000FEE7000086B041F20406C4F2020670692E
:1003E0004EF60C5140F0010070617069CEF20001D0
:1003F00000F0010000900098B0694FF6FF0240F055
:100400008050B061B0694FF0FF3500F0805000902F
:1004100000980868104040F20032C0F2FA521043CF
:1004200008600A6842F20000C2F3022282F0070369
:10043000042B28BF0423033A05FA03F338BF002234
:10044000DB4303FA02F21201CA750421C4F201016E
:100450000A68012363F31A62C4F202000A600168A9
:1004600021F0070101600168490709D001684907C7
:100470001CBF01685FEA417102D001684907F2D1EF
:1004800056F8040C102161F3C70046F8040C56F826
:10049000040C40F0010046F8040C56F8040C8007E8
:1004A0000CD456F8040C80075CBF56F8040C5FEAC5
:1004B000807003D456F8040C8007EED5306820F025
:1004C000F0003060306820F4E0603060306820F484
:1004D00060503060306820F003003060306810F009
:1004E0000C0F0BD0306810F00C0F07D0306810F0F4
:1004F0000C0F03D0306810F00C0FEFD141F2002543
:10050000C0F27A0541F200042846C4F20104FFF764
:1005100015FF2846FFF726FF00200490716941F07F
:1005200010017161716901F01001059105997169FE
:1005300041F004017161716901F0040105910599AF
:10054000716941F008017161716901F0080105915B
:1005500005994FF4005161612021C0F220410091C2
:10056000012101910221CDE9021069462046FFF7E1
:1005700085FE00BFE06800F4005040EA004080F4CF
:10058000005020614FF4FA70FFF7F2FEF2E700002E
:10059000B00500080000002008000000500100081D
:1005A000B80500080800002060060000700100087F
:0805B0000024F400000000002B
:04000005080000ED02
:00000001FF
