:020000040800F2
:1000000098060020C5010008A50B0008810600081D
:10001000A10B000879060008E50B000800000000AD
:10002000000000000000000000000000AD0B000810
:100030007D06000800000000A90B0008B10B0008B5
:10004000DF010008DF010008DF010008DF01000810
:10005000DF010008DF010008DF010008DF01000800
:10006000DF010008DF010008DF010008DF010008F0
:10007000DF010008DF010008DF010008DF010008E0
:10008000DF010008DF010008DF010008DF010008D0
:10009000DF010008DF010008DF010008DF010008C0
:1000A000DF010008DF010008DF010008DF010008B0
:1000B000DF010008DF010008DF010008DF010008A0
:1000C000DF010008DF010008DF010008DF01000890
:1000D000DF010008B90B0008DF010008DF0100089C
:1000E000DF010008DF010008DF01000800F002F86E
:1000F00000F058F814A696E8000CB244B344DA4570
:1001000001D100F04FF8BAE80F000FA696E83000D2
:10011000A5EB040504EB0607AAEB0704A7F101070A
:100120004FEA15154FEA3414A4F10104AC4201D38F
:1001300000F038F813F0010F18BFFB1A43F0010369
:1001400000F001F8DBE71847440E0000640E0000E1
:10015000103A24BF78C878C1FAD8520724BF30C8F3
:1001600030C144BF04680C60704700007047000055
:100170000023002400250026103A28BF78C1FBD8B0
:10018000520728BF30C148BF0B607047642900F098
:100190007580782900F0AE80002070471FB51FBD24
:1001A00010B510BD00F0D3F91146FFF7F7FF00F0CE
:1001B0001BFD00F0F1F903B4FFF7F2FF03BC00F000
:1001C000F9F900000948804709480047FEE7FEE7C3
:1001D000FEE7FEE7FEE7FEE7FEE7FEE7FEE7FEE7F7
:1001E00004480549054A064B70470000B50B000856
:1001F000ED000008980000209806002098020020DA
:10020000980200200FB41CB5074B06AA7B44694630
:100210000090059800F083F90020694600F092F9FB
:100220001CBC5DF814FB00003503000070B50446EB
:1002300085690068C10601D5302600E02026C00788
:1002400007D070BDD4E9012130469047206A401C98
:1002500020626D1EF6D570BD70B5044685690078C4
:10026000C00707D170BDD4E9012120209047206A42
:10027000401C20626D1EF6D570BD00002DE9F041D6
:100280000646002410687529314616A510D0AFF334
:100290000080002802DA404213A507E031688A078F
:1002A00001D512A502E0490704D511A5012401E0FA
:1002B000AFF3008000210A2206F1240709E0B0FB19
:1002C000F2FCB0FBF2F302FB1C003030785418460D
:1002D000491C0028F3D123462A463046BDE8F041A8
:1002E00000F0BEB8000000002D0000002B00000050
:1002F0002000000070B504460D4621461068AFF39B
:1003000000802188090502D50F4A7A4402E00E4A8E
:100310007A440E32002104F1240305E000F00F06B8
:100320000009965D5E54491C0028F7D1207800230F
:10033000000704D5702D02D009B1022311322046E6
:10034000BDE8704000F08CB83C0C00002DE9F0478F
:100350004FF0000A89460446C0F820A02046E16814
:100360008847002876D0252806D0D4E90121904777
:10037000206A401C2062F1E7E1682046002588479A
:10038000C4F81CA006460027C4F818A02A2E09D0DD
:10039000304600F0D3FD38B304EB8708303EC8F890
:1003A000186019E059F8041B204604EB870291619C
:1003B000E1688847012F064618D1E069002820DA55
:1003C00025F020051DE0D8F8180000EB800006EBB2
:1003D00040003038C8F818002046E16888470646D3
:1003E00000F0ACFD0028EED1012F0AD02E2E08D14E
:1003F0002046E16888477F1C0646022F45F020050D
:10040000C4DBA069002803DA404245F00105A06181
:10041000E80701D025F01005B6B1A6F14100192872
:1004200002D8203645F400654A463146204625600C
:100430004D46FFF7ABFE58B1012806D0ED1D25F063
:10044000070000F1080989E704E005F1040985E7E0
:1004500030468AE7206ABDE8F087704770477047EA
:100460002DE9F0470D4699469246044600F12408CE
:100470000168880604D5E06921F01001216000E0E0
:100480000120A84201DD471B00E00027A1697A197D
:1004900002EB0900081AA0612078C00602D42046A9
:1004A000FFF7C4FE002608E0D4E901211AF806008F
:1004B0009047206A401C761C20624E45F4DB207871
:1004C000C0060AD52046FFF7B1FE06E0D4E90121B7
:1004D00030209047206A401C2062381EA7F1010797
:1004E000F4DC07E0D4E9012118F805009047206A00
:1004F000401C2062281EA5F10105F3DC2046FFF711
:10050000ABFE2078000602D50220BDE8F08701206E
:10051000FBE7000001694A1C02610878704700B5DA
:100520008FB0CDE901310021059105497944CDE92C
:10053000031011466846FFF709FF0FB000BD000029
:10054000E5FFFFFF0A6802F8010B0A607047754675
:1005500000F02CF8AE4605006946534620F007002F
:10056000854618B020B5FFF73BFEBDE820404FF0B0
:1005700000064FF000074FF000084FF0000BAC46AC
:10058000ACE8C009ACE8C009ACE8C009ACE8C009F7
:1005900021F007018D46704710B50446AFF3008087
:1005A0002046BDE81040FFF706BE00000048704737
:1005B0000800002001491820ABBEFEE7260002001B
:1005C0007047000080B5192359439200B1FBF2F146
:1005D00048F21F5CC5F2EB1CA1FB0C3E4FF69C726F
:1005E0004FEA5E13C0F6FF7203FB0211322202EBE8
:1005F0000111A1FB0C2C89090122182988BF02EBEB
:100600005E134FEA031141EA5C1188BF190189B2F8
:10061000816080BD024652F8103F23F4904313607E
:1006200050F8143F23F02A0C4B1E042BC0F800C0D6
:1006300088BF70470FF208014FF4006CDFE803F049
:1006400006040C10140000BF4FF4804C106840EA00
:100650000C001060704700BF4FF0200C06E000BF98
:100660004FF0020C02E000BF4FF0080C0246106889
:1006700040EA0C0010607047FEE700007047000081
:10068000FEE700002DE9F04FB1F8018098FAA8F3D9
:10069000B3FA83F338FA03F750D040F2011C4FF05D
:1006A000011E4FF00F0A4FF0040903E0013338FA3E
:1006B00003F243D028FA03F5ED07F7D0B3F10805AC
:1006C0000EFA05F545F080664D6838BF0CFA03F662
:1006D000082D0DD1370AD1F810B0C46897FAA7F7E2
:1006E000B7FA87F724EA16240BFA07F73C43C460ED
:1006F000370E96FAA6F6B6FA86F63C58B6000AFA0F
:1007000006F224EA020205FA06F442EA04053D5024
:100710004A6842F00802092AC8D18A680324B44012
:1007200025EA0404B2402243C251CC6809FA06F516
:10073000AA43B4402243C251B8E700BF0020BDE83D
:10074000F08F000044F6D351C1F26201A0FB010119
:100750004FF0FF3000EB91104EF21001CEF200018D
:1007600048600020886005200860704741F2040C52
:10077000C4F2020CDCF8002002F00C02082A41F25C
:100780000022C0F27A0216D1DCF80030DB0305D477
:1007900040F60012C0F23D0207E000BFDCF8003076
:1007A000C3F340430133B2FBF3F2DCF80030C3F390
:1007B000834302335A430260DCF8003040F6727122
:1007C000C3F30313C0F60001C95C40F6827322FA3A
:1007D00001F14160DCF80020C0F60003C2F3022200
:1007E0009A5C21FA02F28260DCF80020C2F3C22295
:1007F0009A5CD140C160704740F20001C2F2000132
:100800000860704770B584B00446C06880045DD449
:100810000D46E06841F20C6105F1040C88439CE848
:100820004E10084318433043E06020696E4620F4C0
:10083000405010432061606920F4407040EA0C0091
:1008400060613046FFF792FF44F20040C4F20000BE
:10085000844211D044F60000C4F2000084420BD060
:1008600043F60000C4F2010084422FD106F10C00CF
:10087000006828B92AE000BF06F10800006828B324
:10088000296819B3192250438900B0FBF1F048F2EE
:100890001F51C5F2EB11A0FB01235A094FF69C73BF
:1008A000C0F6FF7302FB0300322303EB0010A0FB32
:1008B0000101F02000EA511000EB0210C1F34311D6
:1008C00080B20844A060002004B070BD012004B0D4
:1008D00070BD0000C07A7047002818BF002A01D1FF
:1008E000704700BF002BFBD090F80AC0BCF1000F8E
:1008F000F6D1C0E900225A1E028101228272002232
:10090000C27201F10C0010E050E8001F41F020011C
:1009100040E80012002A08BF704750E8001F41F06D
:10092000200140E80012002ADAD050E8001F41F010
:10093000200140E80012002AD2D050E8001F41F008
:10094000200140E80012002ADED1C9E7002842D089
:100950000A6892063FD50A4652F80C3F9B063AD5E4
:100960004968C9B2A1F120035E2B0BD8028992B36A
:10097000426811704168028901314160511E018154
:10098000704700BF0D2926D1416800230B7001215B
:100990008372C17210E000BF52E8000F20F0200007
:1009A00042E80001002908BF704752E8000F20F01C
:1009B000200042E8000171B152E8000F20F0200051
:1009C00042E8000139B152E8000F20F0200042E86F
:1009D00000010029E0D170470268120609D40268BC
:1009E00012065CBF02685FEA026202D40268120665
:1009F000F2D54160704700000A7802E0426011F8C9
:100A0000012F002A08BF704703681B06F6D403684D
:100A10001B065CBF03685FEA0363EFD403681B0631
:100A2000F2D5EBE720B1002A037918BF012B01D1E1
:100A3000704700BF1378002BFAD0026001220271C8
:100A400001F10C0011E000BF50E8001F41F08001EF
:100A500040E80012002A08BF704750E8001F41F02C
:100A6000800140E80012002AE2D050E8001F41F067
:100A7000800140E80012002ADAD050E8001F41F05F
:100A8000800140E80012002ADED1D1E7002808BF2B
:100A9000704780B58E465EF80C3F1B0644BF0B685E
:100AA0005FEA03630AD4DEF80020520644BF0A68F6
:100AB0005FEA42624ED4BDE880407047D0F800C083
:100AC0009CF8003033B10CF1010303609CF8003056
:100AD0004B60E8E75EE8003F23F080034EE8003219
:100AE000B2B15EE8002F22F080024EE800237BB115
:100AF0005EE8002F22F080024EE8002343B15EE85A
:100B0000002F22F080024EE80023002BE2D100BF2C
:100B10005EE8002F42F040024EE80023002BC2D0D6
:100B20005EE8002F42F040024EE80023002BBAD0CE
:100B30005EE8002F42F040024EE80023002BB2D0C6
:100B40005EE8002F42F040024EE80023002BDFD188
:100B5000A9E700BF6FF040020A6000BF5EE8001F17
:100B600021F040014EE80012AAB15EE8001F21F01A
:100B700040014EE8001272B15EE8001F21F0400112
:100B80004EE800123AB15EE8001F21F040014EE845
:100B90000012002AE2D100210171BDE880407047B7
:100BA000FEE70000FEE7000070470000704700000D
:100BB000704700007047000010B543F6000440F293
:100BC0006800C4F20104C2F200002146FFF75EFF94
:100BD00040F27000C2F200002146BDE81040FFF76D
:100BE000B5BE0000FEE700008EB041F21804C4F26A
:100BF000020420684EF60C5940F001002060206885
:100C0000CEF2000900F001000790079860684FF6E7
:100C1000FF0240F0805060606168012301F0805164
:100C200007910799D9F8001042F20000114040F2F4
:100C30000032C0F2FA521143C9F800100421C4F284
:100C400001010A68C4F2020063F31A620A600168D3
:100C500021F0070101600168490709D001684907CF
:100C60001CBF01685FEA417102D001684907F2D1F7
:100C700054F8180C102161F3C70044F8180C54F80C
:100C8000180C40F0010044F8180C54F8180C8007B8
:100C90000CD454F8180C80075CBF54F8180C5FEAA9
:100CA000807003D454F8180C8007EED554F8140C57
:100CB00020F0F00044F8140C54F8140C20F4E06018
:100CC00044F8140C54F8140C20F4605044F8140C3C
:100CD00054F8140C20F0030044F8140C54F8140CCD
:100CE00010F00C0F0ED054F8140C10F00C0F09D0AB
:100CF00054F8140C10F00C0F04D054F8140C10F02D
:100D00000C0FEBD141F2002AC0F27A0A43F6000838
:100D10005046C4F20108FFF715FD5046FFF76CFD81
:100D20002068002740F0040020602068022500F0C1
:100D3000040007900798206802AE40F00800206089
:100D40002068C0F2024500F0080007900798069757
:100D50002068314640F480402060206800F48040E4
:100D600007900798206840F0040020602068A8F5EC
:100D7000405400F0040007900798092003900320D6
:100D8000CDE9040720460295FFF77CFC05F102102F
:100D900002900420039020463146FFF773FCD9F8F7
:100DA00000004EF22540CEF2000007704EF2041013
:100DB000CEF20000202101604FF41650CDE9070764
:100DC0000C20CDE90B0707A94046CDE909770D971F
:100DD000FFF718FD43F60C04C4F20104606800211B
:100DE00020F490406060A06820F02A00A060206895
:100DF00040F4005020604046FFF70CFC404651464E
:100E00004FF41652FFF7DEFB412044F8080C404631
:100E10004221FFF7E1FD30A14046FFF7EDFD40F62E
:100E20003250019046F25450C7F273400090694628
:100E30004046FFF7E1FD2A480DF10C0C029028A076
:100E4000031D0ECB006902AC8CE80E0006904046F4
:100E50002146FFF7D1FD27A120461122FFF7D2F945
:100E600040462146FFF7C8FD27A120461122FFF783
:100E7000C9F940462146FFF7BFFD284840F2680502
:100E8000079026A0071D8ECFD0E905600DF1200C3C
:100E9000C2F200058CE88E00CDE90C6007AA284656
:100EA0004146FFF7BFFD24A605F1080405F114072C
:100EB000204641463A461923FFF70EFD2046FFF72C
:100EC00009FD0028FAD040463946FFF795FD404617
:100ED0003146FFF791FDE7E754657374310D00006B
:100EE00054657374330D0000000000000000000022
:100EF000000000004E756D62657228444543293D2F
:100F00002533640D000000004E756D62657228483F
:100F10006578293D307825580D00000048656C6CD7
:100F20006F2C2074686973206973204954206D6F99
:100F30006465210D000000000D0A000030380A2809
:100F400001D20120704700207047303132333435F0
:100F500036373839414243444546403058003031F5
:100F60003233343536373839616263646566403010
:100F700078000000000000000000010203040607E2
:100F8000080900000000010203040000B00F00087F
:100F9000000000200800000050010008B80F000801
:100FA000080000209006000070010008000000000A
:080FB0000024F4000000000021
:04000005080000ED02
:00000001FF
