:020000040800F2
:100000007006002089010008910100089301000892
:100010009501000897010008990100080000000000
:100020000000000000000000000000009B0100082C
:100030009D010008000000009F010008A1010008C8
:10004000A3010008A3010008A3010008A301000800
:10005000A3010008A3010008A3010008A3010008F0
:10006000A3010008A3010008A3010008A3010008E0
:10007000A3010008A3010008A3010008A3010008D0
:10008000A3010008A3010008A3010008A3010008C0
:10009000A3010008A3010008A3010008A3010008B0
:1000A000A3010008A3010008A3010008A3010008A0
:1000B000A3010008A3010008A3010008A301000890
:1000C000A3010008A3010008A3010008A301000880
:1000D000A3010008A3010008A3010008A301000870
:1000E000A3010008A3010008A301000800F002F822
:1000F00000F03AF80AA090E8000C82448344AAF188
:100100000107DA4501D100F02FF8AFF2090EBAE885
:100110000F0013F0010F18BFFB1A43F0010318473B
:100120005C3D00007C3D0000103A24BF78C878C1D7
:10013000FAD8520724BF30C830C144BF04680C60ED
:10014000704700000023002400250026103A28BF35
:1001500078C1FBD8520728BF30C148BF0B60704739
:100160001FB51FBD10B510BD00F031F81146FFF7E7
:10017000F7FF03F0ABFA00F04FF803B4FFF7F2FF1C
:1001800003BC00F057F800000948804709480047C1
:10019000FEE7FEE7FEE7FEE7FEE7FEE7FEE7FEE737
:1001A000FEE7FEE704480549054A064B7047000094
:1001B000A5350008ED000008700000207006002042
:1001C000700200207002002070477047704775462B
:1001D00000F02CF8AE4605006946534620F00700B3
:1001E000854618B020B5FFF7DDFFBDE820404FF091
:1001F00000064FF000074FF000084FF0000BAC4630
:10020000ACE8C009ACE8C009ACE8C009ACE8C0097A
:1002100021F007018D46704710B50446AFF300800A
:100220002046BDE81040FFF7A8BF00000048704717
:100230000800002001491820ABBEFEE7260002009E
:1002400070470000A0F18041A1F584314FEAB1214F
:10025000032900F28980DFE801F00323436300BF34
:1002600040F26801C2F200010978CA0740F09480A8
:1002700041F21800C4F20200026842F00402026077
:100280000268520709D4026852075CBF02685FEA3D
:10029000427202D402685207F2D541F001005EE0DA
:1002A00040F26801C2F2000109788A0766D441F27F
:1002B0001800C4F20200026842F0080202600268FC
:1002C000120709D4026812075CBF02685FEA027273
:1002D00002D402681207F2D541F002003FE000BFED
:1002E00040F26801C2F2000109784A073ED441F2A7
:1002F0001800C4F20200026842F0100202600268B4
:10030000D20609D40268D2065CBF02685FEAC26204
:1003100002D40268D206F2D541F004001FE000BF0B
:1003200040F26800C2F200000178080748BF704739
:1003300041F21800C4F20200026842F0200202609A
:100340000268920609D4026892065CBF02685FEAFE
:10035000826202D402689206F2D541F0080040F2AF
:100360006801C2F200010870704700BF41F200420C
:10037000C4F201029042F7D1D7E700BF41F2004238
:10038000C4F201029042D0D041F20002C4F2010254
:100390009042AAD0E8E700BF41F20042C4F2010255
:1003A0009042C2D041F20002C4F2010290429CD0BD
:1003B00040F60042C4F201029042D5D175E7000038
:1003C000072907D88900026803238B409A430260FB
:1003D00002310EE06FF01F0350F804CF03EB8103EE
:1003E00003229A402CEA020202606FF01D0202EB27
:1003F0008101026803238B409A43012303FA01F130
:100400001143016070470000B0B500F1040E6FF0B9
:100410001F0202EB8102734608293CBF8A00034693
:100420001C6803259540AC43022505FA02F24FEA09
:10043000810C224307291A600CD84CF00301026892
:10044000012303FA01F122EA010101604CF00201EB
:100450000EE000BFACF11D00DEF80010012202FA30
:1004600000F021EA0000CEF80000ACF11E01704659
:100470000268012303FA01F122EA01010160B0BD23
:10048000B0B540F20001C2F200010D784EF2100446
:1004900060F30005CEF200040D7003F085F840F61D
:1004A0000C00C4F20100D0F8001440F6104C21F00A
:1004B0000101C0F80014D0F80014C4F2010C21F0BE
:1004C0000201C0F8001400BFE9B20268CB0963F36F
:1004D000C712026002688B0963F386120260026829
:1004E0004B0963F34512026002680B0963F30412BF
:1004F0004FF0040E0260CCF800E000BF00BFCCF863
:1005000004E000BF00BF0268C1F3D80363F3C71261
:1005100002600268C1F3990363F386120260026805
:10052000C1F35A0161F345120260016865F30411D9
:100530000160CCF800E000BF00BFCCF804E000BFD1
:1005400000BF206840F004002060082060600020A8
:10055000A060206840F001002060206820F00200C8
:1005600020602068C00309D42068C0035CBF2068F5
:100570005FEAC03002D42068C003F2D52068C0030F
:100580000AD42068C0035CBF20685FEAC03003D48F
:100590002068C003F2D500BF2068C0030AD42068D9
:1005A000C0035CBF20685FEAC03003D42068C0038A
:1005B000F2D500BF2068C0030AD42068C0035CBF26
:1005C00020685FEAC03003D42068C003F2D500BFC2
:1005D0002068C0030AD42068C0035CBF20685FEABB
:1005E000C03003D42068C003F2D500BF2068C00328
:1005F0000AD42068C0035CBF20685FEAC03003D41F
:100600002068C003F2D500BF2068C0030AD4206868
:10061000C0035CBF20685FEAC03003D42068C00319
:10062000F2D500BF2068C0030AD42068C0035CBFB5
:1006300020685FEAC03003D42068C003F2D500BF51
:100640002068C0030AD42068C0035CBF20685FEA4A
:10065000C03003D42068C003F2D500BF2068C003B7
:100660000AD42068C0035CBF20685FEAC03003D4AE
:100670002068C003F2D500BF2068C0030AD42068F8
:10068000C0035CBF20685FEAC03003D42068C003A9
:10069000F2D500BF2068C0030AD42068C0035CBF45
:1006A00020685FEAC03003D42068C003F2D500BFE1
:1006B0002068C0030AD42068C0035CBF20685FEADA
:1006C000C03003D42068C003F2D500BF2068C00347
:1006D0000AD42068C0035CBF20685FEAC03003D43E
:1006E0002068C003F2D500BF2068C0030AD4206888
:1006F000C0035CBF20685FEAC03003D42068C00339
:10070000F2D500BF2068C0030AD42068C0035CBFD4
:1007100020685FEAC03003D42068C003F2D500BF70
:100720002068C0030AD42068C0035CBF20685FEA69
:10073000C03003D42068C003F2D500BF2068C003D6
:100740000AD42068C0035CBF20685FEAC03003D4CD
:100750002068C003F2D500BF2068C0030AD4206817
:10076000C0035CBF20685FEAC03003D42068C003C8
:10077000F2D500BF2068C0030AD42068C0035CBF64
:1007800020685FEAC03003D42068C003F2D500BF00
:100790002068C0030AD42068C0035CBF20685FEAF9
:1007A000C03003D42068C003F2D500BF2068C00366
:1007B0000AD42068C0035CBF20685FEAC03003D45D
:1007C0002068C003F2D500BF2068C0030AD42068A7
:1007D000C0035CBF20685FEAC03003D42068C00358
:1007E000F2D500BF2068C0030AD42068C0035CBFF4
:1007F00020685FEAC03003D42068C003F2D500BF90
:100800002068C0030AD42068C0035CBF20685FEA88
:10081000C03003D42068C003F2D500BF2068C003F5
:100820000AD42068C0035CBF20685FEAC03003D4EC
:100830002068C003F2D500BF2068C0030AD4206836
:10084000C0035CBF20685FEAC03003D42068C003E7
:10085000F2D500BF2068C0030AD42068C0035CBF83
:1008600020685FEAC03003D42068C003F2D500BF1F
:100870002068C0030AD42068C0035CBF20685FEA18
:10088000C03003D42068C003F2D500BF2068C00385
:100890000AD42068C0035CBF20685FEAC03003D47C
:1008A0002068C003F2D500BF2068C0030AD42068C6
:1008B000C0035CBF20685FEAC03003D42068C00377
:1008C000F2D500BF2068C0030AD42068C0035CBF13
:1008D00020685FEAC03003D42068C003F2D500BFAF
:1008E0002068C0030AD42068C0035CBF20685FEAA8
:1008F000C03003D42068C003F2D500BF2068C00315
:100900000AD42068C0035CBF20685FEAC03003D40B
:100910002068C003F2D500BF2068C0030AD4206855
:10092000C0035CBF20685FEAC03003D42068C00306
:10093000F2D500BF2068C0030AD42068C0035CBFA2
:1009400020685FEAC03003D42068C003F2D500BF3E
:100950002068C0030AD42068C0035CBF20685FEA37
:10096000C03003D42068C003F2D500BF2068C003A4
:100970000AD42068C0035CBF20685FEAC03003D49B
:100980002068C003F2D500BF2068C00309D42068E6
:10099000C0035CBF20685FEAC03002D42068C00397
:1009A000F2D5206820F001002060B0BD70B54EF295
:1009B000100440F6104540F60C06CEF20004C4F2D6
:1009C0000105C4F2010602F0EFFDD6F8000420F0A4
:1009D0000100C6F80004D6F8000420F00200C6F8B2
:1009E000000400BF306820F080003060306820F0E4
:1009F00040003060306820F020003060306820F027
:100A0000100030600420286000BF00BF686000BF95
:100A100000BF316821F080013160316821F0400170
:100A20003160316821F020013160316841F01001FE
:100A30003160286000BF00BF686000BF00BF206851
:100A400040F004002060082060600020A060216861
:100A500041F001012160216821F00201216040F292
:100A6000FA5102E00630884252D02268D20306D4FE
:100A70002268D2035CBF22685FEAC23244D5226892
:100A8000D20309D42268D2035CBF22685FEAC23273
:100A900002D42268D203F2D52268D2030AD4226893
:100AA000D2035CBF22685FEAC23203D42268D20359
:100AB000F2D500BF2268D2030AD42268D2035CBFF9
:100AC00022685FEAC23203D42268D203F2D500BFA3
:100AD0002268D2030AD42268D2035CBF22685FEA8C
:100AE000C23203D42268D203F2D500BF2268D203F7
:100AF000B8D42268D2035CBF22685FEAC232B1D4A4
:100B00002268D203F2D5ADE72268D203ADD5B6E7AD
:100B1000206820F00100206002F046FDD6F80004B5
:100B200020F00100C6F80004D6F8000420F002000E
:100B3000C6F8000400BF306820F0800030603068E4
:100B400020F040003060306820F0200030603068D5
:100B500020F0100030600420286000BF00BF6860F3
:100B600000BF00BF316821F080013160316821F0A1
:100B700040013160316841F020013160316821F07D
:100B800010013160286000BF00BF686000BF00BF77
:100B9000206840F004002060082060600020A06011
:100BA000216841F001012160216821F002012160EA
:100BB00040F2FA5103E000BF0630884252D022686A
:100BC000D20306D42268D2035CBF22685FEAC23235
:100BD00044D52268D20309D42268D2035CBF2268BC
:100BE0005FEAC23202D42268D203F2D52268D2036D
:100BF0000AD42268D2035CBF22685FEAC23203D4FF
:100C00002268D203F2D500BF2268D2030AD4226838
:100C1000D2035CBF22685FEAC23203D42268D203E7
:100C2000F2D500BF2268D2030AD42268D2035CBF87
:100C300022685FEAC23203D42268D203F2D500BF31
:100C40002268D203B8D42268D2035CBF22685FEA6C
:100C5000C232B1D42268D203F2D5ADE72268D20302
:100C6000ADD5B6E7206820F00100206070BD00001F
:100C70002DE9F04140F60C06C4F2010606F57D743C
:100C80004EF210052046CEF20005FFF7DBFA2046B3
:100C900000210027FFF7B8FB20460121FFF7B4FB36
:100CA0002046FFF7CFFA20460221FFF7ADFB204692
:100CB000FFF7C8FAA6F10C042046FFF7C3FA204656
:100CC000FFF7C0FA2046FFF7BDFA2046FFF7BAFA51
:100CD00020460721FFF798FB20460621FFF794FBEB
:100CE00020460521FFF790FB20460421FFF78CFBEF
:100CF000286840F0040028604FF4FA506860AF6044
:100D0000286840F001002860286820F00200286070
:100D10002868C0030AD42868C0035CBF28685FEA5B
:100D2000C03003D42868C003F2D500BF2868C003D0
:100D30000AD42868C0035CBF28685FEAC03003D4C7
:100D40002868C003F2D500BF2868C0030AD4286809
:100D5000C0035CBF28685FEAC03003D42868C003C2
:100D6000F2D500BF2868C0030AD42868C0035CBF5E
:100D700028685FEAC03003D42868C003F2D500BFFA
:100D80002868C0030AD42868C0035CBF28685FEAEB
:100D9000C03003D42868C003F2D500BF2868C00360
:100DA0000AD42868C0035CBF28685FEAC03003D457
:100DB0002868C003F2D500BF2868C0030AD4286899
:100DC000C0035CBF28685FEAC03003D42868C00352
:100DD000F2D500BF2868C0030AD42868C0035CBFEE
:100DE00028685FEAC03003D42868C003F2D500BF8A
:100DF0002868C0030AD42868C0035CBF28685FEA7B
:100E0000C03003D42868C003F2D500BF2868C003EF
:100E10000AD42868C0035CBF28685FEAC03003D4E6
:100E20002868C003F2D500BF2868C0030AD4286828
:100E3000C0035CBF28685FEAC03003D42868C003E1
:100E4000F2D500BF2868C0030AD42868C0035CBF7D
:100E500028685FEAC03003D42868C003F2D500BF19
:100E60002868C0030AD42868C0035CBF28685FEA0A
:100E7000C03003D42868C003F2D500BF2868C0037F
:100E80000AD42868C0035CBF28685FEAC03003D476
:100E90002868C003F2D500BF2868C0030AD42868B8
:100EA000C0035CBF28685FEAC03003D42868C00371
:100EB000F2D500BF2868C0030AD42868C0035CBF0D
:100EC00028685FEAC03003D42868C003F2D500BFA9
:100ED0002868C0030AD42868C0035CBF28685FEA9A
:100EE000C03003D42868C003F2D500BF2868C0030F
:100EF0000AD42868C0035CBF28685FEAC03003D406
:100F00002868C003F2D500BF2868C0030AD4286847
:100F1000C0035CBF28685FEAC03003D42868C00300
:100F2000F2D500BF2868C0030AD42868C0035CBF9C
:100F300028685FEAC03003D42868C003F2D500BF38
:100F40002868C0030AD42868C0035CBF28685FEA29
:100F5000C03003D42868C003F2D500BF2868C0039E
:100F60000AD42868C0035CBF28685FEAC03003D495
:100F70002868C003F2D500BF2868C0030AD42868D7
:100F8000C0035CBF28685FEAC03003D42868C00390
:100F9000F2D500BF2868C0030AD42868C0035CBF2C
:100FA00028685FEAC03003D42868C003F2D500BFC8
:100FB0002868C0030AD42868C0035CBF28685FEAB9
:100FC000C03003D42868C003F2D500BF2868C0032E
:100FD0000AD42868C0035CBF28685FEAC03003D425
:100FE0002868C003F2D500BF2868C0030AD4286867
:100FF000C0035CBF28685FEAC03003D42868C00320
:10100000F2D500BF2868C0030AD42868C0035CBFBB
:1010100028685FEAC03003D42868C003F2D500BF57
:101020002868C0030AD42868C0035CBF28685FEA48
:10103000C03003D42868C003F2D500BF2868C003BD
:101040000AD42868C0035CBF28685FEAC03003D4B4
:101050002868C003F2D500BF2868C0030AD42868F6
:10106000C0035CBF28685FEAC03003D42868C003AF
:10107000F2D500BF2868C0030AD42868C0035CBF4B
:1010800028685FEAC03003D42868C003F2D500BFE7
:101090002868C0030AD42868C0035CBF28685FEAD8
:1010A000C03003D42868C003F2D500BF2868C0034D
:1010B0000AD42868C0035CBF28685FEAC03003D444
:1010C0002868C003F2D500BF2868C0030AD4286886
:1010D000C0035CBF28685FEAC03003D42868C0033F
:1010E000F2D500BF2868C0030AD42868C0035CBFDB
:1010F00028685FEAC03003D42868C003F2D500BF77
:101100002868C0030AD42868C0035CBF28685FEA67
:10111000C03003D42868C003F2D500BF2868C003DC
:101120000AD42868C0035CBF28685FEAC03003D4D3
:101130002868C003F2D500BF2868C0030AD4286815
:10114000C0035CBF28685FEAC03003D42868C003CE
:10115000F2D500BF2868C00309D42868C0035CBF6B
:1011600028685FEAC03002D42868C003F2D5286836
:1011700040F60C4420F00100C4F20104286002F0A3
:1011800013FA206820F001002060206820F002009F
:10119000206000BF306820F080003060306820F0B0
:1011A00040003060306820F020003060306820F06F
:1011B000100030600420606000BF00BFA06000BF6E
:1011C00000BF316821F080013160316821F04001B9
:1011D0003160316841F020013160316821F0100147
:1011E0003160606000BF00BFA06000BF00BF286822
:1011F00040F004002860082068600020A86029688A
:1012000041F001012960296821F00201296040F2C2
:10121000FA5102E00630884252D02A68D20306D43E
:101220002A68D2035CBF2A685FEAC23244D52A68C2
:10123000D20309D42A68D2035CBF2A685FEAC232AB
:1012400002D42A68D203F2D52A68D2030AD42A68C3
:10125000D2035CBF2A685FEAC23203D42A68D20391
:10126000F2D500BF2A68D2030AD42A68D2035CBF31
:101270002A685FEAC23203D42A68D203F2D500BFDB
:101280002A68D2030AD42A68D2035CBF2A685FEABC
:10129000C23203D42A68D203F2D500BF2A68D2032F
:1012A000B8D42A68D2035CBF2A685FEAC232B1D4DC
:1012B0002A68D203F2D5ADE72A68D203ADD5B6E7E6
:1012C000286840F2000820F001002860C2F20008FF
:1012D00098F8017002F068F92068F90920F001001F
:1012E00020602068C7F3D80220F00200206000BF11
:1012F000306861F3C71030603068B90961F3861057
:1013000030603068790961F3451030603068390920
:1013100061F3041030600420606000BF00BFA06073
:1013200000BF00BF316862F3C71131603168C7F395
:10133000990262F3861131603168C7F35A0262F391
:1013400045113160316867F304113160606000BF9E
:1013500000BFA06000BF00BF286840F00400286004
:10136000082068600020A860286840F0010028601C
:10137000286820F0020028602868C0030AD4286882
:10138000C0035CBF28685FEAC03003D42868C0038C
:10139000F2D500BF2868C0030AD42868C0035CBF28
:1013A00028685FEAC03003D42868C003F2D500BFC4
:1013B0002868C0030AD42868C0035CBF28685FEAB5
:1013C000C03003D42868C003F2D500BF2868C0032A
:1013D0000AD42868C0035CBF28685FEAC03003D421
:1013E0002868C003F2D500BF2868C0030AD4286863
:1013F000C0035CBF28685FEAC03003D42868C0031C
:10140000F2D500BF2868C0030AD42868C0035CBFB7
:1014100028685FEAC03003D42868C003F2D500BF53
:101420002868C0030AD42868C0035CBF28685FEA44
:10143000C03003D42868C003F2D500BF2868C003B9
:101440000AD42868C0035CBF28685FEAC03003D4B0
:101450002868C003F2D500BF2868C0030AD42868F2
:10146000C0035CBF28685FEAC03003D42868C003AB
:10147000F2D500BF2868C0030AD42868C0035CBF47
:1014800028685FEAC03003D42868C003F2D500BFE3
:101490002868C0030AD42868C0035CBF28685FEAD4
:1014A000C03003D42868C003F2D500BF2868C00349
:1014B0000AD42868C0035CBF28685FEAC03003D440
:1014C0002868C003F2D500BF2868C0030AD4286882
:1014D000C0035CBF28685FEAC03003D42868C0033B
:1014E000F2D500BF2868C0030AD42868C0035CBFD7
:1014F00028685FEAC03003D42868C003F2D500BF73
:101500002868C0030AD42868C0035CBF28685FEA63
:10151000C03003D42868C003F2D500BF2868C003D8
:101520000AD42868C0035CBF28685FEAC03003D4CF
:101530002868C003F2D500BF2868C0030AD4286811
:10154000C0035CBF28685FEAC03003D42868C003CA
:10155000F2D500BF2868C0030AD42868C0035CBF66
:1015600028685FEAC03003D42868C003F2D500BF02
:101570002868C0030AD42868C0035CBF28685FEAF3
:10158000C03003D42868C003F2D500BF2868C00368
:101590000AD42868C0035CBF28685FEAC03003D45F
:1015A0002868C003F2D500BF2868C0030AD42868A1
:1015B000C0035CBF28685FEAC03003D42868C0035A
:1015C000F2D500BF2868C0030AD42868C0035CBFF6
:1015D00028685FEAC03003D42868C003F2D500BF92
:1015E0002868C0030AD42868C0035CBF28685FEA83
:1015F000C03003D42868C003F2D500BF2868C003F8
:101600000AD42868C0035CBF28685FEAC03003D4EE
:101610002868C003F2D500BF2868C0030AD4286830
:10162000C0035CBF28685FEAC03003D42868C003E9
:10163000F2D500BF2868C0030AD42868C0035CBF85
:1016400028685FEAC03003D42868C003F2D500BF21
:101650002868C0030AD42868C0035CBF28685FEA12
:10166000C03003D42868C003F2D500BF2868C00387
:101670000AD42868C0035CBF28685FEAC03003D47E
:101680002868C003F2D500BF2868C0030AD42868C0
:10169000C0035CBF28685FEAC03003D42868C00379
:1016A000F2D500BF2868C0030AD42868C0035CBF15
:1016B00028685FEAC03003D42868C003F2D500BFB1
:1016C0002868C0030AD42868C0035CBF28685FEAA2
:1016D000C03003D42868C003F2D500BF2868C00317
:1016E0000AD42868C0035CBF28685FEAC03003D40E
:1016F0002868C003F2D500BF2868C0030AD4286850
:10170000C0035CBF28685FEAC03003D42868C00308
:10171000F2D500BF2868C0030AD42868C0035CBFA4
:1017200028685FEAC03003D42868C003F2D500BF40
:101730002868C0030AD42868C0035CBF28685FEA31
:10174000C03003D42868C003F2D500BF2868C003A6
:101750000AD42868C0035CBF28685FEAC03003D49D
:101760002868C003F2D500BF2868C0030AD42868DF
:10177000C0035CBF28685FEAC03003D42868C00398
:10178000F2D500BF2868C0030AD42868C0035CBF34
:1017900028685FEAC03003D42868C003F2D500BFD0
:1017A0002868C00309D42868C0035CBF28685FEAC2
:1017B000C03002D42868C003F2D5286820F00100A8
:1017C000286098F8007001F0EFFE2068F90920F019
:1017D000010020602068C7F3D80220F002002060DA
:1017E00000BF306861F3C71030603068B90961F339
:1017F000861030603068790961F3451030603068D8
:10180000390961F3041030600420606000BF00BF3C
:10181000A06000BF00BF316862F3C711316031685A
:10182000C7F3990262F3861131603168C7F35A0237
:1018300062F345113160316867F304113160606013
:1018400000BF00BFA06000BF00BF286840F00400D8
:101850002860082068600020A860286840F0010027
:101860002860286820F0020028602868C00309D496
:101870002868C0035CBF28685FEAC03002D42868CB
:10188000C003F2D52868C0030AD42868C0035CBF2F
:1018900028685FEAC03003D42868C003F2D500BFCF
:1018A0002868C0030AD42868C0035CBF28685FEAC0
:1018B000C03003D42868C003F2D500BF2868C00335
:1018C0000AD42868C0035CBF28685FEAC03003D42C
:1018D0002868C003F2D500BF2868C0030AD428686E
:1018E000C0035CBF28685FEAC03003D42868C00327
:1018F000F2D500BF2868C0030AD42868C0035CBFC3
:1019000028685FEAC03003D42868C003F2D500BF5E
:101910002868C0030AD42868C0035CBF28685FEA4F
:10192000C03003D42868C003F2D500BF2868C003C4
:101930000AD42868C0035CBF28685FEAC03003D4BB
:101940002868C003F2D500BF2868C0030AD42868FD
:10195000C0035CBF28685FEAC03003D42868C003B6
:10196000F2D500BF2868C0030AD42868C0035CBF52
:1019700028685FEAC03003D42868C003F2D500BFEE
:101980002868C0030AD42868C0035CBF28685FEADF
:10199000C03003D42868C003F2D500BF2868C00354
:1019A0000AD42868C0035CBF28685FEAC03003D44B
:1019B0002868C003F2D500BF2868C0030AD428688D
:1019C000C0035CBF28685FEAC03003D42868C00346
:1019D000F2D500BF2868C0030AD42868C0035CBFE2
:1019E00028685FEAC03003D42868C003F2D500BF7E
:1019F0002868C0030AD42868C0035CBF28685FEA6F
:101A0000C03003D42868C003F2D500BF2868C003E3
:101A10000AD42868C0035CBF28685FEAC03003D4DA
:101A20002868C003F2D500BF2868C0030AD428681C
:101A3000C0035CBF28685FEAC03003D42868C003D5
:101A4000F2D500BF2868C0030AD42868C0035CBF71
:101A500028685FEAC03003D42868C003F2D500BF0D
:101A60002868C0030AD42868C0035CBF28685FEAFE
:101A7000C03003D42868C003F2D500BF2868C00373
:101A80000AD42868C0035CBF28685FEAC03003D46A
:101A90002868C003F2D500BF2868C0030AD42868AC
:101AA000C0035CBF28685FEAC03003D42868C00365
:101AB000F2D500BF2868C0030AD42868C0035CBF01
:101AC00028685FEAC03003D42868C003F2D500BF9D
:101AD0002868C0030AD42868C0035CBF28685FEA8E
:101AE000C03003D42868C003F2D500BF2868C00303
:101AF0000AD42868C0035CBF28685FEAC03003D4FA
:101B00002868C003F2D500BF2868C0030AD428683B
:101B1000C0035CBF28685FEAC03003D42868C003F4
:101B2000F2D500BF2868C0030AD42868C0035CBF90
:101B300028685FEAC03003D42868C003F2D500BF2C
:101B40002868C0030AD42868C0035CBF28685FEA1D
:101B5000C03003D42868C003F2D500BF2868C00392
:101B60000AD42868C0035CBF28685FEAC03003D489
:101B70002868C003F2D500BF2868C0030AD42868CB
:101B8000C0035CBF28685FEAC03003D42868C00384
:101B9000F2D500BF2868C0030AD42868C0035CBF20
:101BA00028685FEAC03003D42868C003F2D500BFBC
:101BB0002868C0030AD42868C0035CBF28685FEAAD
:101BC000C03003D42868C003F2D500BF2868C00322
:101BD0000AD42868C0035CBF28685FEAC03003D419
:101BE0002868C003F2D500BF2868C0030AD428685B
:101BF000C0035CBF28685FEAC03003D42868C00314
:101C0000F2D500BF2868C0030AD42868C0035CBFAF
:101C100028685FEAC03003D42868C003F2D500BF4B
:101C20002868C0030AD42868C0035CBF28685FEA3C
:101C3000C03003D42868C003F2D500BF2868C003B1
:101C40000AD42868C0035CBF28685FEAC03003D4A8
:101C50002868C003F2D500BF2868C0030AD42868EA
:101C6000C0035CBF28685FEAC03003D42868C003A3
:101C7000F2D500BF2868C0030AD42868C0035CBF3F
:101C800028685FEAC03003D42868C003F2D500BFDB
:101C90002868C00309D42868C0035CBF28685FEACD
:101CA000C03002D42868C003F2D5286820F00100B3
:101CB000286001F079FC206820F001002060206895
:101CC00020F00200206000BF306820F0800030600B
:101CD000306820F040003060306820F02000306034
:101CE000306820F0100030600420606000BF00BF4A
:101CF000A06000BF00BF316821F080013160316811
:101D000021F040013160316821F0200131603168FB
:101D100041F010013160606000BF00BFA06000BFF3
:101D200000BF286840F00400286008206860002098
:101D3000A860296841F001012960296821F00201A9
:101D4000296040F2FA5102E00630884252D02A68F7
:101D5000D20306D42A68D2035CBF2A685FEAC23283
:101D600044D52A68D20309D42A68D2035CBF2A6802
:101D70005FEAC23202D42A68D203F2D52A68D203BB
:101D80000AD42A68D2035CBF2A685FEAC23203D44D
:101D90002A68D203F2D500BF2A68D2030AD42A687F
:101DA000D2035CBF2A685FEAC23203D42A68D20336
:101DB000F2D500BF2A68D2030AD42A68D2035CBFD6
:101DC0002A685FEAC23203D42A68D203F2D500BF80
:101DD0002A68D203B8D42A68D2035CBF2A685FEAB3
:101DE000C232B1D42A68D203F2D5ADE72A68D20351
:101DF000ADD5B6E7286820F00100286001F0D4FBDB
:101E0000206820F001002060206820F0020020609F
:101E100000BF306820F080003060306820F0400063
:101E20003060306820F020003060306820F0100012
:101E300030600420606000BF00BFA06000BF00BF32
:101E4000316821F080013160316821F0400131605A
:101E5000316841F020013160316821F010013160BA
:101E6000606000BF00BFA06000BF00BF286840F0F6
:101E700004002860082068600020A860296841F0FC
:101E800001012960296821F00201296040F2FA511C
:101E900003E000BF0630884252D02A68D20306D43D
:101EA0002A68D2035CBF2A685FEAC23244D52A6836
:101EB000D20309D42A68D2035CBF2A685FEAC2321F
:101EC00002D42A68D203F2D52A68D2030AD42A6837
:101ED000D2035CBF2A685FEAC23203D42A68D20305
:101EE000F2D500BF2A68D2030AD42A68D2035CBFA5
:101EF0002A685FEAC23203D42A68D203F2D500BF4F
:101F00002A68D2030AD42A68D2035CBF2A685FEA2F
:101F1000C23203D42A68D203F2D500BF2A68D203A2
:101F2000B8D42A68D2035CBF2A685FEAC232B1D44F
:101F30002A68D203F2D5ADE72A68D203ADD5B6E759
:101F4000286820F001002860BDE8F081B0B540F2BB
:101F50000001C2F200010D784EF2100460F3410559
:101F6000CEF200040D7001F01FFB40F60C00C4F22D
:101F70000100D0F8001440F6104C21F00101C0F827
:101F80000014D0F80014C4F2010C21F00201C0F8D2
:101F9000001400BFE9B20268CB0963F3C712026004
:101FA00002688B0963F38612026002684B0963F3CF
:101FB0004512026002680B0963F304124FF0040E2D
:101FC0000260CCF800E000BF00BFCCF804E000BF26
:101FD00000BF0268C1F3D80363F3C712026002684E
:101FE000C1F3990363F3861202600268C1F35A01D8
:101FF00061F345120260016865F304110160CCF8D9
:1020000000E000BF00BFCCF804E000BF00BF2068C4
:1020100040F004002060082060600020A06020687C
:1020200040F001002060206820F00200206020685D
:10203000C00309D42068C0035CBF20685FEAC030D9
:1020400002D42068C003F2D52068C0030AD42068F7
:10205000C0035CBF20685FEAC03003D42068C003BF
:10206000F2D500BF2068C0030AD42068C0035CBF5B
:1020700020685FEAC03003D42068C003F2D500BFF7
:102080002068C0030AD42068C0035CBF20685FEAF0
:10209000C03003D42068C003F2D500BF2068C0035D
:1020A0000AD42068C0035CBF20685FEAC03003D454
:1020B0002068C003F2D500BF2068C0030AD420689E
:1020C000C0035CBF20685FEAC03003D42068C0034F
:1020D000F2D500BF2068C0030AD42068C0035CBFEB
:1020E00020685FEAC03003D42068C003F2D500BF87
:1020F0002068C0030AD42068C0035CBF20685FEA80
:10210000C03003D42068C003F2D500BF2068C003EC
:102110000AD42068C0035CBF20685FEAC03003D4E3
:102120002068C003F2D500BF2068C0030AD420682D
:10213000C0035CBF20685FEAC03003D42068C003DE
:10214000F2D500BF2068C0030AD42068C0035CBF7A
:1021500020685FEAC03003D42068C003F2D500BF16
:102160002068C0030AD42068C0035CBF20685FEA0F
:10217000C03003D42068C003F2D500BF2068C0037C
:102180000AD42068C0035CBF20685FEAC03003D473
:102190002068C003F2D500BF2068C0030AD42068BD
:1021A000C0035CBF20685FEAC03003D42068C0036E
:1021B000F2D500BF2068C0030AD42068C0035CBF0A
:1021C00020685FEAC03003D42068C003F2D500BFA6
:1021D0002068C0030AD42068C0035CBF20685FEA9F
:1021E000C03003D42068C003F2D500BF2068C0030C
:1021F0000AD42068C0035CBF20685FEAC03003D403
:102200002068C003F2D500BF2068C0030AD420684C
:10221000C0035CBF20685FEAC03003D42068C003FD
:10222000F2D500BF2068C0030AD42068C0035CBF99
:1022300020685FEAC03003D42068C003F2D500BF35
:102240002068C0030AD42068C0035CBF20685FEA2E
:10225000C03003D42068C003F2D500BF2068C0039B
:102260000AD42068C0035CBF20685FEAC03003D492
:102270002068C003F2D500BF2068C0030AD42068DC
:10228000C0035CBF20685FEAC03003D42068C0038D
:10229000F2D500BF2068C0030AD42068C0035CBF29
:1022A00020685FEAC03003D42068C003F2D500BFC5
:1022B0002068C0030AD42068C0035CBF20685FEABE
:1022C000C03003D42068C003F2D500BF2068C0032B
:1022D0000AD42068C0035CBF20685FEAC03003D422
:1022E0002068C003F2D500BF2068C0030AD420686C
:1022F000C0035CBF20685FEAC03003D42068C0031D
:10230000F2D500BF2068C0030AD42068C0035CBFB8
:1023100020685FEAC03003D42068C003F2D500BF54
:102320002068C0030AD42068C0035CBF20685FEA4D
:10233000C03003D42068C003F2D500BF2068C003BA
:102340000AD42068C0035CBF20685FEAC03003D4B1
:102350002068C003F2D500BF2068C0030AD42068FB
:10236000C0035CBF20685FEAC03003D42068C003AC
:10237000F2D500BF2068C0030AD42068C0035CBF48
:1023800020685FEAC03003D42068C003F2D500BFE4
:102390002068C0030AD42068C0035CBF20685FEADD
:1023A000C03003D42068C003F2D500BF2068C0034A
:1023B0000AD42068C0035CBF20685FEAC03003D441
:1023C0002068C003F2D500BF2068C0030AD420688B
:1023D000C0035CBF20685FEAC03003D42068C0033C
:1023E000F2D500BF2068C0030AD42068C0035CBFD8
:1023F00020685FEAC03003D42068C003F2D500BF74
:102400002068C0030AD42068C0035CBF20685FEA6C
:10241000C03003D42068C003F2D500BF2068C003D9
:102420000AD42068C0035CBF20685FEAC03003D4D0
:102430002068C003F2D500BF2068C0030AD420681A
:10244000C0035CBF20685FEAC03003D42068C003CB
:10245000F2D500BF2068C00309D42068C0035CBF68
:1024600020685FEAC03002D42068C003F2D520683B
:1024700020F001002060B0BDF0B581B00FF218521D
:10248000515C4EF21004CEF200040F1801F08CF8EB
:1024900040F60C00C4F20100D0F8001421F0010154
:1024A000C0F80014D0F8001421F00201C0F80014A4
:1024B00000BFF9B20268CB0963F3C7120260026879
:1024C0008B0963F38612026002684B0963F34512BD
:1024D000026002680B0963F30412026040F61042C6
:1024E000C4F201020423136000BF00BF536000BFA9
:1024F00000BF0568C1F3D80666F3C7150560066816
:10250000C1F3990565F3861606600668C1F35A01A2
:1025100061F345160660016867F3041101601360FA
:1025200000BF00BF536000BF00BF206840F0040040
:102530002060082060600020A060206840F001005A
:102540002060206820F0020020602068C00309D4C9
:102550002068C0035CBF20685FEAC03002D42068F6
:10256000C003F2D52068C0030AD42068C0035CBF52
:1025700020685FEAC03003D42068C003F2D500BFF2
:102580002068C0030AD42068C0035CBF20685FEAEB
:10259000C03003D42068C003F2D500BF2068C00358
:1025A0000AD42068C0035CBF20685FEAC03003D44F
:1025B0002068C003F2D500BF2068C0030AD4206899
:1025C000C0035CBF20685FEAC03003D42068C0034A
:1025D000F2D500BF2068C0030AD42068C0035CBFE6
:1025E00020685FEAC03003D42068C003F2D500BF82
:1025F0002068C0030AD42068C0035CBF20685FEA7B
:10260000C03003D42068C003F2D500BF2068C003E7
:102610000AD42068C0035CBF20685FEAC03003D4DE
:102620002068C003F2D500BF2068C0030AD4206828
:10263000C0035CBF20685FEAC03003D42068C003D9
:10264000F2D500BF2068C0030AD42068C0035CBF75
:1026500020685FEAC03003D42068C003F2D500BF11
:102660002068C0030AD42068C0035CBF20685FEA0A
:10267000C03003D42068C003F2D500BF2068C00377
:102680000AD42068C0035CBF20685FEAC03003D46E
:102690002068C003F2D500BF2068C0030AD42068B8
:1026A000C0035CBF20685FEAC03003D42068C00369
:1026B000F2D500BF2068C0030AD42068C0035CBF05
:1026C00020685FEAC03003D42068C003F2D500BFA1
:1026D0002068C0030AD42068C0035CBF20685FEA9A
:1026E000C03003D42068C003F2D500BF2068C00307
:1026F0000AD42068C0035CBF20685FEAC03003D4FE
:102700002068C003F2D500BF2068C0030AD4206847
:10271000C0035CBF20685FEAC03003D42068C003F8
:10272000F2D500BF2068C0030AD42068C0035CBF94
:1027300020685FEAC03003D42068C003F2D500BF30
:102740002068C0030AD42068C0035CBF20685FEA29
:10275000C03003D42068C003F2D500BF2068C00396
:102760000AD42068C0035CBF20685FEAC03003D48D
:102770002068C003F2D500BF2068C0030AD42068D7
:10278000C0035CBF20685FEAC03003D42068C00388
:10279000F2D500BF2068C0030AD42068C0035CBF24
:1027A00020685FEAC03003D42068C003F2D500BFC0
:1027B0002068C0030AD42068C0035CBF20685FEAB9
:1027C000C03003D42068C003F2D500BF2068C00326
:1027D0000AD42068C0035CBF20685FEAC03003D41D
:1027E0002068C003F2D500BF2068C0030AD4206867
:1027F000C0035CBF20685FEAC03003D42068C00318
:10280000F2D500BF2068C0030AD42068C0035CBFB3
:1028100020685FEAC03003D42068C003F2D500BF4F
:102820002068C0030AD42068C0035CBF20685FEA48
:10283000C03003D42068C003F2D500BF2068C003B5
:102840000AD42068C0035CBF20685FEAC03003D4AC
:102850002068C003F2D500BF2068C0030AD42068F6
:10286000C0035CBF20685FEAC03003D42068C003A7
:10287000F2D500BF2068C0030AD42068C0035CBF43
:1028800020685FEAC03003D42068C003F2D500BFDF
:102890002068C0030AD42068C0035CBF20685FEAD8
:1028A000C03003D42068C003F2D500BF2068C00345
:1028B0000AD42068C0035CBF20685FEAC03003D43C
:1028C0002068C003F2D500BF2068C0030AD4206886
:1028D000C0035CBF20685FEAC03003D42068C00337
:1028E000F2D500BF2068C0030AD42068C0035CBFD3
:1028F00020685FEAC03003D42068C003F2D500BF6F
:102900002068C0030AD42068C0035CBF20685FEA67
:10291000C03003D42068C003F2D500BF2068C003D4
:102920000AD42068C0035CBF20685FEAC03003D4CB
:102930002068C003F2D500BF2068C0030AD4206815
:10294000C0035CBF20685FEAC03003D42068C003C6
:10295000F2D500BF2068C0030AD42068C0035CBF62
:1029600020685FEAC03003D42068C003F2D500BFFE
:102970002068C00309D42068C0035CBF20685FEAF8
:10298000C03002D42068C003F2D5206820F00100D6
:10299000206001B0F0BD00BF80C094D4B0B54EF24D
:1029A00010050446CEF2000500F0FEFD40F60C00D6
:1029B000C4F20100D0F80014E20941F00101C0F8AE
:1029C0000014D0F8001440F6104C21F00201C0F8B9
:1029D00000140168C4F2010C62F3C71101600168C0
:1029E000A20962F3861101600168620962F3451170
:1029F00001600168220962F3041104220160CCF82D
:102A0000002000BF00BFCCF8042000BF00BF036857
:102A1000C4F3D80161F3C71303600168C4F39903D9
:102A200063F3861101600168C4F35A0363F345112F
:102A30000160016864F304110160CCF8002000BF5C
:102A400000BFCCF8042000BF00BF286840F004009D
:102A50002860082068600020A860286840F0010015
:102A60002860286820F0020028602868C00309D484
:102A70002868C0035CBF28685FEAC03002D42868B9
:102A8000C003F2D52868C0030AD42868C0035CBF1D
:102A900028685FEAC03003D42868C003F2D500BFBD
:102AA0002868C0030AD42868C0035CBF28685FEAAE
:102AB000C03003D42868C003F2D500BF2868C00323
:102AC0000AD42868C0035CBF28685FEAC03003D41A
:102AD0002868C003F2D500BF2868C0030AD428685C
:102AE000C0035CBF28685FEAC03003D42868C00315
:102AF000F2D500BF2868C0030AD42868C0035CBFB1
:102B000028685FEAC03003D42868C003F2D500BF4C
:102B10002868C0030AD42868C0035CBF28685FEA3D
:102B2000C03003D42868C003F2D500BF2868C003B2
:102B30000AD42868C0035CBF28685FEAC03003D4A9
:102B40002868C003F2D500BF2868C0030AD42868EB
:102B5000C0035CBF28685FEAC03003D42868C003A4
:102B6000F2D500BF2868C0030AD42868C0035CBF40
:102B700028685FEAC03003D42868C003F2D500BFDC
:102B80002868C0030AD42868C0035CBF28685FEACD
:102B9000C03003D42868C003F2D500BF2868C00342
:102BA0000AD42868C0035CBF28685FEAC03003D439
:102BB0002868C003F2D500BF2868C0030AD428687B
:102BC000C0035CBF28685FEAC03003D42868C00334
:102BD000F2D500BF2868C0030AD42868C0035CBFD0
:102BE00028685FEAC03003D42868C003F2D500BF6C
:102BF0002868C0030AD42868C0035CBF28685FEA5D
:102C0000C03003D42868C003F2D500BF2868C003D1
:102C10000AD42868C0035CBF28685FEAC03003D4C8
:102C20002868C003F2D500BF2868C0030AD428680A
:102C3000C0035CBF28685FEAC03003D42868C003C3
:102C4000F2D500BF2868C0030AD42868C0035CBF5F
:102C500028685FEAC03003D42868C003F2D500BFFB
:102C60002868C0030AD42868C0035CBF28685FEAEC
:102C7000C03003D42868C003F2D500BF2868C00361
:102C80000AD42868C0035CBF28685FEAC03003D458
:102C90002868C003F2D500BF2868C0030AD428689A
:102CA000C0035CBF28685FEAC03003D42868C00353
:102CB000F2D500BF2868C0030AD42868C0035CBFEF
:102CC00028685FEAC03003D42868C003F2D500BF8B
:102CD0002868C0030AD42868C0035CBF28685FEA7C
:102CE000C03003D42868C003F2D500BF2868C003F1
:102CF0000AD42868C0035CBF28685FEAC03003D4E8
:102D00002868C003F2D500BF2868C0030AD4286829
:102D1000C0035CBF28685FEAC03003D42868C003E2
:102D2000F2D500BF2868C0030AD42868C0035CBF7E
:102D300028685FEAC03003D42868C003F2D500BF1A
:102D40002868C0030AD42868C0035CBF28685FEA0B
:102D5000C03003D42868C003F2D500BF2868C00380
:102D60000AD42868C0035CBF28685FEAC03003D477
:102D70002868C003F2D500BF2868C0030AD42868B9
:102D8000C0035CBF28685FEAC03003D42868C00372
:102D9000F2D500BF2868C0030AD42868C0035CBF0E
:102DA00028685FEAC03003D42868C003F2D500BFAA
:102DB0002868C0030AD42868C0035CBF28685FEA9B
:102DC000C03003D42868C003F2D500BF2868C00310
:102DD0000AD42868C0035CBF28685FEAC03003D407
:102DE0002868C003F2D500BF2868C0030AD4286849
:102DF000C0035CBF28685FEAC03003D42868C00302
:102E0000F2D500BF2868C0030AD42868C0035CBF9D
:102E100028685FEAC03003D42868C003F2D500BF39
:102E20002868C0030AD42868C0035CBF28685FEA2A
:102E3000C03003D42868C003F2D500BF2868C0039F
:102E40000AD42868C0035CBF28685FEAC03003D496
:102E50002868C003F2D500BF2868C0030AD42868D8
:102E6000C0035CBF28685FEAC03003D42868C00391
:102E7000F2D500BF2868C0030AD42868C0035CBF2D
:102E800028685FEAC03003D42868C003F2D500BFC9
:102E90002868C0030AD42868C0035CBF28685FEABA
:102EA000C03003D42868C003F2D500BF2868C0032F
:102EB0000AD42868C0035CBF28685FEAC03003D426
:102EC0002868C003F2D500BF2868C0030AD4286868
:102ED000C0035CBF28685FEAC03003D42868C00321
:102EE000F2D500BF2868C0030AD42868C0035CBFBD
:102EF00028685FEAC03003D42868C003F2D500BF59
:102F00002868C00309D42868C0035CBF28685FEA4A
:102F1000C03002D42868C003F2D5286820F0010030
:102F20002860B0BD10B50178002908BF10BD441E4F
:102F3000C8B2FFF733FDA17801340029F8D110BDE4
:102F4000B0B540F20001C2F200010D784EF210045B
:102F500060F38205CEF200040D7000F025FB40F610
:102F60000C00C4F20100D0F8001440F6104C21F01F
:102F70000101C0F80014D0F80014C4F2010C21F0D3
:102F80000201C0F8001400BFE9B20268CB0963F384
:102F9000C712026002688B0963F38612026002683E
:102FA0004B0963F34512026002680B0963F30412D4
:102FB0004FF0040E0260CCF800E000BF00BFCCF878
:102FC00004E000BF00BF0268C1F3D80363F3C71277
:102FD00002600268C1F3990363F38612026002681B
:102FE000C1F35A0161F345120260016865F30411EF
:102FF0000160CCF800E000BF00BFCCF804E000BFE7
:1030000000BF206840F004002060082060600020BD
:10301000A060206840F001002060206820F00200DD
:1030200020602068C00309D42068C0035CBF20680A
:103030005FEAC03002D42068C003F2D52068C00324
:103040000AD42068C0035CBF20685FEAC03003D4A4
:103050002068C003F2D500BF2068C0030AD42068EE
:10306000C0035CBF20685FEAC03003D42068C0039F
:10307000F2D500BF2068C0030AD42068C0035CBF3B
:1030800020685FEAC03003D42068C003F2D500BFD7
:103090002068C0030AD42068C0035CBF20685FEAD0
:1030A000C03003D42068C003F2D500BF2068C0033D
:1030B0000AD42068C0035CBF20685FEAC03003D434
:1030C0002068C003F2D500BF2068C0030AD420687E
:1030D000C0035CBF20685FEAC03003D42068C0032F
:1030E000F2D500BF2068C0030AD42068C0035CBFCB
:1030F00020685FEAC03003D42068C003F2D500BF67
:103100002068C0030AD42068C0035CBF20685FEA5F
:10311000C03003D42068C003F2D500BF2068C003CC
:103120000AD42068C0035CBF20685FEAC03003D4C3
:103130002068C003F2D500BF2068C0030AD420680D
:10314000C0035CBF20685FEAC03003D42068C003BE
:10315000F2D500BF2068C0030AD42068C0035CBF5A
:1031600020685FEAC03003D42068C003F2D500BFF6
:103170002068C0030AD42068C0035CBF20685FEAEF
:10318000C03003D42068C003F2D500BF2068C0035C
:103190000AD42068C0035CBF20685FEAC03003D453
:1031A0002068C003F2D500BF2068C0030AD420689D
:1031B000C0035CBF20685FEAC03003D42068C0034E
:1031C000F2D500BF2068C0030AD42068C0035CBFEA
:1031D00020685FEAC03003D42068C003F2D500BF86
:1031E0002068C0030AD42068C0035CBF20685FEA7F
:1031F000C03003D42068C003F2D500BF2068C003EC
:103200000AD42068C0035CBF20685FEAC03003D4E2
:103210002068C003F2D500BF2068C0030AD420682C
:10322000C0035CBF20685FEAC03003D42068C003DD
:10323000F2D500BF2068C0030AD42068C0035CBF79
:1032400020685FEAC03003D42068C003F2D500BF15
:103250002068C0030AD42068C0035CBF20685FEA0E
:10326000C03003D42068C003F2D500BF2068C0037B
:103270000AD42068C0035CBF20685FEAC03003D472
:103280002068C003F2D500BF2068C0030AD42068BC
:10329000C0035CBF20685FEAC03003D42068C0036D
:1032A000F2D500BF2068C0030AD42068C0035CBF09
:1032B00020685FEAC03003D42068C003F2D500BFA5
:1032C0002068C0030AD42068C0035CBF20685FEA9E
:1032D000C03003D42068C003F2D500BF2068C0030B
:1032E0000AD42068C0035CBF20685FEAC03003D402
:1032F0002068C003F2D500BF2068C0030AD420684C
:10330000C0035CBF20685FEAC03003D42068C003FC
:10331000F2D500BF2068C0030AD42068C0035CBF98
:1033200020685FEAC03003D42068C003F2D500BF34
:103330002068C0030AD42068C0035CBF20685FEA2D
:10334000C03003D42068C003F2D500BF2068C0039A
:103350000AD42068C0035CBF20685FEAC03003D491
:103360002068C003F2D500BF2068C0030AD42068DB
:10337000C0035CBF20685FEAC03003D42068C0038C
:10338000F2D500BF2068C0030AD42068C0035CBF28
:1033900020685FEAC03003D42068C003F2D500BFC4
:1033A0002068C0030AD42068C0035CBF20685FEABD
:1033B000C03003D42068C003F2D500BF2068C0032A
:1033C0000AD42068C0035CBF20685FEAC03003D421
:1033D0002068C003F2D500BF2068C0030AD420686B
:1033E000C0035CBF20685FEAC03003D42068C0031C
:1033F000F2D500BF2068C0030AD42068C0035CBFB8
:1034000020685FEAC03003D42068C003F2D500BF53
:103410002068C0030AD42068C0035CBF20685FEA4C
:10342000C03003D42068C003F2D500BF2068C003B9
:103430000AD42068C0035CBF20685FEAC03003D4B0
:103440002068C003F2D500BF2068C00309D42068FB
:10345000C0035CBF20685FEAC03002D42068C003AC
:10346000F2D5206820F001002060B0BD80B542F2A6
:103470000000C4F20200016821F007010160016848
:10348000490709D0016849071CBF01685FEA41711B
:1034900002D001684907F2D141F20400C4F20200EF
:1034A00050F8041C102262F3C70140F8041C50F8C5
:1034B000041C41F0010140F8041C50F8041C890769
:1034C0000CD450F8041C89075CBF50F8041C5FEA58
:1034D000817103D450F8041C8907EED5016821F0EE
:1034E00003010160016811F00C0F0BD0016811F0AD
:1034F0000C0F07D0016811F00C0F03D0016811F018
:103500000C0FEFD1016821F0F0010160016821F496
:10351000E0610160016821F46051016000F00AF887
:1035200040F2040041F20021C2F20000C0F27A0130
:10353000016080BD41F20400C4F20200016801F0A4
:103540000C01082941F20021C0F27A0119D1026868
:103550000368C2F38342DB0302F1020206D440F6A1
:103560000011C0F23D0151430BE000BF03689B0313
:1035700002D4514305E000BF40F60011C0F23D0106
:10358000514340F20402C2F200021160006843F6A7
:103590006C63C0F30310C0F60003185C21FA00F05E
:1035A000106070477047000070B582B040F60004AC
:1035B000C4F20104012040F610458DF807002046B2
:1035C0000721C4F20105FCF7FBFE20460621FCF7AB
:1035D000F7FE20460521FCF7F3FE204604210426D1
:1035E000FCF7EEFE55F8040C20F0010045F8040C41
:1035F00055F8040C40F0020045F8040C00BF00BF71
:103600002E6000BF00BFA068C0B2C0098DF80700DF
:103610006E6000BF00BF2E6000BF00BF6E6000BFC5
:1036200000BF9DF80700E0B32E6000BF00BFA06898
:10363000C0B2C0098DF807006E6000BF00BF2E60E9
:1036400000BF00BF6E6000BF00BF9DF8070040B321
:103650002E6000BF00BFA068C0B2C0098DF807008F
:103660006E6000BF00BF2E6000BF00BF6E6000BF75
:1036700000BF9DF80700A0B12E6000BF00BFA0688A
:10368000C0B2C0098DF807006E6000BF00BF2E6099
:1036900000BF00BF6E6000BF00BF9DF8070000289C
:1036A000AED12046072100BFFCF7AEFE2046062122
:1036B000FCF7AAFE20460521FCF7A6FE20460421C1
:1036C00002B0BDE87040FCF79FBE000084B000214E
:1036D000039146F66F71C6F66411029147F66521B3
:1036E000C4F66121019146F6414141F21800C5F24C
:1036F0006921C4F202000091416841F080514160AB
:103700004168C90009D44168C9005CBF41685FEAEB
:10371000C10102D44168C900F2D5016841F001013C
:1037200001600168C90709D10168C90704BF0168C0
:103730005FEAC17102D10168C907F2D00420C4F266
:103740000100016802224EF2100462F31A61CEF207
:1037500000040160FFF78AFEFDF78AFA00200021CD
:103760000025FEF789FE0FF2F060FFF7DBFB206813
:1037700040F0040020604FF4FA506060A5602068BB
:1037800040F001002060206820F00200206002E08C
:103790000535FA2D44D02068C00306D42068C00344
:1037A0005CBF20685FEAC03036D52068C00309D40A
:1037B0002068C0035CBF20685FEAC03002D4206884
:1037C000C003F2D52068C0030AD42068C0035CBFE0
:1037D00020685FEAC03003D42068C003F2D500BF80
:1037E0002068C0030AD42068C0035CBF20685FEA79
:1037F000C03003D42068C003F2D500BF2068C003E6
:10380000C6D42068C0035CBF20685FEAC030BFD464
:103810002068C003F2D5BBE72068C003BBD5C4E76E
:103820002068002520F0010020600020FFF788FBC1
:10383000206840F0040020604FF4FA506060A560FA
:10384000206840F001002060206820F00200206025
:1038500003E000BF0535FA2D44D02068C00306D42C
:103860002068C0035CBF20685FEAC03036D520689E
:10387000C00309D42068C0035CBF20685FEAC03081
:1038800002D42068C003F2D52068C0030AD420689F
:10389000C0035CBF20685FEAC03003D42068C00367
:1038A000F2D500BF2068C0030AD42068C0035CBF03
:1038B00020685FEAC03003D42068C003F2D500BF9F
:1038C0002068C003C6D42068C0035CBF20685FEADC
:1038D000C030BFD42068C003F2D5BBE72068C00366
:1038E000BBD5C4E7206820F0010020600120FFF76D
:1038F00027FB206840F0040020604FF4FA5060601D
:103900000020A060216841F001012160216821F0C0
:103910000201216003E000BF0530FA2844D021688D
:10392000C90306D42168C9035CBF21685FEAC131BD
:1039300036D52168C90309D42168C9035CBF216851
:103940005FEAC13102D42168C903F2D52168C903F5
:103950000AD42168C9035CBF21685FEAC13103D47E
:103960002168C903F2D500BF2168C9030AD42168C0
:10397000C9035CBF21685FEAC13103D42168C90370
:10398000F2D500BF2168C903C6D42168C9035CBF52
:1039900021685FEAC131BFD42168C903F2D5BBE712
:1039A0002168C903BBD5C4E72068012120F00100CC
:1039B000206000200025FEF75FFD6846FFF7B2FAA1
:1039C000206840F0040020604FF4FA506060A56069
:1039D000206840F001002060206820F00200206094
:1039E00003E000BF0535FA2D44D02068C00306D49B
:1039F0002068C0035CBF20685FEAC03036D520680D
:103A0000C00309D42068C0035CBF20685FEAC030EF
:103A100002D42068C003F2D52068C0030AD420680D
:103A2000C0035CBF20685FEAC03003D42068C003D5
:103A3000F2D500BF2068C0030AD42068C0035CBF71
:103A400020685FEAC03003D42068C003F2D500BF0D
:103A50002068C003C6D42068C0035CBF20685FEA4A
:103A6000C030BFD42068C003F2D5BBE72068C003D4
:103A7000BBD5C4E7206820F0010020600120FEF7DC
:103A800065FA206840F0040020604FF4FA5060604E
:103A90000020A060216841F001012160216821F02F
:103AA0000201216003E000BF0530FA2844D02168FC
:103AB000C90306D42168C9035CBF21685FEAC1312C
:103AC00036D52168C90309D42168C9035CBF2168C0
:103AD0005FEAC13102D42168C903F2D52168C90364
:103AE0000AD42168C9035CBF21685FEAC13103D4ED
:103AF0002168C903F2D500BF2168C9030AD421682F
:103B0000C9035CBF21685FEAC13103D42168C903DE
:103B1000F2D500BF2168C903C6D42168C9035CBFC0
:103B200021685FEAC131BFD42168C903F2D5BBE780
:103B30002168C903BBD5C4E7206820F001002060DC
:103B4000FCF734FF4120FEF729FF0120FCF798FC29
:103B5000206840F0040020604FF4FA5060600020BC
:103B6000A060216841F001012160216821F002017B
:103B7000216003E00830B0F5FA6F73D02168C90303
:103B800006D42168C9035CBF21685FEAC13163D5EF
:103B90002168C9030AD42168C9035CBF21685FEAB0
:103BA000C13103D42168C903F2D500BF2168C9031C
:103BB0000AD42168C9035CBF21685FEAC13103D41C
:103BC0002168C903F2D500BF2168C9030AD421685E
:103BD000C9035CBF21685FEAC13103D42168C9030E
:103BE000F2D500BF2168C9030AD42168C9035CBFAC
:103BF00021685FEAC13103D42168C903F2D500BF4F
:103C00002168C9030AD42168C9035CBF21685FEA3F
:103C1000C13103D42168C903F2D500BF2168C903AB
:103C20000AD42168C9035CBF21685FEAC13103D4AB
:103C30002168C903F2D500BF2168C9039AD421685D
:103C4000C9035CBF21685FEAC1313FF593AF2168CA
:103C5000C903F1D58EE700BF2168C9037FF58EAF98
:103C600096E700BF2068002520F0010020600020BA
:103C7000FCF706FC206840F0040020604FF4FA5086
:103C80006060A560206840F001002060206820F09E
:103C90000200206004E000BF0835B5F57A7F73D0DC
:103CA0002068C00306D42068C0035CBF20685FEAB8
:103CB000C03063D52068C0030AD42068C0035CBF4D
:103CC00020685FEAC03003D42068C003F2D500BF8B
:103CD0002068C0030AD42068C0035CBF20685FEA84
:103CE000C03003D42068C003F2D500BF2068C003F1
:103CF0000AD42068C0035CBF20685FEAC03003D4E8
:103D00002068C003F2D500BF2068C0030AD4206831
:103D1000C0035CBF20685FEAC03003D42068C003E2
:103D2000F2D500BF2068C0030AD42068C0035CBF7E
:103D300020685FEAC03003D42068C003F2D500BF1A
:103D40002068C0030AD42068C0035CBF20685FEA13
:103D5000C03003D42068C003F2D500BF2068C00380
:103D60009AD42068C0035CBF20685FEAC0303FF58A
:103D700093AF2068C003F1D58EE700BF2068C00371
:103D80007FF58EAF96E700BF2068002520F0010088
:103D900020600020FEF7DAF8206840F00400206080
:103DA0004FF4FA506060A560206840F00100206088
:103DB000206820F00200206003E000BF0535FA2DE6
:103DC00044D02068C00306D42068C0035CBF2068CC
:103DD0005FEAC03036D52068C00309D42068C0032C
:103DE0005CBF20685FEAC03002D42068C003F2D50F
:103DF0002068C0030AD42068C0035CBF20685FEA63
:103E0000C03003D42068C003F2D500BF2068C003CF
:103E10000AD42068C0035CBF20685FEAC03003D4C6
:103E20002068C003F2D500BF2068C003C6D4206854
:103E3000C0035CBF20685FEAC030BFD42068C00305
:103E4000F2D5BBE72068C003BBD5C4E7206820F0EB
:103E500001002060FEE700BF3031323334353637A1
:103E600038393031323334350000000000000000B2
:103E7000000000000102030406070809A03E000834
:103E8000000000200800000028010008A83E0008EB
:103E9000080000206806000044010008000000003F
:083EA0000C2800000024F400CE
:04000005080000ED02
:00000001FF
